{"abi":[{"type":"constructor","inputs":[{"name":"weth","type":"address","internalType":"address"}],"stateMutability":"nonpayable"},{"type":"receive","stateMutability":"payable"},{"type":"function","name":"WETH","inputs":[],"outputs":[{"name":"","type":"address","internalType":"address"}],"stateMutability":"view"},{"type":"function","name":"unwrapWETH","inputs":[{"name":"amount","type":"uint256","internalType":"uint256"},{"name":"recipient","type":"address","internalType":"address payable"}],"outputs":[],"stateMutability":"nonpayable"},{"type":"function","name":"wrapETH","inputs":[{"name":"recipient","type":"address","internalType":"address"}],"outputs":[],"stateMutability":"payable"},{"type":"error","name":"TransferFailed","inputs":[]},{"type":"error","name":"ZeroAddress","inputs":[]}],"bytecode":{"object":"0x60a060405234801561000f575f5ffd5b506040516108223803806108228339818101604052810190610031919061012e565b5f73ffffffffffffffffffffffffffffffffffffffff168173ffffffffffffffffffffffffffffffffffffffff1603610096576040517fd92e233d00000000000000000000000000000000000000000000000000000000815260040160405180910390fd5b8073ffffffffffffffffffffffffffffffffffffffff1660808173ffffffffffffffffffffffffffffffffffffffff168152505050610159565b5f5ffd5b5f73ffffffffffffffffffffffffffffffffffffffff82169050919050565b5f6100fd826100d4565b9050919050565b61010d816100f3565b8114610117575f5ffd5b50565b5f8151905061012881610104565b92915050565b5f60208284031215610143576101426100d0565b5b5f6101508482850161011a565b91505092915050565b60805161069c6101865f395f8181610117015281816101940152818161026801526102f1015261069c5ff3fe608060405260043610610037575f3560e01c8063406ee86314610042578063ad5c46481461005e578063e16d9ce5146100885761003e565b3661003e57005b5f5ffd5b61005c60048036038101906100579190610477565b6100b0565b005b348015610069575f5ffd5b50610072610266565b60405161007f91906104b1565b60405180910390f35b348015610093575f5ffd5b506100ae60048036038101906100a99190610538565b61028a565b005b5f73ffffffffffffffffffffffffffffffffffffffff168173ffffffffffffffffffffffffffffffffffffffff1603610115576040517fd92e233d00000000000000000000000000000000000000000000000000000000815260040160405180910390fd5b7f000000000000000000000000000000000000000000000000000000000000000073ffffffffffffffffffffffffffffffffffffffff1663d0e30db0346040518263ffffffff1660e01b81526004015f604051808303818588803b15801561017b575f5ffd5b505af115801561018d573d5f5f3e3d5ffd5b50505050507f000000000000000000000000000000000000000000000000000000000000000073ffffffffffffffffffffffffffffffffffffffff1663a9059cbb82346040518363ffffffff1660e01b81526004016101ed929190610585565b6020604051808303815f875af1158015610209573d5f5f3e3d5ffd5b505050506040513d601f19601f8201168201806040525081019061022d91906105e1565b610263576040517f90b8ec1800000000000000000000000000000000000000000000000000000000815260040160405180910390fd5b50565b7f000000000000000000000000000000000000000000000000000000000000000081565b5f73ffffffffffffffffffffffffffffffffffffffff168173ffffffffffffffffffffffffffffffffffffffff16036102ef576040517fd92e233d00000000000000000000000000000000000000000000000000000000815260040160405180910390fd5b7f000000000000000000000000000000000000000000000000000000000000000073ffffffffffffffffffffffffffffffffffffffff16632e1a7d4d836040518263ffffffff1660e01b8152600401610348919061060c565b5f604051808303815f87803b15801561035f575f5ffd5b505af1158015610371573d5f5f3e3d5ffd5b505050505f8173ffffffffffffffffffffffffffffffffffffffff168360405161039a90610652565b5f6040518083038185875af1925050503d805f81146103d4576040519150601f19603f3d011682016040523d82523d5f602084013e6103d9565b606091505b5050905080610414576040517f90b8ec1800000000000000000000000000000000000000000000000000000000815260040160405180910390fd5b505050565b5f5ffd5b5f73ffffffffffffffffffffffffffffffffffffffff82169050919050565b5f6104468261041d565b9050919050565b6104568161043c565b8114610460575f5ffd5b50565b5f813590506104718161044d565b92915050565b5f6020828403121561048c5761048b610419565b5b5f61049984828501610463565b91505092915050565b6104ab8161043c565b82525050565b5f6020820190506104c45f8301846104a2565b92915050565b5f819050919050565b6104dc816104ca565b81146104e6575f5ffd5b50565b5f813590506104f7816104d3565b92915050565b5f6105078261041d565b9050919050565b610517816104fd565b8114610521575f5ffd5b50565b5f813590506105328161050e565b92915050565b5f5f6040838503121561054e5761054d610419565b5b5f61055b858286016104e9565b925050602061056c85828601610524565b9150509250929050565b61057f816104ca565b82525050565b5f6040820190506105985f8301856104a2565b6105a56020830184610576565b9392505050565b5f8115159050919050565b6105c0816105ac565b81146105ca575f5ffd5b50565b5f815190506105db816105b7565b92915050565b5f602082840312156105f6576105f5610419565b5b5f610603848285016105cd565b91505092915050565b5f60208201905061061f5f830184610576565b92915050565b5f81905092915050565b50565b5f61063d5f83610625565b91506106488261062f565b5f82019050919050565b5f61065c82610632565b915081905091905056fea2646970667358221220db05fbbf7dcc4c5de6c86c5673993178dfbe45ca0a5b4a13870b3c779f150d2864736f6c634300081e0033","linkReferences":{}},"methodIdentifiers":{"WETH()":"ad5c4648","unwrapWETH(uint256,address)":"e16d9ce5","wrapETH(address)":"406ee863"},"id":71}