{"abi":[{"type":"constructor","inputs":[],"stateMutability":"nonpayable"},{"type":"function","name":"UPGRADE_INTERFACE_VERSION","inputs":[],"outputs":[{"name":"","type":"string","internalType":"string"}],"stateMutability":"view"},{"type":"function","name":"getPendingRequest","inputs":[{"name":"requestId","type":"uint256","internalType":"uint256"}],"outputs":[{"name":"collection","type":"address","internalType":"address"},{"name":"tokenId","type":"uint256","internalType":"uint256"}],"stateMutability":"view"},{"type":"function","name":"initialize","inputs":[{"name":"vrfCoordinator","type":"address","internalType":"address"},{"name":"subscriptionId","type":"uint256","internalType":"uint256"},{"name":"keyHash","type":"bytes32","internalType":"bytes32"},{"name":"callbackGasLimit","type":"uint32","internalType":"uint32"},{"name":"requestConfirmations","type":"uint16","internalType":"uint16"}],"outputs":[],"stateMutability":"nonpayable"},{"type":"function","name":"isAuthorizedCollection","inputs":[{"name":"collection","type":"address","internalType":"address"}],"outputs":[{"name":"","type":"bool","internalType":"bool"}],"stateMutability":"view"},{"type":"function","name":"owner","inputs":[],"outputs":[{"name":"","type":"address","internalType":"address"}],"stateMutability":"view"},{"type":"function","name":"proxiableUUID","inputs":[],"outputs":[{"name":"","type":"bytes32","internalType":"bytes32"}],"stateMutability":"view"},{"type":"function","name":"rawFulfillRandomWords","inputs":[{"name":"requestId","type":"uint256","internalType":"uint256"},{"name":"randomWords","type":"uint256[]","internalType":"uint256[]"}],"outputs":[],"stateMutability":"nonpayable"},{"type":"function","name":"renounceOwnership","inputs":[],"outputs":[],"stateMutability":"nonpayable"},{"type":"function","name":"requestRandomness","inputs":[{"name":"tokenId","type":"uint256","internalType":"uint256"}],"outputs":[{"name":"requestId","type":"uint256","internalType":"uint256"}],"stateMutability":"nonpayable"},{"type":"function","name":"s_vrfCoordinator","inputs":[],"outputs":[{"name":"","type":"address","internalType":"contract IVRFCoordinatorV2Plus"}],"stateMutability":"view"},{"type":"function","name":"setAuthorizedCollection","inputs":[{"name":"collection","type":"address","internalType":"address"},{"name":"authorized","type":"bool","internalType":"bool"}],"outputs":[],"stateMutability":"nonpayable"},{"type":"function","name":"setVRFConfig","inputs":[{"name":"vrfCoordinator","type":"address","internalType":"address"},{"name":"subscriptionId","type":"uint256","internalType":"uint256"},{"name":"keyHash","type":"bytes32","internalType":"bytes32"},{"name":"callbackGasLimit","type":"uint32","internalType":"uint32"},{"name":"requestConfirmations","type":"uint16","internalType":"uint16"}],"outputs":[],"stateMutability":"nonpayable"},{"type":"function","name":"transferOwnership","inputs":[{"name":"newOwner","type":"address","internalType":"address"}],"outputs":[],"stateMutability":"nonpayable"},{"type":"function","name":"upgradeToAndCall","inputs":[{"name":"newImplementation","type":"address","internalType":"address"},{"name":"data","type":"bytes","internalType":"bytes"}],"outputs":[],"stateMutability":"payable"},{"type":"event","name":"CollectionAuthorized","inputs":[{"name":"collection","type":"address","indexed":true,"internalType":"address"},{"name":"authorized","type":"bool","indexed":false,"internalType":"bool"}],"anonymous":false},{"type":"event","name":"Initialized","inputs":[{"name":"version","type":"uint64","indexed":false,"internalType":"uint64"}],"anonymous":false},{"type":"event","name":"OwnershipTransferred","inputs":[{"name":"previousOwner","type":"address","indexed":true,"internalType":"address"},{"name":"newOwner","type":"address","indexed":true,"internalType":"address"}],"anonymous":false},{"type":"event","name":"Upgraded","inputs":[{"name":"implementation","type":"address","indexed":true,"internalType":"address"}],"anonymous":false},{"type":"event","name":"VRFConfigUpdated","inputs":[{"name":"vrfCoordinator","type":"address","indexed":true,"internalType":"address"},{"name":"subscriptionId","type":"uint256","indexed":true,"internalType":"uint256"},{"name":"keyHash","type":"bytes32","indexed":false,"internalType":"bytes32"}],"anonymous":false},{"type":"event","name":"VRFRequested","inputs":[{"name":"requestId","type":"uint256","indexed":true,"internalType":"uint256"},{"name":"collection","type":"address","indexed":true,"internalType":"address"},{"name":"tokenId","type":"uint256","indexed":true,"internalType":"uint256"}],"anonymous":false},{"type":"event","name":"VRFRevealCompleted","inputs":[{"name":"requestId","type":"uint256","indexed":true,"internalType":"uint256"},{"name":"collection","type":"address","indexed":true,"internalType":"address"},{"name":"tokenId","type":"uint256","indexed":true,"internalType":"uint256"}],"anonymous":false},{"type":"error","name":"AddressEmptyCode","inputs":[{"name":"target","type":"address","internalType":"address"}]},{"type":"error","name":"ERC1967InvalidImplementation","inputs":[{"name":"implementation","type":"address","internalType":"address"}]},{"type":"error","name":"ERC1967NonPayable","inputs":[]},{"type":"error","name":"FailedCall","inputs":[]},{"type":"error","name":"InvalidInitialization","inputs":[]},{"type":"error","name":"InvalidRequest","inputs":[]},{"type":"error","name":"NotInitializing","inputs":[]},{"type":"error","name":"OnlyCoordinatorCanFulfill","inputs":[]},{"type":"error","name":"OwnableInvalidOwner","inputs":[{"name":"owner","type":"address","internalType":"address"}]},{"type":"error","name":"OwnableUnauthorizedAccount","inputs":[{"name":"account","type":"address","internalType":"address"}]},{"type":"error","name":"ReentrancyGuardReentrantCall","inputs":[]},{"type":"error","name":"UUPSUnauthorizedCallContext","inputs":[]},{"type":"error","name":"UUPSUnsupportedProxiableUUID","inputs":[{"name":"slot","type":"bytes32","internalType":"bytes32"}]},{"type":"error","name":"UnauthorizedCollection","inputs":[]},{"type":"error","name":"VRFNotConfigured","inputs":[]},{"type":"error","name":"VRFRequestFailed","inputs":[]},{"type":"error","name":"ZeroAddress","inputs":[]}],"bytecode":{"object":"0x60a06040523073ffffffffffffffffffffffffffffffffffffffff1660809073ffffffffffffffffffffffffffffffffffffffff16815250348015610042575f5ffd5b50600161006161005661007a60201b60201c565b6100a360201b60201c565b5f01819055506100756100ac60201b60201c565b610227565b5f7f9b779b17422d0df92223018b32b4d1fa46e071723d6817e2486d003becc55f005f1b905090565b5f819050919050565b5f6100bb6101aa60201b60201c565b9050805f0160089054906101000a900460ff1615610105576040517ff92ee8a900000000000000000000000000000000000000000000000000000000815260040160405180910390fd5b67ffffffffffffffff8016815f015f9054906101000a900467ffffffffffffffff1667ffffffffffffffff16146101a75767ffffffffffffffff815f015f6101000a81548167ffffffffffffffff021916908367ffffffffffffffff1602179055507fc7f505b2f371ae2175ee4913f4499e1f2633a7b5936321eed1cdaeb6115181d267ffffffffffffffff60405161019e919061020e565b60405180910390a15b50565b5f5f6101ba6101c360201b60201c565b90508091505090565b5f7ff0c57e16840df040f15088dc2f81fe391c3923bec73e23a9662efc9c229c6a005f1b905090565b5f67ffffffffffffffff82169050919050565b610208816101ec565b82525050565b5f6020820190506102215f8301846101ff565b92915050565b6080516123a861024d5f395f818161110a0152818161115f015261131901526123a85ff3fe6080604052600436106100dc575f3560e01c80637363ae1f1161007e578063ad3cb1cc11610058578063ad3cb1cc14610280578063daf484e0146102aa578063dc3cefa0146102e7578063f2fde38b1461030f576100dc565b80637363ae1f146101f05780638da5cb5b1461022c5780639eccacf614610256576100dc565b80634f1ef286116100ba5780634f1ef2861461015857806352d1902d146101745780635b5ef3fa1461019e578063715018a6146101da576100dc565b80631fe543e3146100e0578063479b314a146101085780634c7038a714610130575b5f5ffd5b3480156100eb575f5ffd5b5061010660048036038101906101019190611ade565b610337565b005b348015610113575f5ffd5b5061012e60048036038101906101299190611bca565b6103cc565b005b34801561013b575f5ffd5b5061015660048036038101906101519190611cab565b6104df565b005b610172600480360381019061016d9190611e5a565b61062c565b005b34801561017f575f5ffd5b5061018861064b565b6040516101959190611ec3565b60405180910390f35b3480156101a9575f5ffd5b506101c460048036038101906101bf9190611edc565b61067c565b6040516101d19190611f16565b60405180910390f35b3480156101e5575f5ffd5b506101ee6106ce565b005b3480156101fb575f5ffd5b5061021660048036038101906102119190611f2f565b6106e1565b6040516102239190611f69565b60405180910390f35b348015610237575f5ffd5b50610240610a17565b60405161024d9190611f91565b60405180910390f35b348015610261575f5ffd5b5061026a610a4c565b6040516102779190612005565b60405180910390f35b34801561028b575f5ffd5b50610294610a70565b6040516102a1919061207e565b60405180910390f35b3480156102b5575f5ffd5b506102d060048036038101906102cb9190611f2f565b610aa9565b6040516102de92919061209e565b60405180910390f35b3480156102f2575f5ffd5b5061030d60048036038101906103089190611cab565b610b3b565b005b34801561031a575f5ffd5b5061033560048036038101906103309190611edc565b610dfe565b005b5f5f9054906101000a900473ffffffffffffffffffffffffffffffffffffffff1673ffffffffffffffffffffffffffffffffffffffff163373ffffffffffffffffffffffffffffffffffffffff16146103bc576040517fa133bd5c00000000000000000000000000000000000000000000000000000000815260040160405180910390fd5b6103c7838383610e82565b505050565b6103d4611081565b5f73ffffffffffffffffffffffffffffffffffffffff168273ffffffffffffffffffffffffffffffffffffffff1603610439576040517fd92e233d00000000000000000000000000000000000000000000000000000000815260040160405180910390fd5b8060045f8473ffffffffffffffffffffffffffffffffffffffff1673ffffffffffffffffffffffffffffffffffffffff1681526020019081526020015f205f6101000a81548160ff0219169083151502179055508173ffffffffffffffffffffffffffffffffffffffff167f1a9af76ba25f4939da449d4bc7e391c9e4dffe71e96554857701b1aa395bbb10826040516104d39190611f16565b60405180910390a25050565b6104e7611081565b5f73ffffffffffffffffffffffffffffffffffffffff168573ffffffffffffffffffffffffffffffffffffffff160361054c576040517fd92e233d00000000000000000000000000000000000000000000000000000000815260040160405180910390fd5b845f5f6101000a81548173ffffffffffffffffffffffffffffffffffffffff021916908373ffffffffffffffffffffffffffffffffffffffff16021790555083600181905550826002819055508160035f6101000a81548163ffffffff021916908363ffffffff16021790555080600360046101000a81548161ffff021916908361ffff160217905550838573ffffffffffffffffffffffffffffffffffffffff167f2894b587c5c6e257b4b20a87fae9e2a4bab26985c900174b588ef3272a9d532e8560405161061d9190611ec3565b60405180910390a35050505050565b610634611108565b61063d826111ee565b61064782826111f9565b5050565b5f610654611317565b7f360894a13ba1a3210667c828492db98dca3e2076cc3735a920a3ca505d382bbc5f1b905090565b5f60045f8373ffffffffffffffffffffffffffffffffffffffff1673ffffffffffffffffffffffffffffffffffffffff1681526020019081526020015f205f9054906101000a900460ff169050919050565b6106d6611081565b6106df5f61139e565b565b5f6106ea61146f565b60045f3373ffffffffffffffffffffffffffffffffffffffff1673ffffffffffffffffffffffffffffffffffffffff1681526020019081526020015f205f9054906101000a900460ff1661076a576040517fdffa4d3500000000000000000000000000000000000000000000000000000000815260040160405180910390fd5b5f73ffffffffffffffffffffffffffffffffffffffff165f5f9054906101000a900473ffffffffffffffffffffffffffffffffffffffff1673ffffffffffffffffffffffffffffffffffffffff16036107ef576040517fda8ec84700000000000000000000000000000000000000000000000000000000815260040160405180910390fd5b5f5f9054906101000a900473ffffffffffffffffffffffffffffffffffffffff1673ffffffffffffffffffffffffffffffffffffffff16639b1c385e6040518060c0016040528060025481526020016001548152602001600360049054906101000a900461ffff1661ffff16815260200160035f9054906101000a900463ffffffff1663ffffffff168152602001600163ffffffff1681526020016108a4604051806020016040528060011515815250611491565b8152506040518263ffffffff1660e01b81526004016108c391906121d9565b6020604051808303815f875af19250505080156108fe57506040513d601f19601f820116820180604052508101906108fb919061220d565b60015b610934576040517f884a9c8b00000000000000000000000000000000000000000000000000000000815260040160405180910390fd5b80915060405180604001604052803373ffffffffffffffffffffffffffffffffffffffff1681526020018481525060055f8481526020019081526020015f205f820151815f015f6101000a81548173ffffffffffffffffffffffffffffffffffffffff021916908373ffffffffffffffffffffffffffffffffffffffff16021790555060208201518160010155905050823373ffffffffffffffffffffffffffffffffffffffff16837f839e3de3b433d8c1644854e3c51bbc06808560f5f85001d55d56bce1a3a4b6fc60405160405180910390a450610a12611529565b919050565b5f5f610a21611543565b9050805f015f9054906101000a900473ffffffffffffffffffffffffffffffffffffffff1691505090565b5f5f9054906101000a900473ffffffffffffffffffffffffffffffffffffffff1681565b6040518060400160405280600581526020017f352e302e3000000000000000000000000000000000000000000000000000000081525081565b5f5f5f60055f8581526020019081526020015f206040518060400160405290815f82015f9054906101000a900473ffffffffffffffffffffffffffffffffffffffff1673ffffffffffffffffffffffffffffffffffffffff1673ffffffffffffffffffffffffffffffffffffffff1681526020016001820154815250509050805f015181602001519250925050915091565b5f610b4461156a565b90505f815f0160089054906101000a900460ff161590505f825f015f9054906101000a900467ffffffffffffffff1690505f5f8267ffffffffffffffff16148015610b8c5750825b90505f60018367ffffffffffffffff16148015610bbf57505f3073ffffffffffffffffffffffffffffffffffffffff163b145b905081158015610bcd575080155b15610c04576040517ff92ee8a900000000000000000000000000000000000000000000000000000000815260040160405180910390fd5b6001855f015f6101000a81548167ffffffffffffffff021916908367ffffffffffffffff1602179055508315610c51576001855f0160086101000a81548160ff0219169083151502179055505b610c5a3361157d565b5f73ffffffffffffffffffffffffffffffffffffffff168a73ffffffffffffffffffffffffffffffffffffffff1603610cbf576040517fd92e233d00000000000000000000000000000000000000000000000000000000815260040160405180910390fd5b895f5f6101000a81548173ffffffffffffffffffffffffffffffffffffffff021916908373ffffffffffffffffffffffffffffffffffffffff16021790555088600181905550876002819055508660035f6101000a81548163ffffffff021916908363ffffffff16021790555085600360046101000a81548161ffff021916908361ffff160217905550888a73ffffffffffffffffffffffffffffffffffffffff167f2894b587c5c6e257b4b20a87fae9e2a4bab26985c900174b588ef3272a9d532e8a604051610d909190611ec3565b60405180910390a38315610df2575f855f0160086101000a81548160ff0219169083151502179055507fc7f505b2f371ae2175ee4913f4499e1f2633a7b5936321eed1cdaeb6115181d26001604051610de99190612284565b60405180910390a15b50505050505050505050565b610e06611081565b5f73ffffffffffffffffffffffffffffffffffffffff168173ffffffffffffffffffffffffffffffffffffffff1603610e76575f6040517f1e4fbdf7000000000000000000000000000000000000000000000000000000008152600401610e6d9190611f91565b60405180910390fd5b610e7f8161139e565b50565b5f60055f8581526020019081526020015f206040518060400160405290815f82015f9054906101000a900473ffffffffffffffffffffffffffffffffffffffff1673ffffffffffffffffffffffffffffffffffffffff1673ffffffffffffffffffffffffffffffffffffffff16815260200160018201548152505090505f73ffffffffffffffffffffffffffffffffffffffff16815f015173ffffffffffffffffffffffffffffffffffffffff1603610f67576040517f41abc80100000000000000000000000000000000000000000000000000000000815260040160405180910390fd5b805f015173ffffffffffffffffffffffffffffffffffffffff166327fce3fb826020015185855f818110610f9e57610f9d61229d565b5b905060200201356040518363ffffffff1660e01b8152600401610fc29291906122ca565b5f604051808303815f87803b158015610fd9575f5ffd5b505af1158015610feb573d5f5f3e3d5ffd5b5050505060055f8581526020019081526020015f205f5f82015f6101000a81549073ffffffffffffffffffffffffffffffffffffffff0219169055600182015f905550508060200151815f015173ffffffffffffffffffffffffffffffffffffffff16857f52918a9dc0d5d2d94f454c0f94b1acc62e69601d31481039c5e3ffd76340941d60405160405180910390a450505050565b611089611591565b73ffffffffffffffffffffffffffffffffffffffff166110a7610a17565b73ffffffffffffffffffffffffffffffffffffffff1614611106576110ca611591565b6040517f118cdaa70000000000000000000000000000000000000000000000000000000081526004016110fd9190611f91565b60405180910390fd5b565b7f000000000000000000000000000000000000000000000000000000000000000073ffffffffffffffffffffffffffffffffffffffff163073ffffffffffffffffffffffffffffffffffffffff1614806111b557507f000000000000000000000000000000000000000000000000000000000000000073ffffffffffffffffffffffffffffffffffffffff1661119c611598565b73ffffffffffffffffffffffffffffffffffffffff1614155b156111ec576040517fe07c8dba00000000000000000000000000000000000000000000000000000000815260040160405180910390fd5b565b6111f6611081565b50565b8173ffffffffffffffffffffffffffffffffffffffff166352d1902d6040518163ffffffff1660e01b8152600401602060405180830381865afa92505050801561126157506040513d601f19601f8201168201806040525081019061125e9190612305565b60015b6112a257816040517f4c9c8ce30000000000000000000000000000000000000000000000000000000081526004016112999190611f91565b60405180910390fd5b7f360894a13ba1a3210667c828492db98dca3e2076cc3735a920a3ca505d382bbc5f1b811461130857806040517faa1d49a40000000000000000000000000000000000000000000000000000000081526004016112ff9190611ec3565b60405180910390fd5b61131283836115eb565b505050565b7f000000000000000000000000000000000000000000000000000000000000000073ffffffffffffffffffffffffffffffffffffffff163073ffffffffffffffffffffffffffffffffffffffff161461139c576040517fe07c8dba00000000000000000000000000000000000000000000000000000000815260040160405180910390fd5b565b5f6113a7611543565b90505f815f015f9054906101000a900473ffffffffffffffffffffffffffffffffffffffff16905082825f015f6101000a81548173ffffffffffffffffffffffffffffffffffffffff021916908373ffffffffffffffffffffffffffffffffffffffff1602179055508273ffffffffffffffffffffffffffffffffffffffff168173ffffffffffffffffffffffffffffffffffffffff167f8be0079c531659141344cd1fd0a4f28419497f9722a3daafe3b4186f6b6457e060405160405180910390a3505050565b61147761165d565b600261148961148461169e565b6116c7565b5f0181905550565b60607f92fd13387c7fe7befbc38d303d6468778fb9731bc4583f17d92989c6fcfdeaaa826040516024016114c59190612359565b604051602081830303815290604052907bffffffffffffffffffffffffffffffffffffffffffffffffffffffff19166020820180517bffffffffffffffffffffffffffffffffffffffffffffffffffffffff83818316178352505050509050919050565b600161153b61153661169e565b6116c7565b5f0181905550565b5f7f9016d09d72d40fdae2fd8ceac6b6234c7706214fd39c1cd1e609a0528c199300905090565b5f5f6115746116d0565b90508091505090565b6115856116f9565b61158e81611739565b50565b5f33905090565b5f6115c47f360894a13ba1a3210667c828492db98dca3e2076cc3735a920a3ca505d382bbc5f1b6117bd565b5f015f9054906101000a900473ffffffffffffffffffffffffffffffffffffffff16905090565b6115f4826117c6565b8173ffffffffffffffffffffffffffffffffffffffff167fbc7cd75a20ee27fd9adebab32041f755214dbc6bffa90cc0225b39da2e5c2d3b60405160405180910390a25f815111156116505761164a828261188f565b50611659565b611658611980565b5b5050565b6116656119bc565b1561169c576040517f3ee5aeb500000000000000000000000000000000000000000000000000000000815260040160405180910390fd5b565b5f7f9b779b17422d0df92223018b32b4d1fa46e071723d6817e2486d003becc55f005f1b905090565b5f819050919050565b5f7ff0c57e16840df040f15088dc2f81fe391c3923bec73e23a9662efc9c229c6a005f1b905090565b6117016119d8565b611737576040517fd7e6bcf800000000000000000000000000000000000000000000000000000000815260040160405180910390fd5b565b6117416116f9565b5f73ffffffffffffffffffffffffffffffffffffffff168173ffffffffffffffffffffffffffffffffffffffff16036117b1575f6040517f1e4fbdf70000000000000000000000000000000000000000000000000000000081526004016117a89190611f91565b60405180910390fd5b6117ba8161139e565b50565b5f819050919050565b5f8173ffffffffffffffffffffffffffffffffffffffff163b0361182157806040517f4c9c8ce30000000000000000000000000000000000000000000000000000000081526004016118189190611f91565b60405180910390fd5b8061184d7f360894a13ba1a3210667c828492db98dca3e2076cc3735a920a3ca505d382bbc5f1b6117bd565b5f015f6101000a81548173ffffffffffffffffffffffffffffffffffffffff021916908373ffffffffffffffffffffffffffffffffffffffff16021790555050565b60605f61189c84846119f6565b90508080156118d257505f6118af611a0a565b11806118d157505f8473ffffffffffffffffffffffffffffffffffffffff163b115b5b156118e7576118df611a11565b91505061197a565b801561192a57836040517f9996b3150000000000000000000000000000000000000000000000000000000081526004016119219190611f91565b60405180910390fd5b5f611933611a0a565b111561194657611941611a2e565b611978565b6040517fd6bda27500000000000000000000000000000000000000000000000000000000815260040160405180910390fd5b505b92915050565b5f3411156119ba576040517fb398979f00000000000000000000000000000000000000000000000000000000815260040160405180910390fd5b565b5f60026119cf6119ca61169e565b6116c7565b5f015414905090565b5f6119e161156a565b5f0160089054906101000a900460ff16905090565b5f5f5f835160208501865af4905092915050565b5f3d905090565b606060405190503d81523d5f602083013e3d602001810160405290565b6040513d5f823e3d81fd5b5f604051905090565b5f5ffd5b5f5ffd5b5f819050919050565b611a5c81611a4a565b8114611a66575f5ffd5b50565b5f81359050611a7781611a53565b92915050565b5f5ffd5b5f5ffd5b5f5ffd5b5f5f83601f840112611a9e57611a9d611a7d565b5b8235905067ffffffffffffffff811115611abb57611aba611a81565b5b602083019150836020820283011115611ad757611ad6611a85565b5b9250929050565b5f5f5f60408486031215611af557611af4611a42565b5b5f611b0286828701611a69565b935050602084013567ffffffffffffffff811115611b2357611b22611a46565b5b611b2f86828701611a89565b92509250509250925092565b5f73ffffffffffffffffffffffffffffffffffffffff82169050919050565b5f611b6482611b3b565b9050919050565b611b7481611b5a565b8114611b7e575f5ffd5b50565b5f81359050611b8f81611b6b565b92915050565b5f8115159050919050565b611ba981611b95565b8114611bb3575f5ffd5b50565b5f81359050611bc481611ba0565b92915050565b5f5f60408385031215611be057611bdf611a42565b5b5f611bed85828601611b81565b9250506020611bfe85828601611bb6565b9150509250929050565b5f819050919050565b611c1a81611c08565b8114611c24575f5ffd5b50565b5f81359050611c3581611c11565b92915050565b5f63ffffffff82169050919050565b611c5381611c3b565b8114611c5d575f5ffd5b50565b5f81359050611c6e81611c4a565b92915050565b5f61ffff82169050919050565b611c8a81611c74565b8114611c94575f5ffd5b50565b5f81359050611ca581611c81565b92915050565b5f5f5f5f5f60a08688031215611cc457611cc3611a42565b5b5f611cd188828901611b81565b9550506020611ce288828901611a69565b9450506040611cf388828901611c27565b9350506060611d0488828901611c60565b9250506080611d1588828901611c97565b9150509295509295909350565b5f5ffd5b5f601f19601f8301169050919050565b7f4e487b71000000000000000000000000000000000000000000000000000000005f52604160045260245ffd5b611d6c82611d26565b810181811067ffffffffffffffff82111715611d8b57611d8a611d36565b5b80604052505050565b5f611d9d611a39565b9050611da98282611d63565b919050565b5f67ffffffffffffffff821115611dc857611dc7611d36565b5b611dd182611d26565b9050602081019050919050565b828183375f83830152505050565b5f611dfe611df984611dae565b611d94565b905082815260208101848484011115611e1a57611e19611d22565b5b611e25848285611dde565b509392505050565b5f82601f830112611e4157611e40611a7d565b5b8135611e51848260208601611dec565b91505092915050565b5f5f60408385031215611e7057611e6f611a42565b5b5f611e7d85828601611b81565b925050602083013567ffffffffffffffff811115611e9e57611e9d611a46565b5b611eaa85828601611e2d565b9150509250929050565b611ebd81611c08565b82525050565b5f602082019050611ed65f830184611eb4565b92915050565b5f60208284031215611ef157611ef0611a42565b5b5f611efe84828501611b81565b91505092915050565b611f1081611b95565b82525050565b5f602082019050611f295f830184611f07565b92915050565b5f60208284031215611f4457611f43611a42565b5b5f611f5184828501611a69565b91505092915050565b611f6381611a4a565b82525050565b5f602082019050611f7c5f830184611f5a565b92915050565b611f8b81611b5a565b82525050565b5f602082019050611fa45f830184611f82565b92915050565b5f819050919050565b5f611fcd611fc8611fc384611b3b565b611faa565b611b3b565b9050919050565b5f611fde82611fb3565b9050919050565b5f611fef82611fd4565b9050919050565b611fff81611fe5565b82525050565b5f6020820190506120185f830184611ff6565b92915050565b5f81519050919050565b5f82825260208201905092915050565b8281835e5f83830152505050565b5f6120508261201e565b61205a8185612028565b935061206a818560208601612038565b61207381611d26565b840191505092915050565b5f6020820190508181035f8301526120968184612046565b905092915050565b5f6040820190506120b15f830185611f82565b6120be6020830184611f5a565b9392505050565b6120ce81611c08565b82525050565b6120dd81611a4a565b82525050565b6120ec81611c74565b82525050565b6120fb81611c3b565b82525050565b5f81519050919050565b5f82825260208201905092915050565b5f61212582612101565b61212f818561210b565b935061213f818560208601612038565b61214881611d26565b840191505092915050565b5f60c083015f8301516121685f8601826120c5565b50602083015161217b60208601826120d4565b50604083015161218e60408601826120e3565b5060608301516121a160608601826120f2565b5060808301516121b460808601826120f2565b5060a083015184820360a08601526121cc828261211b565b9150508091505092915050565b5f6020820190508181035f8301526121f18184612153565b905092915050565b5f8151905061220781611a53565b92915050565b5f6020828403121561222257612221611a42565b5b5f61222f848285016121f9565b91505092915050565b5f819050919050565b5f67ffffffffffffffff82169050919050565b5f61226e61226961226484612238565b611faa565b612241565b9050919050565b61227e81612254565b82525050565b5f6020820190506122975f830184612275565b92915050565b7f4e487b71000000000000000000000000000000000000000000000000000000005f52603260045260245ffd5b5f6040820190506122dd5f830185611f5a565b6122ea6020830184611f5a565b9392505050565b5f815190506122ff81611c11565b92915050565b5f6020828403121561231a57612319611a42565b5b5f612327848285016122f1565b91505092915050565b61233981611b95565b82525050565b602082015f8201516123535f850182612330565b50505050565b5f60208201905061236c5f83018461233f565b9291505056fea26469706673582212203c066cc6d3fb32a3aa3830e336df40ac61487aa56991741cbcc2ae61232fc2d464736f6c634300081e0033","linkReferences":{}},"methodIdentifiers":{"UPGRADE_INTERFACE_VERSION()":"ad3cb1cc","getPendingRequest(uint256)":"daf484e0","initialize(address,uint256,bytes32,uint32,uint16)":"dc3cefa0","isAuthorizedCollection(address)":"5b5ef3fa","owner()":"8da5cb5b","proxiableUUID()":"52d1902d","rawFulfillRandomWords(uint256,uint256[])":"1fe543e3","renounceOwnership()":"715018a6","requestRandomness(uint256)":"7363ae1f","s_vrfCoordinator()":"9eccacf6","setAuthorizedCollection(address,bool)":"479b314a","setVRFConfig(address,uint256,bytes32,uint32,uint16)":"4c7038a7","transferOwnership(address)":"f2fde38b","upgradeToAndCall(address,bytes)":"4f1ef286"},"id":72}