{"abi":[{"type":"constructor","inputs":[],"stateMutability":"nonpayable"},{"type":"function","name":"MAX_SUPPLY","inputs":[],"outputs":[{"name":"","type":"uint256","internalType":"uint256"}],"stateMutability":"view"},{"type":"function","name":"UPGRADE_INTERFACE_VERSION","inputs":[],"outputs":[{"name":"","type":"string","internalType":"string"}],"stateMutability":"view"},{"type":"function","name":"activateFactory","inputs":[],"outputs":[],"stateMutability":"nonpayable"},{"type":"function","name":"collectionAddressToId","inputs":[{"name":"","type":"address","internalType":"address"}],"outputs":[{"name":"","type":"uint256","internalType":"uint256"}],"stateMutability":"view"},{"type":"function","name":"collectionIdToAddress","inputs":[{"name":"","type":"uint256","internalType":"uint256"}],"outputs":[{"name":"","type":"address","internalType":"address"}],"stateMutability":"view"},{"type":"function","name":"collectionIdToOwner","inputs":[{"name":"","type":"uint256","internalType":"uint256"}],"outputs":[{"name":"","type":"address","internalType":"address"}],"stateMutability":"view"},{"type":"function","name":"createCollection","inputs":[{"name":"params","type":"tuple","internalType":"struct Factory.CreateCollectionParams","components":[{"name":"name","type":"string","internalType":"string"},{"name":"symbol","type":"string","internalType":"string"},{"name":"revealType","type":"string","internalType":"string"},{"name":"baseURI","type":"string","internalType":"string"},{"name":"placeholderURI","type":"string","internalType":"string"},{"name":"royaltyReceiver","type":"address","internalType":"address"},{"name":"royaltyFeeNumerator","type":"uint96","internalType":"uint96"},{"name":"maxSupply","type":"uint256","internalType":"uint256"},{"name":"mintPrice","type":"uint256","internalType":"uint256"},{"name":"batchMintSupply","type":"uint256","internalType":"uint256"}]}],"outputs":[{"name":"collectionId","type":"uint256","internalType":"uint256"},{"name":"collectionAddress","type":"address","internalType":"address"}],"stateMutability":"nonpayable"},{"type":"function","name":"getAddressCollectionAmount","inputs":[{"name":"userAddress","type":"address","internalType":"address"}],"outputs":[{"name":"","type":"uint256","internalType":"uint256"}],"stateMutability":"view"},{"type":"function","name":"getAllAddressCollectionIds","inputs":[{"name":"userAddress","type":"address","internalType":"address"}],"outputs":[{"name":"","type":"uint256[]","internalType":"uint256[]"}],"stateMutability":"view"},{"type":"function","name":"getBeaconAddress","inputs":[],"outputs":[{"name":"","type":"address","internalType":"address"}],"stateMutability":"view"},{"type":"function","name":"getCollectionAddressById","inputs":[{"name":"collectionId","type":"uint256","internalType":"uint256"}],"outputs":[{"name":"","type":"address","internalType":"address"}],"stateMutability":"view"},{"type":"function","name":"getCollectionIdByAddress","inputs":[{"name":"collectionAddress","type":"address","internalType":"address"}],"outputs":[{"name":"","type":"uint256","internalType":"uint256"}],"stateMutability":"view"},{"type":"function","name":"getCollectionOwnerById","inputs":[{"name":"collectionId","type":"uint256","internalType":"uint256"}],"outputs":[{"name":"","type":"address","internalType":"address"}],"stateMutability":"view"},{"type":"function","name":"getMarketplaceAddress","inputs":[],"outputs":[{"name":"","type":"address","internalType":"address"}],"stateMutability":"nonpayable"},{"type":"function","name":"getMultisigTimelock","inputs":[],"outputs":[{"name":"","type":"address","internalType":"address"}],"stateMutability":"view"},{"type":"function","name":"initialize","inputs":[{"name":"multisigTimelock","type":"address","internalType":"address"}],"outputs":[],"stateMutability":"nonpayable"},{"type":"function","name":"isFactoryActive","inputs":[],"outputs":[{"name":"","type":"bool","internalType":"bool"}],"stateMutability":"view"},{"type":"function","name":"proxiableUUID","inputs":[],"outputs":[{"name":"","type":"bytes32","internalType":"bytes32"}],"stateMutability":"view"},{"type":"function","name":"setCollectionBeaconAddress","inputs":[{"name":"beaconAddress","type":"address","internalType":"address"}],"outputs":[],"stateMutability":"nonpayable"},{"type":"function","name":"setMarketplaceAddress","inputs":[{"name":"marketplaceAddress","type":"address","internalType":"address"}],"outputs":[],"stateMutability":"nonpayable"},{"type":"function","name":"setMultisigTimelock","inputs":[{"name":"newMultisigTimelock","type":"address","internalType":"address"}],"outputs":[],"stateMutability":"nonpayable"},{"type":"function","name":"setVRFAdapter","inputs":[{"name":"newVRFAdapter","type":"address","internalType":"address"}],"outputs":[],"stateMutability":"nonpayable"},{"type":"function","name":"stopFactory","inputs":[],"outputs":[],"stateMutability":"nonpayable"},{"type":"function","name":"upgradeToAndCall","inputs":[{"name":"newImplementation","type":"address","internalType":"address"},{"name":"data","type":"bytes","internalType":"bytes"}],"outputs":[],"stateMutability":"payable"},{"type":"function","name":"userCollections","inputs":[{"name":"","type":"address","internalType":"address"},{"name":"","type":"uint256","internalType":"uint256"}],"outputs":[{"name":"","type":"uint256","internalType":"uint256"}],"stateMutability":"view"},{"type":"event","name":"BeaconSet","inputs":[{"name":"beacon","type":"address","indexed":true,"internalType":"address"}],"anonymous":false},{"type":"event","name":"CollectionCreated","inputs":[{"name":"collectionId","type":"uint256","indexed":true,"internalType":"uint256"},{"name":"creator","type":"address","indexed":true,"internalType":"address"},{"name":"collectionAddress","type":"address","indexed":true,"internalType":"address"},{"name":"name","type":"string","indexed":false,"internalType":"string"},{"name":"symbol","type":"string","indexed":false,"internalType":"string"}],"anonymous":false},{"type":"event","name":"FactoryIsActive","inputs":[],"anonymous":false},{"type":"event","name":"FactorySetStopped","inputs":[],"anonymous":false},{"type":"event","name":"Initialized","inputs":[{"name":"version","type":"uint64","indexed":false,"internalType":"uint64"}],"anonymous":false},{"type":"event","name":"MultisigTimelockSet","inputs":[{"name":"multisigTimelock","type":"address","indexed":true,"internalType":"address"}],"anonymous":false},{"type":"event","name":"NewMarketplaceAddressSet","inputs":[{"name":"marketplace","type":"address","indexed":true,"internalType":"address"}],"anonymous":false},{"type":"event","name":"Upgraded","inputs":[{"name":"implementation","type":"address","indexed":true,"internalType":"address"}],"anonymous":false},{"type":"event","name":"VRFAdapterSet","inputs":[{"name":"vrfAdapter","type":"address","indexed":true,"internalType":"address"}],"anonymous":false},{"type":"error","name":"AddressEmptyCode","inputs":[{"name":"target","type":"address","internalType":"address"}]},{"type":"error","name":"AddressHasNoCollections","inputs":[]},{"type":"error","name":"BeaconIsAlreadySet","inputs":[]},{"type":"error","name":"CollectionDoesNotExist","inputs":[]},{"type":"error","name":"ERC1967InvalidImplementation","inputs":[{"name":"implementation","type":"address","internalType":"address"}]},{"type":"error","name":"ERC1967NonPayable","inputs":[]},{"type":"error","name":"FactoryIsActiveAlready","inputs":[]},{"type":"error","name":"FactoryIsStopped","inputs":[]},{"type":"error","name":"FactoryIsStoppedAlready","inputs":[]},{"type":"error","name":"FailedCall","inputs":[]},{"type":"error","name":"IncorrectBatchMintSupply","inputs":[]},{"type":"error","name":"IncorrectCollectionSupply","inputs":[]},{"type":"error","name":"IncorrectMintPrice","inputs":[]},{"type":"error","name":"IncorrectRevealType","inputs":[]},{"type":"error","name":"IncorrectRoyaltyFee","inputs":[]},{"type":"error","name":"InvalidInitialization","inputs":[]},{"type":"error","name":"MarketplaceAddressIsNotSet","inputs":[]},{"type":"error","name":"MultisigTimelockNotSet","inputs":[]},{"type":"error","name":"NoBeaconAddressSet","inputs":[]},{"type":"error","name":"NoVRFAdapterSet","inputs":[]},{"type":"error","name":"NotAMultisigTimelock","inputs":[]},{"type":"error","name":"NotInitializing","inputs":[]},{"type":"error","name":"NotMultisigTimelock","inputs":[]},{"type":"error","name":"UUPSUnauthorizedCallContext","inputs":[]},{"type":"error","name":"UUPSUnsupportedProxiableUUID","inputs":[{"name":"slot","type":"bytes32","internalType":"bytes32"}]},{"type":"error","name":"ZeroAddress","inputs":[]}],"bytecode":{"object":"0x60a06040523073ffffffffffffffffffffffffffffffffffffffff1660809073ffffffffffffffffffffffffffffffffffffffff16815250348015610042575f5ffd5b5061005161005660201b60201c565b6101d1565b5f61006561015460201b60201c565b9050805f0160089054906101000a900460ff16156100af576040517ff92ee8a900000000000000000000000000000000000000000000000000000000815260040160405180910390fd5b67ffffffffffffffff8016815f015f9054906101000a900467ffffffffffffffff1667ffffffffffffffff16146101515767ffffffffffffffff815f015f6101000a81548167ffffffffffffffff021916908367ffffffffffffffff1602179055507fc7f505b2f371ae2175ee4913f4499e1f2633a7b5936321eed1cdaeb6115181d267ffffffffffffffff60405161014891906101b8565b60405180910390a15b50565b5f5f61016461016d60201b60201c565b90508091505090565b5f7ff0c57e16840df040f15088dc2f81fe391c3923bec73e23a9662efc9c229c6a005f1b905090565b5f67ffffffffffffffff82169050919050565b6101b281610196565b82525050565b5f6020820190506101cb5f8301846101a9565b92915050565b608051613cc36101f75f395f818161235a015281816123af01526126620152613cc35ff3fe608060405260043610610164575f3560e01c806374bbc800116100d0578063bb20c9d511610089578063c9e22f1311610063578063c9e22f131461052d578063cc35b75f14610569578063d31684db1461057f578063e654ab55146105bb57610164565b8063bb20c9d5146104b3578063bb8fe785146104db578063c4d66de81461050557610164565b806374bbc80014610385578063794fd657146103ad5780639d754e5a146103e9578063a071d4c214610425578063ad3cb1cc14610461578063b47cc5561461048b57610164565b80634f1ef286116101225780634f1ef2861461029a57806352d1902d146102b65780635c8b115a146102e05780635d5654fd146102f657806361199ea414610333578063625431ca1461035d57610164565b80629d4d7a1461016857806312513b281461019257806332cb6b0c146101bc5780633ca82d95146101e65780633e710b5514610222578063428a61711461025e575b5f5ffd5b348015610173575f5ffd5b5061017c6105f7565b6040516101899190612a76565b60405180910390f35b34801561019d575f5ffd5b506101a661061f565b6040516101b39190612a76565b60405180910390f35b3480156101c7575f5ffd5b506101d0610647565b6040516101dd9190612aa7565b60405180910390f35b3480156101f1575f5ffd5b5061020c60048036038101906102079190612afb565b61064d565b6040516102199190612a76565b60405180910390f35b34801561022d575f5ffd5b5061024860048036038101906102439190612b50565b610761565b6040516102559190612aa7565b60405180910390f35b348015610269575f5ffd5b50610284600480360381019061027f9190612b7b565b610776565b6040516102919190612aa7565b60405180910390f35b6102b460048036038101906102af9190612cf5565b6107a1565b005b3480156102c1575f5ffd5b506102ca6107c0565b6040516102d79190612d67565b60405180910390f35b3480156102eb575f5ffd5b506102f46107f1565b005b348015610301575f5ffd5b5061031c60048036038101906103179190612da3565b610980565b60405161032a929190612dea565b60405180910390f35b34801561033e575f5ffd5b50610347611295565b6040516103549190612e2b565b60405180910390f35b348015610368575f5ffd5b50610383600480360381019061037e9190612b50565b6112ab565b005b348015610390575f5ffd5b506103ab60048036038101906103a69190612b50565b61151d565b005b3480156103b8575f5ffd5b506103d360048036038101906103ce9190612afb565b6116a4565b6040516103e09190612a76565b60405180910390f35b3480156103f4575f5ffd5b5061040f600480360381019061040a9190612b50565b6116d4565b60405161041c9190612efb565b60405180910390f35b348015610430575f5ffd5b5061044b60048036038101906104469190612b50565b611845565b6040516104589190612aa7565b60405180910390f35b34801561046c575f5ffd5b506104756118f3565b6040516104829190612f7b565b60405180910390f35b348015610496575f5ffd5b506104b160048036038101906104ac9190612b50565b61192c565b005b3480156104be575f5ffd5b506104d960048036038101906104d49190612b50565b611b18565b005b3480156104e6575f5ffd5b506104ef611c9f565b6040516104fc9190612a76565b60405180910390f35b348015610510575f5ffd5b5061052b60048036038101906105269190612b50565b611cc7565b005b348015610538575f5ffd5b50610553600480360381019061054e9190612afb565b611eeb565b6040516105609190612a76565b60405180910390f35b348015610574575f5ffd5b5061057d611f6a565b005b34801561058a575f5ffd5b506105a560048036038101906105a09190612afb565b612207565b6040516105b29190612a76565b60405180910390f35b3480156105c6575f5ffd5b506105e160048036038101906105dc9190612b50565b612237565b6040516105ee9190612aa7565b60405180910390f35b5f60025f9054906101000a900473ffffffffffffffffffffffffffffffffffffffff16905090565b5f60045f9054906101000a900473ffffffffffffffffffffffffffffffffffffffff16905090565b614e2081565b5f5f82148061065d57505f548210155b15610694576040517ff9c0f36b00000000000000000000000000000000000000000000000000000000815260040160405180910390fd5b5f73ffffffffffffffffffffffffffffffffffffffff1660065f8481526020019081526020015f205f9054906101000a900473ffffffffffffffffffffffffffffffffffffffff1673ffffffffffffffffffffffffffffffffffffffff1603610729576040517fd92e233d00000000000000000000000000000000000000000000000000000000815260040160405180910390fd5b60065f8381526020019081526020015f205f9054906101000a900473ffffffffffffffffffffffffffffffffffffffff169050919050565b6007602052805f5260405f205f915090505481565b6008602052815f5260405f20818154811061078f575f80fd5b905f5260205f20015f91509150505481565b6107a9612358565b6107b28261243e565b6107bc8282612542565b5050565b5f6107c9612660565b7f360894a13ba1a3210667c828492db98dca3e2076cc3735a920a3ca505d382bbc5f1b905090565b60045f9054906101000a900473ffffffffffffffffffffffffffffffffffffffff1673ffffffffffffffffffffffffffffffffffffffff163373ffffffffffffffffffffffffffffffffffffffff1614610877576040517fc33e396f00000000000000000000000000000000000000000000000000000000815260040160405180910390fd5b60045f9054906101000a900473ffffffffffffffffffffffffffffffffffffffff1673ffffffffffffffffffffffffffffffffffffffff16632bb02d4e6040518163ffffffff1660e01b81526004015f6040518083038186803b1580156108dc575f5ffd5b505afa1580156108ee573d5f5f3e3d5ffd5b50505050600460149054906101000a900460ff16610938576040517f8972bd5f00000000000000000000000000000000000000000000000000000000815260040160405180910390fd5b5f600460146101000a81548160ff0219169083151502179055507fc9e239e6af5d78f4f907ecd9cbb01cfef3a38f65e899f1702aa3de8c9998501860405160405180910390a1565b5f5f600460149054906101000a900460ff166109c8576040517fca106a9900000000000000000000000000000000000000000000000000000000815260040160405180910390fd5b5f73ffffffffffffffffffffffffffffffffffffffff1660035f9054906101000a900473ffffffffffffffffffffffffffffffffffffffff1673ffffffffffffffffffffffffffffffffffffffff1603610a4e576040517fb5d29e1100000000000000000000000000000000000000000000000000000000815260040160405180910390fd5b5f73ffffffffffffffffffffffffffffffffffffffff1660025f9054906101000a900473ffffffffffffffffffffffffffffffffffffffff1673ffffffffffffffffffffffffffffffffffffffff1603610ad4576040517f54acb86700000000000000000000000000000000000000000000000000000000815260040160405180910390fd5b5f73ffffffffffffffffffffffffffffffffffffffff1660015f9054906101000a900473ffffffffffffffffffffffffffffffffffffffff1673ffffffffffffffffffffffffffffffffffffffff1603610b5a576040517f32edb9d000000000000000000000000000000000000000000000000000000000815260040160405180910390fd5b614e208360e001351180610b7157505f8360e00135145b15610ba8576040517fafd8a7bd00000000000000000000000000000000000000000000000000000000815260040160405180910390fd5b5f83610100013503610be6576040517fdc14ea7700000000000000000000000000000000000000000000000000000000815260040160405180910390fd5b8260e001358361012001351115610c29576040517f397c0adf00000000000000000000000000000000000000000000000000000000815260040160405180910390fd5b5f838060400190610c3a9190612fa7565b604051610c48929190613037565b604051809103902090506040518060400160405280600781526020017f696e7374616e7400000000000000000000000000000000000000000000000000815250805190602001208114158015610cda57506040518060400160405280600781526020017f64656c6179656400000000000000000000000000000000000000000000000000815250805190602001208114155b15610d11576040517f26b2d71900000000000000000000000000000000000000000000000000000000815260040160405180910390fd5b6127108460c0016020810190610d279190613090565b6bffffffffffffffffffffffff161115610d6d576040517f9e2fe79800000000000000000000000000000000000000000000000000000000815260040160405180910390fd5b5f5492505f5f81548092919060010191905055505f60405180610160016040528086805f0190610d9d9190612fa7565b8080601f0160208091040260200160405190810160405280939291908181526020018383808284375f81840152601f19601f820116905080830192505050505050508152602001868060200190610df49190612fa7565b8080601f0160208091040260200160405190810160405280939291908181526020018383808284375f81840152601f19601f820116905080830192505050505050508152602001868060400190610e4b9190612fa7565b8080601f0160208091040260200160405190810160405280939291908181526020018383808284375f81840152601f19601f820116905080830192505050505050508152602001868060600190610ea29190612fa7565b8080601f0160208091040260200160405190810160405280939291908181526020018383808284375f81840152601f19601f820116905080830192505050505050508152602001868060800190610ef99190612fa7565b8080601f0160208091040260200160405190810160405280939291908181526020018383808284375f81840152601f19601f8201169050808301925050505050505081526020018660a0016020810190610f539190612b50565b73ffffffffffffffffffffffffffffffffffffffff1681526020018660c0016020810190610f819190613090565b6bffffffffffffffffffffffff1681526020018660e0013581526020018661010001358152602001866101200135815260200160035f9054906101000a900473ffffffffffffffffffffffffffffffffffffffff1673ffffffffffffffffffffffffffffffffffffffff1681525090505f63986153cc60e01b8260405160240161100b9190613229565b604051602081830303815290604052907bffffffffffffffffffffffffffffffffffffffffffffffffffffffff19166020820180517bffffffffffffffffffffffffffffffffffffffffffffffffffffffff838183161783525050505090505f60025f9054906101000a900473ffffffffffffffffffffffffffffffffffffffff168260405161109a90612a2a565b6110a592919061329b565b604051809103905ff0801580156110be573d5f5f3e3d5ffd5b50905080945060085f3373ffffffffffffffffffffffffffffffffffffffff1673ffffffffffffffffffffffffffffffffffffffff1681526020019081526020015f2086908060018154018082558091505060019003905f5260205f20015f90919091909150558560075f8773ffffffffffffffffffffffffffffffffffffffff1673ffffffffffffffffffffffffffffffffffffffff1681526020019081526020015f20819055503360055f8881526020019081526020015f205f6101000a81548173ffffffffffffffffffffffffffffffffffffffff021916908373ffffffffffffffffffffffffffffffffffffffff1602179055508460065f8881526020019081526020015f205f6101000a81548173ffffffffffffffffffffffffffffffffffffffff021916908373ffffffffffffffffffffffffffffffffffffffff1602179055508473ffffffffffffffffffffffffffffffffffffffff163373ffffffffffffffffffffffffffffffffffffffff16877fa5fe9f34448f3a6d6dc5b8f17d72bc56600b59a184e899e264d7f753540890568a805f01906112649190612fa7565b8c80602001906112749190612fa7565b60405161128494939291906132f5565b60405180910390a450505050915091565b5f600460149054906101000a900460ff16905090565b60045f9054906101000a900473ffffffffffffffffffffffffffffffffffffffff1673ffffffffffffffffffffffffffffffffffffffff163373ffffffffffffffffffffffffffffffffffffffff1614611331576040517fc33e396f00000000000000000000000000000000000000000000000000000000815260040160405180910390fd5b60045f9054906101000a900473ffffffffffffffffffffffffffffffffffffffff1673ffffffffffffffffffffffffffffffffffffffff16632bb02d4e6040518163ffffffff1660e01b81526004015f6040518083038186803b158015611396575f5ffd5b505afa1580156113a8573d5f5f3e3d5ffd5b505050505f73ffffffffffffffffffffffffffffffffffffffff1660025f9054906101000a900473ffffffffffffffffffffffffffffffffffffffff1673ffffffffffffffffffffffffffffffffffffffff1614611432576040517f29581c2800000000000000000000000000000000000000000000000000000000815260040160405180910390fd5b5f73ffffffffffffffffffffffffffffffffffffffff168173ffffffffffffffffffffffffffffffffffffffff1603611497576040517fd92e233d00000000000000000000000000000000000000000000000000000000815260040160405180910390fd5b8060025f6101000a81548173ffffffffffffffffffffffffffffffffffffffff021916908373ffffffffffffffffffffffffffffffffffffffff1602179055508073ffffffffffffffffffffffffffffffffffffffff167f367184f1bb13aa656fb065e5e2b1104b30f71206d03961639cac77f3a6b3317660405160405180910390a250565b60045f9054906101000a900473ffffffffffffffffffffffffffffffffffffffff1673ffffffffffffffffffffffffffffffffffffffff163373ffffffffffffffffffffffffffffffffffffffff16146115a3576040517fc33e396f00000000000000000000000000000000000000000000000000000000815260040160405180910390fd5b60045f9054906101000a900473ffffffffffffffffffffffffffffffffffffffff1673ffffffffffffffffffffffffffffffffffffffff16632bb02d4e6040518163ffffffff1660e01b81526004015f6040518083038186803b158015611608575f5ffd5b505afa15801561161a573d5f5f3e3d5ffd5b505050508060045f6101000a81548173ffffffffffffffffffffffffffffffffffffffff021916908373ffffffffffffffffffffffffffffffffffffffff1602179055508073ffffffffffffffffffffffffffffffffffffffff167fecde0373f2b001afaaea70a27b1af7076d9a65e2fb8f0fb376df15c480dab27160405160405180910390a250565b6005602052805f5260405f205f915054906101000a900473ffffffffffffffffffffffffffffffffffffffff1681565b60605f73ffffffffffffffffffffffffffffffffffffffff168273ffffffffffffffffffffffffffffffffffffffff160361173b576040517fd92e233d00000000000000000000000000000000000000000000000000000000815260040160405180910390fd5b5f60085f8473ffffffffffffffffffffffffffffffffffffffff1673ffffffffffffffffffffffffffffffffffffffff1681526020019081526020015f2080549050036117b4576040517fecb1b98b00000000000000000000000000000000000000000000000000000000815260040160405180910390fd5b60085f8373ffffffffffffffffffffffffffffffffffffffff1673ffffffffffffffffffffffffffffffffffffffff1681526020019081526020015f2080548060200260200160405190810160405280929190818152602001828054801561183957602002820191905f5260205f20905b815481526020019060010190808311611825575b50505050509050919050565b5f5f73ffffffffffffffffffffffffffffffffffffffff168273ffffffffffffffffffffffffffffffffffffffff16036118ab576040517fd92e233d00000000000000000000000000000000000000000000000000000000815260040160405180910390fd5b60085f8373ffffffffffffffffffffffffffffffffffffffff1673ffffffffffffffffffffffffffffffffffffffff1681526020019081526020015f20805490509050919050565b6040518060400160405280600581526020017f352e302e3000000000000000000000000000000000000000000000000000000081525081565b60045f9054906101000a900473ffffffffffffffffffffffffffffffffffffffff1673ffffffffffffffffffffffffffffffffffffffff163373ffffffffffffffffffffffffffffffffffffffff16146119b2576040517fc33e396f00000000000000000000000000000000000000000000000000000000815260040160405180910390fd5b60045f9054906101000a900473ffffffffffffffffffffffffffffffffffffffff1673ffffffffffffffffffffffffffffffffffffffff16632bb02d4e6040518163ffffffff1660e01b81526004015f6040518083038186803b158015611a17575f5ffd5b505afa158015611a29573d5f5f3e3d5ffd5b505050505f73ffffffffffffffffffffffffffffffffffffffff168173ffffffffffffffffffffffffffffffffffffffff1603611a92576040517fd92e233d00000000000000000000000000000000000000000000000000000000815260040160405180910390fd5b8060015f6101000a81548173ffffffffffffffffffffffffffffffffffffffff021916908373ffffffffffffffffffffffffffffffffffffffff1602179055508073ffffffffffffffffffffffffffffffffffffffff167f463bf0f4238f432e3408d19a2586c583706c72edd558afc3f7acd5c47cf483ec60405160405180910390a250565b60045f9054906101000a900473ffffffffffffffffffffffffffffffffffffffff1673ffffffffffffffffffffffffffffffffffffffff163373ffffffffffffffffffffffffffffffffffffffff1614611b9e576040517fc33e396f00000000000000000000000000000000000000000000000000000000815260040160405180910390fd5b60045f9054906101000a900473ffffffffffffffffffffffffffffffffffffffff1673ffffffffffffffffffffffffffffffffffffffff16632bb02d4e6040518163ffffffff1660e01b81526004015f6040518083038186803b158015611c03575f5ffd5b505afa158015611c15573d5f5f3e3d5ffd5b505050508060035f6101000a81548173ffffffffffffffffffffffffffffffffffffffff021916908373ffffffffffffffffffffffffffffffffffffffff1602179055508073ffffffffffffffffffffffffffffffffffffffff167f0edefbea2abde43ca16323fe38f8fb4de530f85711a5a548f0548ceb7a5c12a160405160405180910390a250565b5f60015f9054906101000a900473ffffffffffffffffffffffffffffffffffffffff16905090565b5f611cd06126e7565b90505f815f0160089054906101000a900460ff161590505f825f015f9054906101000a900467ffffffffffffffff1690505f5f8267ffffffffffffffff16148015611d185750825b90505f60018367ffffffffffffffff16148015611d4b57505f3073ffffffffffffffffffffffffffffffffffffffff163b145b905081158015611d59575080155b15611d90576040517ff92ee8a900000000000000000000000000000000000000000000000000000000815260040160405180910390fd5b6001855f015f6101000a81548167ffffffffffffffff021916908367ffffffffffffffff1602179055508315611ddd576001855f0160086101000a81548160ff0219169083151502179055505b60015f819055505f73ffffffffffffffffffffffffffffffffffffffff168673ffffffffffffffffffffffffffffffffffffffff1603611e49576040517fd92e233d00000000000000000000000000000000000000000000000000000000815260040160405180910390fd5b8560045f6101000a81548173ffffffffffffffffffffffffffffffffffffffff021916908373ffffffffffffffffffffffffffffffffffffffff1602179055508315611ee3575f855f0160086101000a81548160ff0219169083151502179055507fc7f505b2f371ae2175ee4913f4499e1f2633a7b5936321eed1cdaeb6115181d26001604051611eda9190613383565b60405180910390a15b505050505050565b5f5f821480611efb57505f548210155b15611f32576040517ff9c0f36b00000000000000000000000000000000000000000000000000000000815260040160405180910390fd5b60055f8381526020019081526020015f205f9054906101000a900473ffffffffffffffffffffffffffffffffffffffff169050919050565b60045f9054906101000a900473ffffffffffffffffffffffffffffffffffffffff1673ffffffffffffffffffffffffffffffffffffffff163373ffffffffffffffffffffffffffffffffffffffff1614611ff0576040517fc33e396f00000000000000000000000000000000000000000000000000000000815260040160405180910390fd5b60045f9054906101000a900473ffffffffffffffffffffffffffffffffffffffff1673ffffffffffffffffffffffffffffffffffffffff16632bb02d4e6040518163ffffffff1660e01b81526004015f6040518083038186803b158015612055575f5ffd5b505afa158015612067573d5f5f3e3d5ffd5b50505050600460149054906101000a900460ff16156120b2576040517f8fe8c5ad00000000000000000000000000000000000000000000000000000000815260040160405180910390fd5b5f73ffffffffffffffffffffffffffffffffffffffff1660015f9054906101000a900473ffffffffffffffffffffffffffffffffffffffff1673ffffffffffffffffffffffffffffffffffffffff1603612138576040517f32edb9d000000000000000000000000000000000000000000000000000000000815260040160405180910390fd5b5f73ffffffffffffffffffffffffffffffffffffffff1660025f9054906101000a900473ffffffffffffffffffffffffffffffffffffffff1673ffffffffffffffffffffffffffffffffffffffff16036121be576040517f54acb86700000000000000000000000000000000000000000000000000000000815260040160405180910390fd5b6001600460146101000a81548160ff0219169083151502179055507f0619fc7c1053551610bf2254be747434278db5970f5aeb0c80f899e801d5513a60405160405180910390a1565b6006602052805f5260405f205f915054906101000a900473ffffffffffffffffffffffffffffffffffffffff1681565b5f5f73ffffffffffffffffffffffffffffffffffffffff168273ffffffffffffffffffffffffffffffffffffffff160361229d576040517fd92e233d00000000000000000000000000000000000000000000000000000000815260040160405180910390fd5b5f60075f8473ffffffffffffffffffffffffffffffffffffffff1673ffffffffffffffffffffffffffffffffffffffff1681526020019081526020015f205403612313576040517ff9c0f36b00000000000000000000000000000000000000000000000000000000815260040160405180910390fd5b60075f8373ffffffffffffffffffffffffffffffffffffffff1673ffffffffffffffffffffffffffffffffffffffff1681526020019081526020015f20549050919050565b7f000000000000000000000000000000000000000000000000000000000000000073ffffffffffffffffffffffffffffffffffffffff163073ffffffffffffffffffffffffffffffffffffffff16148061240557507f000000000000000000000000000000000000000000000000000000000000000073ffffffffffffffffffffffffffffffffffffffff166123ec6126fa565b73ffffffffffffffffffffffffffffffffffffffff1614155b1561243c576040517fe07c8dba00000000000000000000000000000000000000000000000000000000815260040160405180910390fd5b565b60045f9054906101000a900473ffffffffffffffffffffffffffffffffffffffff1673ffffffffffffffffffffffffffffffffffffffff163373ffffffffffffffffffffffffffffffffffffffff16146124c4576040517fc33e396f00000000000000000000000000000000000000000000000000000000815260040160405180910390fd5b60045f9054906101000a900473ffffffffffffffffffffffffffffffffffffffff1673ffffffffffffffffffffffffffffffffffffffff16632bb02d4e6040518163ffffffff1660e01b81526004015f6040518083038186803b158015612529575f5ffd5b505afa15801561253b573d5f5f3e3d5ffd5b5050505050565b8173ffffffffffffffffffffffffffffffffffffffff166352d1902d6040518163ffffffff1660e01b8152600401602060405180830381865afa9250505080156125aa57506040513d601f19601f820116820180604052508101906125a791906133c6565b60015b6125eb57816040517f4c9c8ce30000000000000000000000000000000000000000000000000000000081526004016125e29190612a76565b60405180910390fd5b7f360894a13ba1a3210667c828492db98dca3e2076cc3735a920a3ca505d382bbc5f1b811461265157806040517faa1d49a40000000000000000000000000000000000000000000000000000000081526004016126489190612d67565b60405180910390fd5b61265b838361274d565b505050565b7f000000000000000000000000000000000000000000000000000000000000000073ffffffffffffffffffffffffffffffffffffffff163073ffffffffffffffffffffffffffffffffffffffff16146126e5576040517fe07c8dba00000000000000000000000000000000000000000000000000000000815260040160405180910390fd5b565b5f5f6126f16127bf565b90508091505090565b5f6127267f360894a13ba1a3210667c828492db98dca3e2076cc3735a920a3ca505d382bbc5f1b6127e8565b5f015f9054906101000a900473ffffffffffffffffffffffffffffffffffffffff16905090565b612756826127f1565b8173ffffffffffffffffffffffffffffffffffffffff167fbc7cd75a20ee27fd9adebab32041f755214dbc6bffa90cc0225b39da2e5c2d3b60405160405180910390a25f815111156127b2576127ac82826128ba565b506127bb565b6127ba6129ab565b5b5050565b5f7ff0c57e16840df040f15088dc2f81fe391c3923bec73e23a9662efc9c229c6a005f1b905090565b5f819050919050565b5f8173ffffffffffffffffffffffffffffffffffffffff163b0361284c57806040517f4c9c8ce30000000000000000000000000000000000000000000000000000000081526004016128439190612a76565b60405180910390fd5b806128787f360894a13ba1a3210667c828492db98dca3e2076cc3735a920a3ca505d382bbc5f1b6127e8565b5f015f6101000a81548173ffffffffffffffffffffffffffffffffffffffff021916908373ffffffffffffffffffffffffffffffffffffffff16021790555050565b60605f6128c784846129e7565b90508080156128fd57505f6128da6129fb565b11806128fc57505f8473ffffffffffffffffffffffffffffffffffffffff163b115b5b156129125761290a612a02565b9150506129a5565b801561295557836040517f9996b31500000000000000000000000000000000000000000000000000000000815260040161294c9190612a76565b60405180910390fd5b5f61295e6129fb565b11156129715761296c612a1f565b6129a3565b6040517fd6bda27500000000000000000000000000000000000000000000000000000000815260040160405180910390fd5b505b92915050565b5f3411156129e5576040517fb398979f00000000000000000000000000000000000000000000000000000000815260040160405180910390fd5b565b5f5f5f835160208501865af4905092915050565b5f3d905090565b606060405190503d81523d5f602083013e3d602001810160405290565b6040513d5f823e3d81fd5b61089c806133f283390190565b5f73ffffffffffffffffffffffffffffffffffffffff82169050919050565b5f612a6082612a37565b9050919050565b612a7081612a56565b82525050565b5f602082019050612a895f830184612a67565b92915050565b5f819050919050565b612aa181612a8f565b82525050565b5f602082019050612aba5f830184612a98565b92915050565b5f604051905090565b5f5ffd5b5f5ffd5b612ada81612a8f565b8114612ae4575f5ffd5b50565b5f81359050612af581612ad1565b92915050565b5f60208284031215612b1057612b0f612ac9565b5b5f612b1d84828501612ae7565b91505092915050565b612b2f81612a56565b8114612b39575f5ffd5b50565b5f81359050612b4a81612b26565b92915050565b5f60208284031215612b6557612b64612ac9565b5b5f612b7284828501612b3c565b91505092915050565b5f5f60408385031215612b9157612b90612ac9565b5b5f612b9e85828601612b3c565b9250506020612baf85828601612ae7565b9150509250929050565b5f5ffd5b5f5ffd5b5f601f19601f8301169050919050565b7f4e487b71000000000000000000000000000000000000000000000000000000005f52604160045260245ffd5b612c0782612bc1565b810181811067ffffffffffffffff82111715612c2657612c25612bd1565b5b80604052505050565b5f612c38612ac0565b9050612c448282612bfe565b919050565b5f67ffffffffffffffff821115612c6357612c62612bd1565b5b612c6c82612bc1565b9050602081019050919050565b828183375f83830152505050565b5f612c99612c9484612c49565b612c2f565b905082815260208101848484011115612cb557612cb4612bbd565b5b612cc0848285612c79565b509392505050565b5f82601f830112612cdc57612cdb612bb9565b5b8135612cec848260208601612c87565b91505092915050565b5f5f60408385031215612d0b57612d0a612ac9565b5b5f612d1885828601612b3c565b925050602083013567ffffffffffffffff811115612d3957612d38612acd565b5b612d4585828601612cc8565b9150509250929050565b5f819050919050565b612d6181612d4f565b82525050565b5f602082019050612d7a5f830184612d58565b92915050565b5f5ffd5b5f6101408284031215612d9a57612d99612d80565b5b81905092915050565b5f60208284031215612db857612db7612ac9565b5b5f82013567ffffffffffffffff811115612dd557612dd4612acd565b5b612de184828501612d84565b91505092915050565b5f604082019050612dfd5f830185612a98565b612e0a6020830184612a67565b9392505050565b5f8115159050919050565b612e2581612e11565b82525050565b5f602082019050612e3e5f830184612e1c565b92915050565b5f81519050919050565b5f82825260208201905092915050565b5f819050602082019050919050565b612e7681612a8f565b82525050565b5f612e878383612e6d565b60208301905092915050565b5f602082019050919050565b5f612ea982612e44565b612eb38185612e4e565b9350612ebe83612e5e565b805f5b83811015612eee578151612ed58882612e7c565b9750612ee083612e93565b925050600181019050612ec1565b5085935050505092915050565b5f6020820190508181035f830152612f138184612e9f565b905092915050565b5f81519050919050565b5f82825260208201905092915050565b8281835e5f83830152505050565b5f612f4d82612f1b565b612f578185612f25565b9350612f67818560208601612f35565b612f7081612bc1565b840191505092915050565b5f6020820190508181035f830152612f938184612f43565b905092915050565b5f5ffd5b5f5ffd5b5f5ffd5b5f5f83356001602003843603038112612fc357612fc2612f9b565b5b80840192508235915067ffffffffffffffff821115612fe557612fe4612f9f565b5b60208301925060018202360383131561300157613000612fa3565b5b509250929050565b5f81905092915050565b5f61301e8385613009565b935061302b838584612c79565b82840190509392505050565b5f613043828486613013565b91508190509392505050565b5f6bffffffffffffffffffffffff82169050919050565b61306f8161304f565b8114613079575f5ffd5b50565b5f8135905061308a81613066565b92915050565b5f602082840312156130a5576130a4612ac9565b5b5f6130b28482850161307c565b91505092915050565b5f82825260208201905092915050565b5f6130d582612f1b565b6130df81856130bb565b93506130ef818560208601612f35565b6130f881612bc1565b840191505092915050565b61310c81612a56565b82525050565b61311b8161304f565b82525050565b5f61016083015f8301518482035f86015261313c82826130cb565b9150506020830151848203602086015261315682826130cb565b9150506040830151848203604086015261317082826130cb565b9150506060830151848203606086015261318a82826130cb565b915050608083015184820360808601526131a482826130cb565b91505060a08301516131b960a0860182613103565b5060c08301516131cc60c0860182613112565b5060e08301516131df60e0860182612e6d565b506101008301516131f4610100860182612e6d565b50610120830151613209610120860182612e6d565b5061014083015161321e610140860182613103565b508091505092915050565b5f6020820190508181035f8301526132418184613121565b905092915050565b5f81519050919050565b5f82825260208201905092915050565b5f61326d82613249565b6132778185613253565b9350613287818560208601612f35565b61329081612bc1565b840191505092915050565b5f6040820190506132ae5f830185612a67565b81810360208301526132c08184613263565b90509392505050565b5f6132d48385612f25565b93506132e1838584612c79565b6132ea83612bc1565b840190509392505050565b5f6040820190508181035f83015261330e8186886132c9565b905081810360208301526133238184866132c9565b905095945050505050565b5f819050919050565b5f67ffffffffffffffff82169050919050565b5f819050919050565b5f61336d6133686133638461332e565b61334a565b613337565b9050919050565b61337d81613353565b82525050565b5f6020820190506133965f830184613374565b92915050565b6133a581612d4f565b81146133af575f5ffd5b50565b5f815190506133c08161339c565b92915050565b5f602082840312156133db576133da612ac9565b5b5f6133e8848285016133b2565b9150509291505056fe60a060405260405161089c38038061089c83398181016040528101906100259190610639565b610035828261007060201b60201c565b8173ffffffffffffffffffffffffffffffffffffffff1660808173ffffffffffffffffffffffffffffffffffffffff168152505050506106e6565b61007f8261016060201b60201c565b8173ffffffffffffffffffffffffffffffffffffffff167f1cf3b03a6cf19fa2baba4df148e9dcabedea7f8a5c07840e207e5c089be95d3e60405160405180910390a25f8151111561014d576101478273ffffffffffffffffffffffffffffffffffffffff16635c60da1b6040518163ffffffff1660e01b8152600401602060405180830381865afa158015610117573d5f5f3e3d5ffd5b505050506040513d601f19601f8201168201806040525081019061013b9190610693565b826102fb60201b60201c565b5061015c565b61015b61040a60201b60201c565b5b5050565b5f8173ffffffffffffffffffffffffffffffffffffffff163b036101bb57806040517f64ced0ec0000000000000000000000000000000000000000000000000000000081526004016101b291906106cd565b60405180910390fd5b806101ed7fa3f0ad74e5423aebfd80d3ef4346578335a9a72aeaee59ff6cb3582b35133d505f1b61044660201b60201c565b5f015f6101000a81548173ffffffffffffffffffffffffffffffffffffffff021916908373ffffffffffffffffffffffffffffffffffffffff1602179055505f8173ffffffffffffffffffffffffffffffffffffffff16635c60da1b6040518163ffffffff1660e01b8152600401602060405180830381865afa158015610276573d5f5f3e3d5ffd5b505050506040513d601f19601f8201168201806040525081019061029a9190610693565b90505f8173ffffffffffffffffffffffffffffffffffffffff163b036102f757806040517f4c9c8ce30000000000000000000000000000000000000000000000000000000081526004016102ee91906106cd565b60405180910390fd5b5050565b60605f61030e848461044f60201b60201c565b905080801561034a57505f61032761046360201b60201c565b118061034957505f8473ffffffffffffffffffffffffffffffffffffffff163b115b5b156103655761035d61046a60201b60201c565b915050610404565b80156103a857836040517f9996b31500000000000000000000000000000000000000000000000000000000815260040161039f91906106cd565b60405180910390fd5b5f6103b761046360201b60201c565b11156103d0576103cb61048760201b60201c565b610402565b6040517fd6bda27500000000000000000000000000000000000000000000000000000000815260040160405180910390fd5b505b92915050565b5f341115610444576040517fb398979f00000000000000000000000000000000000000000000000000000000815260040160405180910390fd5b565b5f819050919050565b5f5f5f835160208501865af4905092915050565b5f3d905090565b606060405190503d81523d5f602083013e3d602001810160405290565b6040513d5f823e3d81fd5b5f604051905090565b5f5ffd5b5f5ffd5b5f73ffffffffffffffffffffffffffffffffffffffff82169050919050565b5f6104cc826104a3565b9050919050565b6104dc816104c2565b81146104e6575f5ffd5b50565b5f815190506104f7816104d3565b92915050565b5f5ffd5b5f5ffd5b5f601f19601f8301169050919050565b7f4e487b71000000000000000000000000000000000000000000000000000000005f52604160045260245ffd5b61054b82610505565b810181811067ffffffffffffffff8211171561056a57610569610515565b5b80604052505050565b5f61057c610492565b90506105888282610542565b919050565b5f67ffffffffffffffff8211156105a7576105a6610515565b5b6105b082610505565b9050602081019050919050565b8281835e5f83830152505050565b5f6105dd6105d88461058d565b610573565b9050828152602081018484840111156105f9576105f8610501565b5b6106048482856105bd565b509392505050565b5f82601f8301126106205761061f6104fd565b5b81516106308482602086016105cb565b91505092915050565b5f5f6040838503121561064f5761064e61049b565b5b5f61065c858286016104e9565b925050602083015167ffffffffffffffff81111561067d5761067c61049f565b5b6106898582860161060c565b9150509250929050565b5f602082840312156106a8576106a761049b565b5b5f6106b5848285016104e9565b91505092915050565b6106c7816104c2565b82525050565b5f6020820190506106e05f8301846106be565b92915050565b60805161019f6106fd5f395f60bc015261019f5ff3fe608060405261000c61000e565b005b61001e610019610020565b61009a565b565b5f6100296100b9565b73ffffffffffffffffffffffffffffffffffffffff16635c60da1b6040518163ffffffff1660e01b8152600401602060405180830381865afa158015610071573d5f5f3e3d5ffd5b505050506040513d601f19601f82011682018060405250810190610095919061013e565b905090565b365f5f375f5f365f845af43d5f5f3e805f81146100b5573d5ff35b3d5ffd5b5f7f0000000000000000000000000000000000000000000000000000000000000000905090565b5f5ffd5b5f73ffffffffffffffffffffffffffffffffffffffff82169050919050565b5f61010d826100e4565b9050919050565b61011d81610103565b8114610127575f5ffd5b50565b5f8151905061013881610114565b92915050565b5f60208284031215610153576101526100e0565b5b5f6101608482850161012a565b9150509291505056fea2646970667358221220dbfd033887873e841e1454860aeb6e3f5f8b5b9ea0b3c19565640c4f381c77c364736f6c634300081e0033a264697066735822122066da31df523c6297f1b197f5af4d3014735d956948a209d8084e10ac4b53b0d464736f6c634300081e0033","linkReferences":{}},"methodIdentifiers":{"MAX_SUPPLY()":"32cb6b0c","UPGRADE_INTERFACE_VERSION()":"ad3cb1cc","activateFactory()":"cc35b75f","collectionAddressToId(address)":"3e710b55","collectionIdToAddress(uint256)":"d31684db","collectionIdToOwner(uint256)":"794fd657","createCollection((string,string,string,string,string,address,uint96,uint256,uint256,uint256))":"5d5654fd","getAddressCollectionAmount(address)":"a071d4c2","getAllAddressCollectionIds(address)":"9d754e5a","getBeaconAddress()":"009d4d7a","getCollectionAddressById(uint256)":"3ca82d95","getCollectionIdByAddress(address)":"e654ab55","getCollectionOwnerById(uint256)":"c9e22f13","getMarketplaceAddress()":"bb8fe785","getMultisigTimelock()":"12513b28","initialize(address)":"c4d66de8","isFactoryActive()":"61199ea4","proxiableUUID()":"52d1902d","setCollectionBeaconAddress(address)":"625431ca","setMarketplaceAddress(address)":"b47cc556","setMultisigTimelock(address)":"74bbc800","setVRFAdapter(address)":"bb20c9d5","stopFactory()":"5c8b115a","upgradeToAndCall(address,bytes)":"4f1ef286","userCollections(address,uint256)":"428a6171"},"id":67}