{"abi":[{"type":"constructor","inputs":[],"stateMutability":"nonpayable"},{"type":"function","name":"UPGRADE_INTERFACE_VERSION","inputs":[],"outputs":[{"name":"","type":"string","internalType":"string"}],"stateMutability":"view"},{"type":"function","name":"addOwner","inputs":[{"name":"newOwner","type":"address","internalType":"address"}],"outputs":[],"stateMutability":"nonpayable"},{"type":"function","name":"addToQueue","inputs":[{"name":"_target","type":"address","internalType":"address"},{"name":"_data","type":"bytes","internalType":"bytes"},{"name":"_value","type":"uint256","internalType":"uint256"},{"name":"_timestamp","type":"uint256","internalType":"uint256"},{"name":"_gracePeriod","type":"uint256","internalType":"uint256"},{"name":"_txType","type":"bytes32","internalType":"bytes32"}],"outputs":[{"name":"txHash","type":"bytes32","internalType":"bytes32"}],"stateMutability":"nonpayable"},{"type":"function","name":"cancelConfirmation","inputs":[{"name":"_txId","type":"bytes32","internalType":"bytes32"}],"outputs":[],"stateMutability":"nonpayable"},{"type":"function","name":"cancelTransaction","inputs":[{"name":"_txId","type":"bytes32","internalType":"bytes32"}],"outputs":[],"stateMutability":"nonpayable"},{"type":"function","name":"confirm","inputs":[{"name":"_txId","type":"bytes32","internalType":"bytes32"}],"outputs":[],"stateMutability":"nonpayable"},{"type":"function","name":"deleteOwner","inputs":[{"name":"pastOwner","type":"address","internalType":"address"}],"outputs":[],"stateMutability":"nonpayable"},{"type":"function","name":"executeTransaction","inputs":[{"name":"_txId","type":"bytes32","internalType":"bytes32"}],"outputs":[],"stateMutability":"payable"},{"type":"function","name":"getMaxDelay","inputs":[],"outputs":[{"name":"","type":"uint256","internalType":"uint256"}],"stateMutability":"view"},{"type":"function","name":"getMinApprovals","inputs":[],"outputs":[{"name":"","type":"uint256","internalType":"uint256"}],"stateMutability":"view"},{"type":"function","name":"getOwnerCount","inputs":[],"outputs":[{"name":"","type":"uint256","internalType":"uint256"}],"stateMutability":"view"},{"type":"function","name":"getOwners","inputs":[],"outputs":[{"name":"","type":"address[]","internalType":"address[]"}],"stateMutability":"view"},{"type":"function","name":"getTransactions","inputs":[{"name":"_txId","type":"bytes32","internalType":"bytes32"}],"outputs":[{"name":"transaction","type":"tuple","internalType":"struct MultisigTimelock.QueuedTransaction","components":[{"name":"target","type":"address","internalType":"address"},{"name":"data","type":"bytes","internalType":"bytes"},{"name":"value","type":"uint256","internalType":"uint256"},{"name":"timestamp","type":"uint256","internalType":"uint256"},{"name":"gracePeriod","type":"uint256","internalType":"uint256"},{"name":"approvalCount","type":"uint256","internalType":"uint256"},{"name":"executed","type":"bool","internalType":"bool"},{"name":"txType","type":"bytes32","internalType":"bytes32"}]}],"stateMutability":"view"},{"type":"function","name":"hasApproved","inputs":[{"name":"_txId","type":"bytes32","internalType":"bytes32"},{"name":"_owner","type":"address","internalType":"address"}],"outputs":[{"name":"","type":"bool","internalType":"bool"}],"stateMutability":"view"},{"type":"function","name":"isOwner","inputs":[{"name":"_address","type":"address","internalType":"address"}],"outputs":[{"name":"","type":"bool","internalType":"bool"}],"stateMutability":"view"},{"type":"function","name":"isQueued","inputs":[{"name":"_txId","type":"bytes32","internalType":"bytes32"}],"outputs":[{"name":"","type":"bool","internalType":"bool"}],"stateMutability":"view"},{"type":"function","name":"proxiableUUID","inputs":[],"outputs":[{"name":"","type":"bytes32","internalType":"bytes32"}],"stateMutability":"view"},{"type":"function","name":"swapOwner","inputs":[{"name":"newOwner","type":"address","internalType":"address"},{"name":"pastOwner","type":"address","internalType":"address"}],"outputs":[],"stateMutability":"nonpayable"},{"type":"function","name":"upgradeToAndCall","inputs":[{"name":"newImplementation","type":"address","internalType":"address"},{"name":"data","type":"bytes","internalType":"bytes"}],"outputs":[],"stateMutability":"payable"},{"type":"function","name":"verifyCurrentTransaction","inputs":[],"outputs":[],"stateMutability":"view"},{"type":"event","name":"Cancelled","inputs":[{"name":"txId","type":"bytes32","indexed":false,"internalType":"bytes32"}],"anonymous":false},{"type":"event","name":"ConfirmationCancelled","inputs":[{"name":"txId","type":"bytes32","indexed":false,"internalType":"bytes32"},{"name":"owner","type":"address","indexed":false,"internalType":"address"}],"anonymous":false},{"type":"event","name":"Confirmed","inputs":[{"name":"txId","type":"bytes32","indexed":false,"internalType":"bytes32"},{"name":"owner","type":"address","indexed":false,"internalType":"address"}],"anonymous":false},{"type":"event","name":"Executed","inputs":[{"name":"txId","type":"bytes32","indexed":false,"internalType":"bytes32"}],"anonymous":false},{"type":"event","name":"Initialized","inputs":[{"name":"version","type":"uint64","indexed":false,"internalType":"uint64"}],"anonymous":false},{"type":"event","name":"NewOwnerAdded","inputs":[{"name":"newOwner","type":"address","indexed":false,"internalType":"address"}],"anonymous":false},{"type":"event","name":"OwnerDeleted","inputs":[{"name":"pastOwner","type":"address","indexed":false,"internalType":"address"}],"anonymous":false},{"type":"event","name":"Queued","inputs":[{"name":"txId","type":"bytes32","indexed":false,"internalType":"bytes32"}],"anonymous":false},{"type":"event","name":"Upgraded","inputs":[{"name":"implementation","type":"address","indexed":true,"internalType":"address"}],"anonymous":false},{"type":"error","name":"AddressEmptyCode","inputs":[{"name":"target","type":"address","internalType":"address"}]},{"type":"error","name":"AddressIsNotAnOwner","inputs":[]},{"type":"error","name":"AddressIsOwnerAlready","inputs":[]},{"type":"error","name":"AlreadyQueued","inputs":[]},{"type":"error","name":"AmountOfOwnersIsNoLessMinApprovalsNumber","inputs":[]},{"type":"error","name":"CallFailed","inputs":[]},{"type":"error","name":"DelayTooLong","inputs":[]},{"type":"error","name":"DuplicatedOwners","inputs":[]},{"type":"error","name":"ERC1967InvalidImplementation","inputs":[{"name":"implementation","type":"address","internalType":"address"}]},{"type":"error","name":"ERC1967NonPayable","inputs":[]},{"type":"error","name":"ExecutionWindowIsStarted","inputs":[]},{"type":"error","name":"FailedCall","inputs":[]},{"type":"error","name":"InvalidApprovalAmount","inputs":[]},{"type":"error","name":"InvalidGracePeriod","inputs":[]},{"type":"error","name":"InvalidInitialization","inputs":[]},{"type":"error","name":"InvalidOwner","inputs":[]},{"type":"error","name":"InvalidOwnersList","inputs":[]},{"type":"error","name":"NoRightsToChangeOwners","inputs":[]},{"type":"error","name":"NotAnOwner","inputs":[]},{"type":"error","name":"NotEnoughApprovals","inputs":[]},{"type":"error","name":"NotInitializing","inputs":[]},{"type":"error","name":"OwnerNotFound","inputs":[]},{"type":"error","name":"ReentrancyGuardReentrantCall","inputs":[]},{"type":"error","name":"TooEarly","inputs":[]},{"type":"error","name":"TxAlreadyConfirmedByThisAddress","inputs":[]},{"type":"error","name":"TxAlreadyExecuted","inputs":[]},{"type":"error","name":"TxExpired","inputs":[]},{"type":"error","name":"TxIsNotConfirmedByThisAddress","inputs":[]},{"type":"error","name":"TxNotQueued","inputs":[]},{"type":"error","name":"UUPSUnauthorizedCallContext","inputs":[]},{"type":"error","name":"UUPSUnsupportedProxiableUUID","inputs":[{"name":"slot","type":"bytes32","internalType":"bytes32"}]},{"type":"error","name":"UnauthorizedUpgrade","inputs":[]},{"type":"error","name":"ZeroAddressCanNotBeOwner","inputs":[]}],"bytecode":{"object":"0x60a06040523073ffffffffffffffffffffffffffffffffffffffff1660809073ffffffffffffffffffffffffffffffffffffffff168152505f5f1b600355348015610048575f5ffd5b50600161006761005c61008060201b60201c565b6100a960201b60201c565b5f018190555061007b6100b260201b60201c565b61022d565b5f7f9b779b17422d0df92223018b32b4d1fa46e071723d6817e2486d003becc55f005f1b905090565b5f819050919050565b5f6100c16101b060201b60201c565b9050805f0160089054906101000a900460ff161561010b576040517ff92ee8a900000000000000000000000000000000000000000000000000000000815260040160405180910390fd5b67ffffffffffffffff8016815f015f9054906101000a900467ffffffffffffffff1667ffffffffffffffff16146101ad5767ffffffffffffffff815f015f6101000a81548167ffffffffffffffff021916908367ffffffffffffffff1602179055507fc7f505b2f371ae2175ee4913f4499e1f2633a7b5936321eed1cdaeb6115181d267ffffffffffffffff6040516101a49190610214565b60405180910390a15b50565b5f5f6101c06101c960201b60201c565b90508091505090565b5f7ff0c57e16840df040f15088dc2f81fe391c3923bec73e23a9662efc9c229c6a005f1b905090565b5f67ffffffffffffffff82169050919050565b61020e816101f2565b82525050565b5f6020820190506102275f830184610205565b92915050565b6080516137e76102535f395f818161235e015281816123b3015261256d01526137e75ff3fe60806040526004361061011e575f3560e01c80637065cb481161009f578063ad3cb1cc11610063578063ad3cb1cc146103c8578063c69ed5f2146103f2578063cd5c4c701461040e578063ef18374a14610436578063f35ba340146104605761011e565b80637065cb48146102fe57806370ba333914610326578063797af6271461034e5780639ac1636b14610376578063a0e67e2b1461039e5761011e565b806341e0f716116100e657806341e0f7161461021657806342bd28e8146102525780634d3e24901461028e5780634f1ef286146102b857806352d1902d146102d45761011e565b80630d359e90146101225780630dc051f81461014c57806323cdc3f1146101885780632bb02d4e146101c45780632f54bf6e146101da575b5f5ffd5b34801561012d575f5ffd5b50610136610488565b6040516101439190612a8a565b60405180910390f35b348015610157575f5ffd5b50610172600480360381019061016d9190612ae7565b610491565b60405161017f9190612b2c565b60405180910390f35b348015610193575f5ffd5b506101ae60048036038101906101a99190612b9f565b6104b7565b6040516101bb9190612b2c565b60405180910390f35b3480156101cf575f5ffd5b506101d8610519565b005b3480156101e5575f5ffd5b5061020060048036038101906101fb9190612bdd565b6106d3565b60405161020d9190612b2c565b60405180910390f35b348015610221575f5ffd5b5061023c60048036038101906102379190612c93565b610725565b6040516102499190612d4c565b60405180910390f35b34801561025d575f5ffd5b5061027860048036038101906102739190612ae7565b610aa9565b6040516102859190612ebe565b60405180910390f35b348015610299575f5ffd5b506102a2610c05565b6040516102af9190612a8a565b60405180910390f35b6102d260048036038101906102cd9190613006565b610c0d565b005b3480156102df575f5ffd5b506102e8610c2c565b6040516102f59190612d4c565b60405180910390f35b348015610309575f5ffd5b50610324600480360381019061031f9190612bdd565b610c5d565b005b348015610331575f5ffd5b5061034c60048036038101906103479190612ae7565b610e9f565b005b348015610359575f5ffd5b50610374600480360381019061036f9190612ae7565b6110e5565b005b348015610381575f5ffd5b5061039c60048036038101906103979190612ae7565b61135f565b005b3480156103a9575f5ffd5b506103b26115d7565b6040516103bf9190613108565b60405180910390f35b3480156103d3575f5ffd5b506103dc611662565b6040516103e9919061317a565b60405180910390f35b61040c60048036038101906104079190612ae7565b61169b565b005b348015610419575f5ffd5b50610434600480360381019061042f9190612bdd565b611a97565b005b348015610441575f5ffd5b5061044a611df7565b6040516104579190612a8a565b60405180910390f35b34801561046b575f5ffd5b506104866004803603810190610481919061319a565b611e03565b005b5f600154905090565b5f60075f8381526020019081526020015f205f9054906101000a900460ff169050919050565b5f60065f8481526020019081526020015f205f8373ffffffffffffffffffffffffffffffffffffffff1673ffffffffffffffffffffffffffffffffffffffff1681526020019081526020015f205f9054906101000a900460ff16905092915050565b5f5f1b60035403610556576040517f3a617a5400000000000000000000000000000000000000000000000000000000815260040160405180910390fd5b60075f60035481526020019081526020015f205f9054906101000a900460ff166105ac576040517fccc85ba300000000000000000000000000000000000000000000000000000000815260040160405180910390fd5b5f60055f60035481526020019081526020015f2090505f5481600501541015610601576040517f24bcdbea00000000000000000000000000000000000000000000000000000000815260040160405180910390fd5b806006015f9054906101000a900460ff1615610649576040517f2ea945cf00000000000000000000000000000000000000000000000000000000815260040160405180910390fd5b3373ffffffffffffffffffffffffffffffffffffffff16815f015f9054906101000a900473ffffffffffffffffffffffffffffffffffffffff1673ffffffffffffffffffffffffffffffffffffffff16146106d0576040517f3a617a5400000000000000000000000000000000000000000000000000000000815260040160405180910390fd5b50565b5f60045f8373ffffffffffffffffffffffffffffffffffffffff1673ffffffffffffffffffffffffffffffffffffffff1681526020019081526020015f205f9054906101000a900460ff169050919050565b5f60045f3373ffffffffffffffffffffffffffffffffffffffff1673ffffffffffffffffffffffffffffffffffffffff1681526020019081526020015f205f9054906101000a900460ff166107a6576040517feea91ff800000000000000000000000000000000000000000000000000000000815260040160405180910390fd5b620151808310156107e3576040517fd7c43e0f00000000000000000000000000000000000000000000000000000000815260040160405180910390fd5b600154426107f19190613205565b84111561082a576040517fac47a81c00000000000000000000000000000000000000000000000000000000815260040160405180910390fd5b42841015610864576040517f085de62500000000000000000000000000000000000000000000000000000000815260040160405180910390fd5b878787878760405160200161087d9594939291906132cb565b60405160208183030381529060405280519060200120905060075f8281526020019081526020015f205f9054906101000a900460ff16156108ea576040517f5f8547c200000000000000000000000000000000000000000000000000000000815260040160405180910390fd5b600160075f8381526020019081526020015f205f6101000a81548160ff0219169083151502179055506040518061010001604052808973ffffffffffffffffffffffffffffffffffffffff16815260200188888080601f0160208091040260200160405190810160405280939291908181526020018383808284375f81840152601f19601f8201169050808301925050505050505081526020018681526020018581526020018481526020015f81526020015f151581526020018381525060055f8381526020019081526020015f205f820151815f015f6101000a81548173ffffffffffffffffffffffffffffffffffffffff021916908373ffffffffffffffffffffffffffffffffffffffff1602179055506020820151816001019081610a129190613513565b5060408201518160020155606082015181600301556080820151816004015560a0820151816005015560c0820151816006015f6101000a81548160ff02191690831515021790555060e082015181600701559050507f030c1c58a8158dbc150ce42bdc8c37982386e9ccda2771c0013699136416922f81604051610a969190612d4c565b60405180910390a1979650505050505050565b610ab16129c4565b60055f8381526020019081526020015f20604051806101000160405290815f82015f9054906101000a900473ffffffffffffffffffffffffffffffffffffffff1673ffffffffffffffffffffffffffffffffffffffff1673ffffffffffffffffffffffffffffffffffffffff168152602001600182018054610b3290613343565b80601f0160208091040260200160405190810160405280929190818152602001828054610b5e90613343565b8015610ba95780601f10610b8057610100808354040283529160200191610ba9565b820191905f5260205f20905b815481529060010190602001808311610b8c57829003601f168201915b5050505050815260200160028201548152602001600382015481526020016004820154815260200160058201548152602001600682015f9054906101000a900460ff161515151581526020016007820154815250509050919050565b5f5f54905090565b610c1561235c565b610c1e82612442565b610c28828261244d565b5050565b5f610c3561256b565b7f360894a13ba1a3210667c828492db98dca3e2076cc3735a920a3ca505d382bbc5f1b905090565b610c65610519565b3073ffffffffffffffffffffffffffffffffffffffff163373ffffffffffffffffffffffffffffffffffffffff1614610cca576040517fd761560c00000000000000000000000000000000000000000000000000000000815260040160405180910390fd5b5f73ffffffffffffffffffffffffffffffffffffffff168173ffffffffffffffffffffffffffffffffffffffff1603610d2f576040517fa8aa10d400000000000000000000000000000000000000000000000000000000815260040160405180910390fd5b60045f8273ffffffffffffffffffffffffffffffffffffffff1673ffffffffffffffffffffffffffffffffffffffff1681526020019081526020015f205f9054906101000a900460ff1615610db0576040517f2e5abc1600000000000000000000000000000000000000000000000000000000815260040160405180910390fd5b600160045f8373ffffffffffffffffffffffffffffffffffffffff1673ffffffffffffffffffffffffffffffffffffffff1681526020019081526020015f205f6101000a81548160ff021916908315150217905550600281908060018154018082558091505060019003905f5260205f20015f9091909190916101000a81548173ffffffffffffffffffffffffffffffffffffffff021916908373ffffffffffffffffffffffffffffffffffffffff1602179055507f6e4e2a7c0e1576d48aeabd633d094f622d4f046286fec8b9045dd7f5c9fb087d81604051610e9491906135f1565b60405180910390a150565b60045f3373ffffffffffffffffffffffffffffffffffffffff1673ffffffffffffffffffffffffffffffffffffffff1681526020019081526020015f205f9054906101000a900460ff16610f1f576040517feea91ff800000000000000000000000000000000000000000000000000000000815260040160405180910390fd5b60075f8281526020019081526020015f205f9054906101000a900460ff16610f73576040517fccc85ba300000000000000000000000000000000000000000000000000000000815260040160405180910390fd5b5f60055f8381526020019081526020015f209050806006015f9054906101000a900460ff1615610fcf576040517f2ea945cf00000000000000000000000000000000000000000000000000000000815260040160405180910390fd5b4281600301541161100c576040517f7bf7efba00000000000000000000000000000000000000000000000000000000815260040160405180910390fd5b60075f8381526020019081526020015f205f6101000a81549060ff021916905560055f8381526020019081526020015f205f5f82015f6101000a81549073ffffffffffffffffffffffffffffffffffffffff0219169055600182015f6110729190612a1a565b600282015f9055600382015f9055600482015f9055600582015f9055600682015f6101000a81549060ff0219169055600782015f905550507fbaa1eb22f2a492ba1a5fea61b8df4d27c6c8b5f3971e63bb58fa14ff72eedb70826040516110d99190612d4c565b60405180910390a15050565b60045f3373ffffffffffffffffffffffffffffffffffffffff1673ffffffffffffffffffffffffffffffffffffffff1681526020019081526020015f205f9054906101000a900460ff16611165576040517feea91ff800000000000000000000000000000000000000000000000000000000815260040160405180910390fd5b60075f8281526020019081526020015f205f9054906101000a900460ff166111b9576040517fccc85ba300000000000000000000000000000000000000000000000000000000815260040160405180910390fd5b60065f8281526020019081526020015f205f3373ffffffffffffffffffffffffffffffffffffffff1673ffffffffffffffffffffffffffffffffffffffff1681526020019081526020015f205f9054906101000a900460ff1615611249576040517fd56f70a200000000000000000000000000000000000000000000000000000000815260040160405180910390fd5b5f60055f8381526020019081526020015f209050806006015f9054906101000a900460ff16156112a5576040517f2ea945cf00000000000000000000000000000000000000000000000000000000815260040160405180910390fd5b806005015f8154809291906112b99061360a565b9190505550600160065f8481526020019081526020015f205f3373ffffffffffffffffffffffffffffffffffffffff1673ffffffffffffffffffffffffffffffffffffffff1681526020019081526020015f205f6101000a81548160ff0219169083151502179055507fd4964a7cd99f5c1fa8f2420fb5e1d3bd26eadf16e2658cf2e29a67dfda38601e8233604051611353929190613651565b60405180910390a15050565b60045f3373ffffffffffffffffffffffffffffffffffffffff1673ffffffffffffffffffffffffffffffffffffffff1681526020019081526020015f205f9054906101000a900460ff166113df576040517feea91ff800000000000000000000000000000000000000000000000000000000815260040160405180910390fd5b60075f8281526020019081526020015f205f9054906101000a900460ff16611433576040517fccc85ba300000000000000000000000000000000000000000000000000000000815260040160405180910390fd5b60065f8281526020019081526020015f205f3373ffffffffffffffffffffffffffffffffffffffff1673ffffffffffffffffffffffffffffffffffffffff1681526020019081526020015f205f9054906101000a900460ff166114c2576040517fa0ba4b7900000000000000000000000000000000000000000000000000000000815260040160405180910390fd5b5f60055f8381526020019081526020015f209050806006015f9054906101000a900460ff161561151e576040517f2ea945cf00000000000000000000000000000000000000000000000000000000815260040160405180910390fd5b806005015f81548092919061153290613678565b91905055505f60065f8481526020019081526020015f205f3373ffffffffffffffffffffffffffffffffffffffff1673ffffffffffffffffffffffffffffffffffffffff1681526020019081526020015f205f6101000a81548160ff0219169083151502179055507f07ab0f77763f4250cde8c1c31e6012e4717676cf8746713b68ea2c6ea72753ee82336040516115cb929190613651565b60405180910390a15050565b6060600280548060200260200160405190810160405280929190818152602001828054801561165857602002820191905f5260205f20905b815f9054906101000a900473ffffffffffffffffffffffffffffffffffffffff1673ffffffffffffffffffffffffffffffffffffffff168152602001906001019080831161160f575b5050505050905090565b6040518060400160405280600581526020017f352e302e3000000000000000000000000000000000000000000000000000000081525081565b6116a36125f2565b60075f8281526020019081526020015f205f9054906101000a900460ff166116f7576040517fccc85ba300000000000000000000000000000000000000000000000000000000815260040160405180910390fd5b5f60055f8381526020019081526020015f209050806006015f9054906101000a900460ff1615611753576040517f2ea945cf00000000000000000000000000000000000000000000000000000000815260040160405180910390fd5b8060030154421015611791576040517f085de62500000000000000000000000000000000000000000000000000000000815260040160405180910390fd5b806004015481600301546117a59190613205565b4211156117de576040517fd5498e8f00000000000000000000000000000000000000000000000000000000815260040160405180910390fd5b5f548160050154101561181d576040517f24bcdbea00000000000000000000000000000000000000000000000000000000815260040160405180910390fd5b5f815f015f9054906101000a900473ffffffffffffffffffffffffffffffffffffffff1690505f82600101805461185390613343565b80601f016020809104026020016040519081016040528092919081815260200182805461187f90613343565b80156118ca5780601f106118a1576101008083540402835291602001916118ca565b820191905f5260205f20905b8154815290600101906020018083116118ad57829003601f168201915b505050505090505f83600201549050846003819055505f5f8473ffffffffffffffffffffffffffffffffffffffff16838560405161190891906136cf565b5f6040518083038185875af1925050503d805f8114611942576040519150601f19603f3d011682016040523d82523d5f602084013e611947565b606091505b50915091508161198c575f5f1b6003819055506040517f3204506f00000000000000000000000000000000000000000000000000000000815260040160405180910390fd5b6001866006015f6101000a81548160ff0219169083151502179055505f5f1b60038190555060075f8881526020019081526020015f205f6101000a81549060ff021916905560055f8881526020019081526020015f205f5f82015f6101000a81549073ffffffffffffffffffffffffffffffffffffffff0219169055600182015f611a179190612a1a565b600282015f9055600382015f9055600482015f9055600582015f9055600682015f6101000a81549060ff0219169055600782015f905550507fa74c8847d513feba22a0f0cb38d53081abf97562cdb293926ba243689e7c41ca87604051611a7e9190612d4c565b60405180910390a1505050505050611a94612614565b50565b611a9f610519565b3073ffffffffffffffffffffffffffffffffffffffff163373ffffffffffffffffffffffffffffffffffffffff1614611b04576040517fd761560c00000000000000000000000000000000000000000000000000000000815260040160405180910390fd5b60045f8273ffffffffffffffffffffffffffffffffffffffff1673ffffffffffffffffffffffffffffffffffffffff1681526020019081526020015f205f9054906101000a900460ff16611b84576040517fd6b259ab00000000000000000000000000000000000000000000000000000000815260040160405180910390fd5b5f5460028054905011611bc3576040517f22eb64cf00000000000000000000000000000000000000000000000000000000815260040160405180910390fd5b5f5f90505b600280549050811015611dc1578173ffffffffffffffffffffffffffffffffffffffff1660028281548110611c0057611bff6136e5565b5b905f5260205f20015f9054906101000a900473ffffffffffffffffffffffffffffffffffffffff1673ffffffffffffffffffffffffffffffffffffffff1603611db65760026001600280549050611c579190613712565b81548110611c6857611c676136e5565b5b905f5260205f20015f9054906101000a900473ffffffffffffffffffffffffffffffffffffffff1660028281548110611ca457611ca36136e5565b5b905f5260205f20015f6101000a81548173ffffffffffffffffffffffffffffffffffffffff021916908373ffffffffffffffffffffffffffffffffffffffff1602179055506002805480611cfb57611cfa613745565b5b600190038181905f5260205f20015f6101000a81549073ffffffffffffffffffffffffffffffffffffffff0219169055905560045f8373ffffffffffffffffffffffffffffffffffffffff1673ffffffffffffffffffffffffffffffffffffffff1681526020019081526020015f205f6101000a81549060ff02191690557febfcf264b2104087f09153632448fc6624ccfe2984ade6a26248f2b9c28e436a82604051611da891906135f1565b60405180910390a150611df4565b806001019050611bc8565b506040517fae4575cd00000000000000000000000000000000000000000000000000000000815260040160405180910390fd5b50565b5f600280549050905090565b611e0b610519565b3073ffffffffffffffffffffffffffffffffffffffff163373ffffffffffffffffffffffffffffffffffffffff1614611e70576040517fd761560c00000000000000000000000000000000000000000000000000000000815260040160405180910390fd5b5f73ffffffffffffffffffffffffffffffffffffffff168273ffffffffffffffffffffffffffffffffffffffff1603611ed5576040517fa8aa10d400000000000000000000000000000000000000000000000000000000815260040160405180910390fd5b60045f8373ffffffffffffffffffffffffffffffffffffffff1673ffffffffffffffffffffffffffffffffffffffff1681526020019081526020015f205f9054906101000a900460ff1615611f56576040517f2e5abc1600000000000000000000000000000000000000000000000000000000815260040160405180910390fd5b60045f8273ffffffffffffffffffffffffffffffffffffffff1673ffffffffffffffffffffffffffffffffffffffff1681526020019081526020015f205f9054906101000a900460ff16611fd6576040517fd6b259ab00000000000000000000000000000000000000000000000000000000815260040160405180910390fd5b8073ffffffffffffffffffffffffffffffffffffffff168273ffffffffffffffffffffffffffffffffffffffff160361203b576040517f2e3ee00900000000000000000000000000000000000000000000000000000000815260040160405180910390fd5b600160045f8473ffffffffffffffffffffffffffffffffffffffff1673ffffffffffffffffffffffffffffffffffffffff1681526020019081526020015f205f6101000a81548160ff021916908315150217905550600282908060018154018082558091505060019003905f5260205f20015f9091909190916101000a81548173ffffffffffffffffffffffffffffffffffffffff021916908373ffffffffffffffffffffffffffffffffffffffff1602179055507f6e4e2a7c0e1576d48aeabd633d094f622d4f046286fec8b9045dd7f5c9fb087d8260405161211f91906135f1565b60405180910390a15f5f90505b600280549050811015612325578173ffffffffffffffffffffffffffffffffffffffff1660028281548110612164576121636136e5565b5b905f5260205f20015f9054906101000a900473ffffffffffffffffffffffffffffffffffffffff1673ffffffffffffffffffffffffffffffffffffffff160361231a57600260016002805490506121bb9190613712565b815481106121cc576121cb6136e5565b5b905f5260205f20015f9054906101000a900473ffffffffffffffffffffffffffffffffffffffff1660028281548110612208576122076136e5565b5b905f5260205f20015f6101000a81548173ffffffffffffffffffffffffffffffffffffffff021916908373ffffffffffffffffffffffffffffffffffffffff160217905550600280548061225f5761225e613745565b5b600190038181905f5260205f20015f6101000a81549073ffffffffffffffffffffffffffffffffffffffff0219169055905560045f8373ffffffffffffffffffffffffffffffffffffffff1673ffffffffffffffffffffffffffffffffffffffff1681526020019081526020015f205f6101000a81549060ff02191690557febfcf264b2104087f09153632448fc6624ccfe2984ade6a26248f2b9c28e436a8260405161230c91906135f1565b60405180910390a150612358565b80600101905061212c565b506040517fae4575cd00000000000000000000000000000000000000000000000000000000815260040160405180910390fd5b5050565b7f000000000000000000000000000000000000000000000000000000000000000073ffffffffffffffffffffffffffffffffffffffff163073ffffffffffffffffffffffffffffffffffffffff16148061240957507f000000000000000000000000000000000000000000000000000000000000000073ffffffffffffffffffffffffffffffffffffffff166123f061262e565b73ffffffffffffffffffffffffffffffffffffffff1614155b15612440576040517fe07c8dba00000000000000000000000000000000000000000000000000000000815260040160405180910390fd5b565b61244a610519565b50565b8173ffffffffffffffffffffffffffffffffffffffff166352d1902d6040518163ffffffff1660e01b8152600401602060405180830381865afa9250505080156124b557506040513d601f19601f820116820180604052508101906124b29190613786565b60015b6124f657816040517f4c9c8ce30000000000000000000000000000000000000000000000000000000081526004016124ed91906135f1565b60405180910390fd5b7f360894a13ba1a3210667c828492db98dca3e2076cc3735a920a3ca505d382bbc5f1b811461255c57806040517faa1d49a40000000000000000000000000000000000000000000000000000000081526004016125539190612d4c565b60405180910390fd5b6125668383612681565b505050565b7f000000000000000000000000000000000000000000000000000000000000000073ffffffffffffffffffffffffffffffffffffffff163073ffffffffffffffffffffffffffffffffffffffff16146125f0576040517fe07c8dba00000000000000000000000000000000000000000000000000000000815260040160405180910390fd5b565b6125fa6126f3565b600261260c612607612734565b61275d565b5f0181905550565b6001612626612621612734565b61275d565b5f0181905550565b5f61265a7f360894a13ba1a3210667c828492db98dca3e2076cc3735a920a3ca505d382bbc5f1b612766565b5f015f9054906101000a900473ffffffffffffffffffffffffffffffffffffffff16905090565b61268a8261276f565b8173ffffffffffffffffffffffffffffffffffffffff167fbc7cd75a20ee27fd9adebab32041f755214dbc6bffa90cc0225b39da2e5c2d3b60405160405180910390a25f815111156126e6576126e08282612838565b506126ef565b6126ee612929565b5b5050565b6126fb612965565b15612732576040517f3ee5aeb500000000000000000000000000000000000000000000000000000000815260040160405180910390fd5b565b5f7f9b779b17422d0df92223018b32b4d1fa46e071723d6817e2486d003becc55f005f1b905090565b5f819050919050565b5f819050919050565b5f8173ffffffffffffffffffffffffffffffffffffffff163b036127ca57806040517f4c9c8ce30000000000000000000000000000000000000000000000000000000081526004016127c191906135f1565b60405180910390fd5b806127f67f360894a13ba1a3210667c828492db98dca3e2076cc3735a920a3ca505d382bbc5f1b612766565b5f015f6101000a81548173ffffffffffffffffffffffffffffffffffffffff021916908373ffffffffffffffffffffffffffffffffffffffff16021790555050565b60605f6128458484612981565b905080801561287b57505f612858612995565b118061287a57505f8473ffffffffffffffffffffffffffffffffffffffff163b115b5b156128905761288861299c565b915050612923565b80156128d357836040517f9996b3150000000000000000000000000000000000000000000000000000000081526004016128ca91906135f1565b60405180910390fd5b5f6128dc612995565b11156128ef576128ea6129b9565b612921565b6040517fd6bda27500000000000000000000000000000000000000000000000000000000815260040160405180910390fd5b505b92915050565b5f341115612963576040517fb398979f00000000000000000000000000000000000000000000000000000000815260040160405180910390fd5b565b5f6002612978612973612734565b61275d565b5f015414905090565b5f5f5f835160208501865af4905092915050565b5f3d905090565b606060405190503d81523d5f602083013e3d602001810160405290565b6040513d5f823e3d81fd5b6040518061010001604052805f73ffffffffffffffffffffffffffffffffffffffff168152602001606081526020015f81526020015f81526020015f81526020015f81526020015f151581526020015f81525090565b508054612a2690613343565b5f825580601f10612a375750612a54565b601f0160209004905f5260205f2090810190612a539190612a57565b5b50565b5b80821115612a6e575f815f905550600101612a58565b5090565b5f819050919050565b612a8481612a72565b82525050565b5f602082019050612a9d5f830184612a7b565b92915050565b5f604051905090565b5f5ffd5b5f5ffd5b5f819050919050565b612ac681612ab4565b8114612ad0575f5ffd5b50565b5f81359050612ae181612abd565b92915050565b5f60208284031215612afc57612afb612aac565b5b5f612b0984828501612ad3565b91505092915050565b5f8115159050919050565b612b2681612b12565b82525050565b5f602082019050612b3f5f830184612b1d565b92915050565b5f73ffffffffffffffffffffffffffffffffffffffff82169050919050565b5f612b6e82612b45565b9050919050565b612b7e81612b64565b8114612b88575f5ffd5b50565b5f81359050612b9981612b75565b92915050565b5f5f60408385031215612bb557612bb4612aac565b5b5f612bc285828601612ad3565b9250506020612bd385828601612b8b565b9150509250929050565b5f60208284031215612bf257612bf1612aac565b5b5f612bff84828501612b8b565b91505092915050565b5f5ffd5b5f5ffd5b5f5ffd5b5f5f83601f840112612c2957612c28612c08565b5b8235905067ffffffffffffffff811115612c4657612c45612c0c565b5b602083019150836001820283011115612c6257612c61612c10565b5b9250929050565b612c7281612a72565b8114612c7c575f5ffd5b50565b5f81359050612c8d81612c69565b92915050565b5f5f5f5f5f5f5f60c0888a031215612cae57612cad612aac565b5b5f612cbb8a828b01612b8b565b975050602088013567ffffffffffffffff811115612cdc57612cdb612ab0565b5b612ce88a828b01612c14565b96509650506040612cfb8a828b01612c7f565b9450506060612d0c8a828b01612c7f565b9350506080612d1d8a828b01612c7f565b92505060a0612d2e8a828b01612ad3565b91505092959891949750929550565b612d4681612ab4565b82525050565b5f602082019050612d5f5f830184612d3d565b92915050565b612d6e81612b64565b82525050565b5f81519050919050565b5f82825260208201905092915050565b8281835e5f83830152505050565b5f601f19601f8301169050919050565b5f612db682612d74565b612dc08185612d7e565b9350612dd0818560208601612d8e565b612dd981612d9c565b840191505092915050565b612ded81612a72565b82525050565b612dfc81612b12565b82525050565b612e0b81612ab4565b82525050565b5f61010083015f830151612e275f860182612d65565b5060208301518482036020860152612e3f8282612dac565b9150506040830151612e546040860182612de4565b506060830151612e676060860182612de4565b506080830151612e7a6080860182612de4565b5060a0830151612e8d60a0860182612de4565b5060c0830151612ea060c0860182612df3565b5060e0830151612eb360e0860182612e02565b508091505092915050565b5f6020820190508181035f830152612ed68184612e11565b905092915050565b5f5ffd5b7f4e487b71000000000000000000000000000000000000000000000000000000005f52604160045260245ffd5b612f1882612d9c565b810181811067ffffffffffffffff82111715612f3757612f36612ee2565b5b80604052505050565b5f612f49612aa3565b9050612f558282612f0f565b919050565b5f67ffffffffffffffff821115612f7457612f73612ee2565b5b612f7d82612d9c565b9050602081019050919050565b828183375f83830152505050565b5f612faa612fa584612f5a565b612f40565b905082815260208101848484011115612fc657612fc5612ede565b5b612fd1848285612f8a565b509392505050565b5f82601f830112612fed57612fec612c08565b5b8135612ffd848260208601612f98565b91505092915050565b5f5f6040838503121561301c5761301b612aac565b5b5f61302985828601612b8b565b925050602083013567ffffffffffffffff81111561304a57613049612ab0565b5b61305685828601612fd9565b9150509250929050565b5f81519050919050565b5f82825260208201905092915050565b5f819050602082019050919050565b5f6130948383612d65565b60208301905092915050565b5f602082019050919050565b5f6130b682613060565b6130c0818561306a565b93506130cb8361307a565b805f5b838110156130fb5781516130e28882613089565b97506130ed836130a0565b9250506001810190506130ce565b5085935050505092915050565b5f6020820190508181035f83015261312081846130ac565b905092915050565b5f81519050919050565b5f82825260208201905092915050565b5f61314c82613128565b6131568185613132565b9350613166818560208601612d8e565b61316f81612d9c565b840191505092915050565b5f6020820190508181035f8301526131928184613142565b905092915050565b5f5f604083850312156131b0576131af612aac565b5b5f6131bd85828601612b8b565b92505060206131ce85828601612b8b565b9150509250929050565b7f4e487b71000000000000000000000000000000000000000000000000000000005f52601160045260245ffd5b5f61320f82612a72565b915061321a83612a72565b9250828201905080821115613232576132316131d8565b5b92915050565b5f8160601b9050919050565b5f61324e82613238565b9050919050565b5f61325f82613244565b9050919050565b61327761327282612b64565b613255565b82525050565b5f81905092915050565b5f613292838561327d565b935061329f838584612f8a565b82840190509392505050565b5f819050919050565b6132c56132c082612a72565b6132ab565b82525050565b5f6132d68288613266565b6014820191506132e7828688613287565b91506132f382856132b4565b60208201915061330382846132b4565b6020820191508190509695505050505050565b7f4e487b71000000000000000000000000000000000000000000000000000000005f52602260045260245ffd5b5f600282049050600182168061335a57607f821691505b60208210810361336d5761336c613316565b5b50919050565b5f819050815f5260205f209050919050565b5f6020601f8301049050919050565b5f82821b905092915050565b5f600883026133cf7fffffffffffffffffffffffffffffffffffffffffffffffffffffffffffffffff82613394565b6133d98683613394565b95508019841693508086168417925050509392505050565b5f819050919050565b5f61341461340f61340a84612a72565b6133f1565b612a72565b9050919050565b5f819050919050565b61342d836133fa565b6134416134398261341b565b8484546133a0565b825550505050565b5f5f905090565b613458613449565b613463818484613424565b505050565b5b818110156134865761347b5f82613450565b600181019050613469565b5050565b601f8211156134cb5761349c81613373565b6134a584613385565b810160208510156134b4578190505b6134c86134c085613385565b830182613468565b50505b505050565b5f82821c905092915050565b5f6134eb5f19846008026134d0565b1980831691505092915050565b5f61350383836134dc565b9150826002028217905092915050565b61351c82612d74565b67ffffffffffffffff81111561353557613534612ee2565b5b61353f8254613343565b61354a82828561348a565b5f60209050601f83116001811461357b575f8415613569578287015190505b61357385826134f8565b8655506135da565b601f19841661358986613373565b5f5b828110156135b05784890151825560018201915060208501945060208101905061358b565b868310156135cd57848901516135c9601f8916826134dc565b8355505b6001600288020188555050505b505050505050565b6135eb81612b64565b82525050565b5f6020820190506136045f8301846135e2565b92915050565b5f61361482612a72565b91507fffffffffffffffffffffffffffffffffffffffffffffffffffffffffffffffff8203613646576136456131d8565b5b600182019050919050565b5f6040820190506136645f830185612d3d565b61367160208301846135e2565b9392505050565b5f61368282612a72565b91505f8203613694576136936131d8565b5b600182039050919050565b5f6136a982612d74565b6136b3818561327d565b93506136c3818560208601612d8e565b80840191505092915050565b5f6136da828461369f565b915081905092915050565b7f4e487b71000000000000000000000000000000000000000000000000000000005f52603260045260245ffd5b5f61371c82612a72565b915061372783612a72565b925082820390508181111561373f5761373e6131d8565b5b92915050565b7f4e487b71000000000000000000000000000000000000000000000000000000005f52603160045260245ffd5b5f8151905061378081612abd565b92915050565b5f6020828403121561379b5761379a612aac565b5b5f6137a884828501613772565b9150509291505056fea2646970667358221220fb0a4e1cea5688dffe3546c54455b579af457b68f272d9847fa582f5adf0c51664736f6c634300081e0033","linkReferences":{}},"methodIdentifiers":{"UPGRADE_INTERFACE_VERSION()":"ad3cb1cc","addOwner(address)":"7065cb48","addToQueue(address,bytes,uint256,uint256,uint256,bytes32)":"41e0f716","cancelConfirmation(bytes32)":"9ac1636b","cancelTransaction(bytes32)":"70ba3339","confirm(bytes32)":"797af627","deleteOwner(address)":"cd5c4c70","executeTransaction(bytes32)":"c69ed5f2","getMaxDelay()":"0d359e90","getMinApprovals()":"4d3e2490","getOwnerCount()":"ef18374a","getOwners()":"a0e67e2b","getTransactions(bytes32)":"42bd28e8","hasApproved(bytes32,address)":"23cdc3f1","isOwner(address)":"2f54bf6e","isQueued(bytes32)":"0dc051f8","proxiableUUID()":"52d1902d","swapOwner(address,address)":"f35ba340","upgradeToAndCall(address,bytes)":"4f1ef286","verifyCurrentTransaction()":"2bb02d4e"},"id":69}