{"abi":[{"type":"function","name":"requestId","inputs":[],"outputs":[{"name":"","type":"uint256","internalType":"uint256"}],"stateMutability":"view"},{"type":"function","name":"requestRandomness","inputs":[{"name":"tokenId","type":"uint256","internalType":"uint256"}],"outputs":[{"name":"","type":"uint256","internalType":"uint256"}],"stateMutability":"nonpayable"}],"bytecode":{"object":"0x608060405260015f553480156012575f5ffd5b5061026b806100205f395ff3fe608060405234801561000f575f5ffd5b5060043610610033575f3560e01c80626d6cae146100375780637363ae1f14610055575b5f5ffd5b61003f610085565b60405161004c91906100f3565b60405180910390f35b61006f600480360381019061006a919061013a565b61008a565b60405161007c91906100f3565b60405180910390f35b5f5481565b5f5f425f54846040516020016100a293929190610185565b604051602081830303815290604052805190602001205f1c90505f5f8154809291906100cd906101ee565b919050555080915050919050565b5f819050919050565b6100ed816100db565b82525050565b5f6020820190506101065f8301846100e4565b92915050565b5f5ffd5b610119816100db565b8114610123575f5ffd5b50565b5f8135905061013481610110565b92915050565b5f6020828403121561014f5761014e61010c565b5b5f61015c84828501610126565b91505092915050565b5f819050919050565b61017f61017a826100db565b610165565b82525050565b5f610190828661016e565b6020820191506101a0828561016e565b6020820191506101b0828461016e565b602082019150819050949350505050565b7f4e487b71000000000000000000000000000000000000000000000000000000005f52601160045260245ffd5b5f6101f8826100db565b91507fffffffffffffffffffffffffffffffffffffffffffffffffffffffffffffffff820361022a576102296101c1565b5b60018201905091905056fea2646970667358221220bc2857160119dd99bc2a1710ca0811f1809c9698fc41b987eff3b345b7fc495d64736f6c634300081e0033","linkReferences":{}},"methodIdentifiers":{"requestId()":"006d6cae","requestRandomness(uint256)":"7363ae1f"},"id":77}