{"abi":[{"type":"function","name":"verifyCurrentTransaction","inputs":[],"outputs":[],"stateMutability":"pure"}],"bytecode":{"object":"0x6080604052348015600e575f5ffd5b50606a80601a5f395ff3fe6080604052348015600e575f5ffd5b50600436106026575f3560e01c80632bb02d4e14602a575b5f5ffd5b60306032565b005b56fea2646970667358221220c13e1170fd459960a318d2dc639a8ca82f75f7fd5484cb8ea8bd4eb92bb45c5a64736f6c634300081e0033","linkReferences":{}},"methodIdentifiers":{"verifyCurrentTransaction()":"2bb02d4e"},"id":77}