{"abi":[{"type":"function","name":"_implementation","inputs":[],"outputs":[{"name":"","type":"address","internalType":"address"}],"stateMutability":"view"},{"type":"function","name":"implementation","inputs":[],"outputs":[{"name":"","type":"address","internalType":"address"}],"stateMutability":"view"},{"type":"function","name":"upgradeTo","inputs":[{"name":"newImplementation","type":"address","internalType":"address"}],"outputs":[],"stateMutability":"nonpayable"}],"bytecode":{"object":"0x6080604052348015600e575f5ffd5b5061020f8061001c5f395ff3fe608060405234801561000f575f5ffd5b506004361061003f575f3560e01c80633659cfe61461004357806359679b0f1461005f5780635c60da1b1461007d575b5f5ffd5b61005d60048036038101906100589190610186565b61009b565b005b6100676100dd565b60405161007491906101c0565b60405180910390f35b610085610101565b60405161009291906101c0565b60405180910390f35b805f5f6101000a81548173ffffffffffffffffffffffffffffffffffffffff021916908373ffffffffffffffffffffffffffffffffffffffff16021790555050565b5f5f9054906101000a900473ffffffffffffffffffffffffffffffffffffffff1681565b5f5f5f9054906101000a900473ffffffffffffffffffffffffffffffffffffffff16905090565b5f5ffd5b5f73ffffffffffffffffffffffffffffffffffffffff82169050919050565b5f6101558261012c565b9050919050565b6101658161014b565b811461016f575f5ffd5b50565b5f813590506101808161015c565b92915050565b5f6020828403121561019b5761019a610128565b5b5f6101a884828501610172565b91505092915050565b6101ba8161014b565b82525050565b5f6020820190506101d35f8301846101b1565b9291505056fea26469706673582212209694a741c724e67156851cb2b61703ba6d582d25f42ae8c18b93aa2c1923136164736f6c634300081e0033","linkReferences":{}},"methodIdentifiers":{"_implementation()":"59679b0f","implementation()":"5c60da1b","upgradeTo(address)":"3659cfe6"},"id":77}