{"abi":[{"type":"constructor","inputs":[{"name":"implementation_","type":"address","internalType":"address"},{"name":"multisigTimelock","type":"address","internalType":"address"}],"stateMutability":"nonpayable"},{"type":"function","name":"getMultisigTimelock","inputs":[],"outputs":[{"name":"","type":"address","internalType":"address"}],"stateMutability":"view"},{"type":"function","name":"implementation","inputs":[],"outputs":[{"name":"","type":"address","internalType":"address"}],"stateMutability":"view"},{"type":"function","name":"setMultisigTimelock","inputs":[{"name":"newMultisigTimelock","type":"address","internalType":"address"}],"outputs":[],"stateMutability":"nonpayable"},{"type":"function","name":"upgradeTo","inputs":[{"name":"newImplementation","type":"address","internalType":"address"}],"outputs":[],"stateMutability":"nonpayable"},{"type":"event","name":"MultisigTimelockSet","inputs":[{"name":"multisigTimelock","type":"address","indexed":true,"internalType":"address"}],"anonymous":false},{"type":"event","name":"Upgraded","inputs":[{"name":"implementation","type":"address","indexed":true,"internalType":"address"}],"anonymous":false},{"type":"error","name":"BeaconInvalidImplementation","inputs":[{"name":"implementation","type":"address","internalType":"address"}]},{"type":"error","name":"MultisigTimelockInvalidImplementation","inputs":[{"name":"newMultisigTimelock","type":"address","internalType":"address"}]},{"type":"error","name":"NotMultisigTimelock","inputs":[]},{"type":"error","name":"ZeroAddress","inputs":[]}],"bytecode":{"object":"0x608060405234801561000f575f5ffd5b5060405161092e38038061092e8339818101604052810190610031919061023a565b5f73ffffffffffffffffffffffffffffffffffffffff168273ffffffffffffffffffffffffffffffffffffffff1603610096576040517fd92e233d00000000000000000000000000000000000000000000000000000000815260040160405180910390fd5b5f73ffffffffffffffffffffffffffffffffffffffff168173ffffffffffffffffffffffffffffffffffffffff16036100fb576040517fd92e233d00000000000000000000000000000000000000000000000000000000815260040160405180910390fd5b5f8273ffffffffffffffffffffffffffffffffffffffff163b0361015657816040517f847ac56400000000000000000000000000000000000000000000000000000000815260040161014d9190610287565b60405180910390fd5b8160015f6101000a81548173ffffffffffffffffffffffffffffffffffffffff021916908373ffffffffffffffffffffffffffffffffffffffff160217905550805f5f6101000a81548173ffffffffffffffffffffffffffffffffffffffff021916908373ffffffffffffffffffffffffffffffffffffffff16021790555050506102a0565b5f5ffd5b5f73ffffffffffffffffffffffffffffffffffffffff82169050919050565b5f610209826101e0565b9050919050565b610219816101ff565b8114610223575f5ffd5b50565b5f8151905061023481610210565b92915050565b5f5f604083850312156102505761024f6101dc565b5b5f61025d85828601610226565b925050602061026e85828601610226565b9150509250929050565b610281816101ff565b82525050565b5f60208201905061029a5f830184610278565b92915050565b610681806102ad5f395ff3fe608060405234801561000f575f5ffd5b506004361061004a575f3560e01c806312513b281461004e5780633659cfe61461006c5780635c60da1b1461008857806374bbc800146100a6575b5f5ffd5b6100566100c2565b60405161006391906105d9565b60405180910390f35b61008660048036038101906100819190610620565b6100e9565b005b61009061032e565b60405161009d91906105d9565b60405180910390f35b6100c060048036038101906100bb9190610620565b610356565b005b5f5f5f9054906101000a900473ffffffffffffffffffffffffffffffffffffffff16905090565b5f5f9054906101000a900473ffffffffffffffffffffffffffffffffffffffff1673ffffffffffffffffffffffffffffffffffffffff163373ffffffffffffffffffffffffffffffffffffffff161461016e576040517f14bf3b4b00000000000000000000000000000000000000000000000000000000815260040160405180910390fd5b5f5f9054906101000a900473ffffffffffffffffffffffffffffffffffffffff1673ffffffffffffffffffffffffffffffffffffffff16632bb02d4e6040518163ffffffff1660e01b81526004015f6040518083038186803b1580156101d2575f5ffd5b505afa1580156101e4573d5f5f3e3d5ffd5b505050505f8173ffffffffffffffffffffffffffffffffffffffff163b0361024357806040517f847ac56400000000000000000000000000000000000000000000000000000000815260040161023a91906105d9565b60405180910390fd5b5f73ffffffffffffffffffffffffffffffffffffffff168173ffffffffffffffffffffffffffffffffffffffff16036102a8576040517fd92e233d00000000000000000000000000000000000000000000000000000000815260040160405180910390fd5b8060015f6101000a81548173ffffffffffffffffffffffffffffffffffffffff021916908373ffffffffffffffffffffffffffffffffffffffff1602179055508073ffffffffffffffffffffffffffffffffffffffff167fbc7cd75a20ee27fd9adebab32041f755214dbc6bffa90cc0225b39da2e5c2d3b60405160405180910390a250565b5f60015f9054906101000a900473ffffffffffffffffffffffffffffffffffffffff16905090565b5f5f9054906101000a900473ffffffffffffffffffffffffffffffffffffffff1673ffffffffffffffffffffffffffffffffffffffff163373ffffffffffffffffffffffffffffffffffffffff16146103db576040517f14bf3b4b00000000000000000000000000000000000000000000000000000000815260040160405180910390fd5b5f5f9054906101000a900473ffffffffffffffffffffffffffffffffffffffff1673ffffffffffffffffffffffffffffffffffffffff16632bb02d4e6040518163ffffffff1660e01b81526004015f6040518083038186803b15801561043f575f5ffd5b505afa158015610451573d5f5f3e3d5ffd5b505050505f8173ffffffffffffffffffffffffffffffffffffffff163b036104b057806040517fdc4aa48c0000000000000000000000000000000000000000000000000000000081526004016104a791906105d9565b60405180910390fd5b5f73ffffffffffffffffffffffffffffffffffffffff168173ffffffffffffffffffffffffffffffffffffffff1603610515576040517fd92e233d00000000000000000000000000000000000000000000000000000000815260040160405180910390fd5b805f5f6101000a81548173ffffffffffffffffffffffffffffffffffffffff021916908373ffffffffffffffffffffffffffffffffffffffff1602179055508073ffffffffffffffffffffffffffffffffffffffff167fecde0373f2b001afaaea70a27b1af7076d9a65e2fb8f0fb376df15c480dab27160405160405180910390a250565b5f73ffffffffffffffffffffffffffffffffffffffff82169050919050565b5f6105c38261059a565b9050919050565b6105d3816105b9565b82525050565b5f6020820190506105ec5f8301846105ca565b92915050565b5f5ffd5b6105ff816105b9565b8114610609575f5ffd5b50565b5f8135905061061a816105f6565b92915050565b5f60208284031215610635576106346105f2565b5b5f6106428482850161060c565b9150509291505056fea26469706673582212209e526488c98ee4814ebe655b2964b4083ebc77f76802c50305036a82fb58401464736f6c634300081e0033","linkReferences":{}},"methodIdentifiers":{"getMultisigTimelock()":"12513b28","implementation()":"5c60da1b","setMultisigTimelock(address)":"74bbc800","upgradeTo(address)":"3659cfe6"},"id":66}