{"abi":[{"type":"constructor","inputs":[],"stateMutability":"nonpayable"},{"type":"function","name":"UPGRADE_INTERFACE_VERSION","inputs":[],"outputs":[{"name":"","type":"string","internalType":"string"}],"stateMutability":"view"},{"type":"function","name":"approve","inputs":[{"name":"to","type":"address","internalType":"address"},{"name":"tokenId","type":"uint256","internalType":"uint256"}],"outputs":[],"stateMutability":"nonpayable"},{"type":"function","name":"balanceOf","inputs":[{"name":"owner","type":"address","internalType":"address"}],"outputs":[{"name":"","type":"uint256","internalType":"uint256"}],"stateMutability":"view"},{"type":"function","name":"batchMintSupply","inputs":[],"outputs":[{"name":"","type":"uint256","internalType":"uint256"}],"stateMutability":"view"},{"type":"function","name":"delayedReveal","inputs":[{"name":"tokenId","type":"uint256","internalType":"uint256"}],"outputs":[],"stateMutability":"nonpayable"},{"type":"function","name":"getApproved","inputs":[{"name":"tokenId","type":"uint256","internalType":"uint256"}],"outputs":[{"name":"","type":"address","internalType":"address"}],"stateMutability":"view"},{"type":"function","name":"getDefaultRoyaltyReceiver","inputs":[],"outputs":[{"name":"","type":"address","internalType":"address"}],"stateMutability":"view"},{"type":"function","name":"getNextTokenId","inputs":[],"outputs":[{"name":"","type":"uint256","internalType":"uint256"}],"stateMutability":"view"},{"type":"function","name":"getRevealedCount","inputs":[],"outputs":[{"name":"","type":"uint256","internalType":"uint256"}],"stateMutability":"view"},{"type":"function","name":"getRevealedTraitIndex","inputs":[{"name":"tokenId","type":"uint256","internalType":"uint256"}],"outputs":[{"name":"","type":"uint256","internalType":"uint256"}],"stateMutability":"view"},{"type":"function","name":"getRoyaltyByTokenId","inputs":[{"name":"tokenId","type":"uint256","internalType":"uint256"},{"name":"salePrice","type":"uint256","internalType":"uint256"}],"outputs":[{"name":"royaltyAmount","type":"uint256","internalType":"uint256"},{"name":"royaltyReceiver","type":"address","internalType":"address"}],"stateMutability":"view"},{"type":"function","name":"getSupply","inputs":[],"outputs":[{"name":"","type":"uint256","internalType":"uint256"}],"stateMutability":"view"},{"type":"function","name":"getVRFAdapter","inputs":[],"outputs":[{"name":"","type":"address","internalType":"address"}],"stateMutability":"view"},{"type":"function","name":"initialize","inputs":[{"name":"config","type":"tuple","internalType":"struct ERC721Collection.InitConfig","components":[{"name":"name","type":"string","internalType":"string"},{"name":"symbol","type":"string","internalType":"string"},{"name":"revealType","type":"string","internalType":"string"},{"name":"baseURI","type":"string","internalType":"string"},{"name":"placeholderURI","type":"string","internalType":"string"},{"name":"royaltyReceiver","type":"address","internalType":"address"},{"name":"royaltyFeeNumerator","type":"uint96","internalType":"uint96"},{"name":"maxSupply","type":"uint256","internalType":"uint256"},{"name":"mintPrice","type":"uint256","internalType":"uint256"},{"name":"batchMintSupply","type":"uint256","internalType":"uint256"},{"name":"vrfAdapter","type":"address","internalType":"address"}]}],"outputs":[],"stateMutability":"nonpayable"},{"type":"function","name":"isApprovedForAll","inputs":[{"name":"owner","type":"address","internalType":"address"},{"name":"operator","type":"address","internalType":"address"}],"outputs":[{"name":"","type":"bool","internalType":"bool"}],"stateMutability":"view"},{"type":"function","name":"isRevealed","inputs":[{"name":"tokenId","type":"uint256","internalType":"uint256"}],"outputs":[{"name":"","type":"bool","internalType":"bool"}],"stateMutability":"view"},{"type":"function","name":"isTokenApproved","inputs":[{"name":"tokenId","type":"uint256","internalType":"uint256"},{"name":"_marketplace","type":"address","internalType":"address"}],"outputs":[{"name":"","type":"bool","internalType":"bool"}],"stateMutability":"view"},{"type":"function","name":"maxSupply","inputs":[],"outputs":[{"name":"","type":"uint256","internalType":"uint256"}],"stateMutability":"view"},{"type":"function","name":"mint","inputs":[],"outputs":[],"stateMutability":"payable"},{"type":"function","name":"mintPrice","inputs":[],"outputs":[{"name":"","type":"uint256","internalType":"uint256"}],"stateMutability":"view"},{"type":"function","name":"name","inputs":[],"outputs":[{"name":"","type":"string","internalType":"string"}],"stateMutability":"view"},{"type":"function","name":"nextUnrevealedIndex","inputs":[{"name":"startIndex","type":"uint256","internalType":"uint256"}],"outputs":[{"name":"","type":"uint256","internalType":"uint256"}],"stateMutability":"view"},{"type":"function","name":"owner","inputs":[],"outputs":[{"name":"","type":"address","internalType":"address"}],"stateMutability":"view"},{"type":"function","name":"ownerOf","inputs":[{"name":"tokenId","type":"uint256","internalType":"uint256"}],"outputs":[{"name":"","type":"address","internalType":"address"}],"stateMutability":"view"},{"type":"function","name":"proxiableUUID","inputs":[],"outputs":[{"name":"","type":"bytes32","internalType":"bytes32"}],"stateMutability":"view"},{"type":"function","name":"remainingSupply","inputs":[],"outputs":[{"name":"","type":"uint256","internalType":"uint256"}],"stateMutability":"view"},{"type":"function","name":"renounceOwnership","inputs":[],"outputs":[],"stateMutability":"nonpayable"},{"type":"function","name":"revealType","inputs":[],"outputs":[{"name":"","type":"string","internalType":"string"}],"stateMutability":"view"},{"type":"function","name":"revealWithRandomNumber","inputs":[{"name":"tokenId","type":"uint256","internalType":"uint256"},{"name":"randomNumber","type":"uint256","internalType":"uint256"}],"outputs":[],"stateMutability":"nonpayable"},{"type":"function","name":"royaltyInfo","inputs":[{"name":"tokenId","type":"uint256","internalType":"uint256"},{"name":"salePrice","type":"uint256","internalType":"uint256"}],"outputs":[{"name":"receiver","type":"address","internalType":"address"},{"name":"amount","type":"uint256","internalType":"uint256"}],"stateMutability":"view"},{"type":"function","name":"safeTransferFrom","inputs":[{"name":"from","type":"address","internalType":"address"},{"name":"to","type":"address","internalType":"address"},{"name":"tokenId","type":"uint256","internalType":"uint256"}],"outputs":[],"stateMutability":"nonpayable"},{"type":"function","name":"safeTransferFrom","inputs":[{"name":"from","type":"address","internalType":"address"},{"name":"to","type":"address","internalType":"address"},{"name":"tokenId","type":"uint256","internalType":"uint256"},{"name":"data","type":"bytes","internalType":"bytes"}],"outputs":[],"stateMutability":"nonpayable"},{"type":"function","name":"setApprovalForAll","inputs":[{"name":"operator","type":"address","internalType":"address"},{"name":"approved","type":"bool","internalType":"bool"}],"outputs":[],"stateMutability":"nonpayable"},{"type":"function","name":"setBaseURI","inputs":[{"name":"newBaseURI","type":"string","internalType":"string"}],"outputs":[],"stateMutability":"nonpayable"},{"type":"function","name":"setMintPrice","inputs":[{"name":"newMintPrice","type":"uint256","internalType":"uint256"}],"outputs":[],"stateMutability":"nonpayable"},{"type":"function","name":"setNewDefaultRoyaltyInfo","inputs":[{"name":"royaltyReceiver","type":"address","internalType":"address"},{"name":"royaltyFeeNumerator","type":"uint96","internalType":"uint96"}],"outputs":[],"stateMutability":"nonpayable"},{"type":"function","name":"setPaymentReceiver","inputs":[{"name":"newPaymentReceiver","type":"address","internalType":"address"}],"outputs":[],"stateMutability":"nonpayable"},{"type":"function","name":"supportsInterface","inputs":[{"name":"interfaceId","type":"bytes4","internalType":"bytes4"}],"outputs":[{"name":"","type":"bool","internalType":"bool"}],"stateMutability":"view"},{"type":"function","name":"symbol","inputs":[],"outputs":[{"name":"","type":"string","internalType":"string"}],"stateMutability":"view"},{"type":"function","name":"tokenURI","inputs":[{"name":"tokenId","type":"uint256","internalType":"uint256"}],"outputs":[{"name":"","type":"string","internalType":"string"}],"stateMutability":"view"},{"type":"function","name":"transferFrom","inputs":[{"name":"from","type":"address","internalType":"address"},{"name":"to","type":"address","internalType":"address"},{"name":"tokenId","type":"uint256","internalType":"uint256"}],"outputs":[],"stateMutability":"nonpayable"},{"type":"function","name":"transferOwnership","inputs":[{"name":"newOwner","type":"address","internalType":"address"}],"outputs":[],"stateMutability":"nonpayable"},{"type":"function","name":"upgradeToAndCall","inputs":[{"name":"newImplementation","type":"address","internalType":"address"},{"name":"data","type":"bytes","internalType":"bytes"}],"outputs":[],"stateMutability":"payable"},{"type":"function","name":"withdraw","inputs":[],"outputs":[],"stateMutability":"nonpayable"},{"type":"event","name":"Approval","inputs":[{"name":"owner","type":"address","indexed":true,"internalType":"address"},{"name":"approved","type":"address","indexed":true,"internalType":"address"},{"name":"tokenId","type":"uint256","indexed":true,"internalType":"uint256"}],"anonymous":false},{"type":"event","name":"ApprovalForAll","inputs":[{"name":"owner","type":"address","indexed":true,"internalType":"address"},{"name":"operator","type":"address","indexed":true,"internalType":"address"},{"name":"approved","type":"bool","indexed":false,"internalType":"bool"}],"anonymous":false},{"type":"event","name":"BaseURIUpdated","inputs":[{"name":"newBaseURI","type":"string","indexed":false,"internalType":"string"}],"anonymous":false},{"type":"event","name":"Initialized","inputs":[{"name":"version","type":"uint64","indexed":false,"internalType":"uint64"}],"anonymous":false},{"type":"event","name":"Initialized","inputs":[{"name":"owner","type":"address","indexed":true,"internalType":"address"},{"name":"name","type":"string","indexed":false,"internalType":"string"},{"name":"symbol","type":"string","indexed":false,"internalType":"string"}],"anonymous":false},{"type":"event","name":"MintPriceUpdated","inputs":[{"name":"newMintPrice","type":"uint256","indexed":true,"internalType":"uint256"}],"anonymous":false},{"type":"event","name":"NewDefaultRoyaltyInfoSet","inputs":[{"name":"royaltyReceiver","type":"address","indexed":true,"internalType":"address"},{"name":"royaltyFeeNumerator","type":"uint96","indexed":true,"internalType":"uint96"}],"anonymous":false},{"type":"event","name":"NewMintedToken","inputs":[{"name":"tokenId","type":"uint256","indexed":true,"internalType":"uint256"}],"anonymous":false},{"type":"event","name":"OwnershipTransferred","inputs":[{"name":"previousOwner","type":"address","indexed":true,"internalType":"address"},{"name":"newOwner","type":"address","indexed":true,"internalType":"address"}],"anonymous":false},{"type":"event","name":"PaymentReceiverUpdated","inputs":[{"name":"newPaymentReceiver","type":"address","indexed":true,"internalType":"address"}],"anonymous":false},{"type":"event","name":"TokenRevealed","inputs":[{"name":"tokenId","type":"uint256","indexed":true,"internalType":"uint256"},{"name":"traitIndex","type":"uint256","indexed":true,"internalType":"uint256"}],"anonymous":false},{"type":"event","name":"Transfer","inputs":[{"name":"from","type":"address","indexed":true,"internalType":"address"},{"name":"to","type":"address","indexed":true,"internalType":"address"},{"name":"tokenId","type":"uint256","indexed":true,"internalType":"uint256"}],"anonymous":false},{"type":"event","name":"Upgraded","inputs":[{"name":"implementation","type":"address","indexed":true,"internalType":"address"}],"anonymous":false},{"type":"event","name":"VRFRequested","inputs":[{"name":"requestId","type":"uint256","indexed":true,"internalType":"uint256"},{"name":"tokenId","type":"uint256","indexed":true,"internalType":"uint256"}],"anonymous":false},{"type":"event","name":"VRFRevealCompleted","inputs":[{"name":"tokenId","type":"uint256","indexed":true,"internalType":"uint256"},{"name":"traitIndex","type":"uint256","indexed":true,"internalType":"uint256"}],"anonymous":false},{"type":"event","name":"Withdrawn","inputs":[{"name":"balance","type":"uint256","indexed":true,"internalType":"uint256"}],"anonymous":false},{"type":"error","name":"AddressEmptyCode","inputs":[{"name":"target","type":"address","internalType":"address"}]},{"type":"error","name":"ERC1967InvalidImplementation","inputs":[{"name":"implementation","type":"address","internalType":"address"}]},{"type":"error","name":"ERC1967NonPayable","inputs":[]},{"type":"error","name":"ERC2981InvalidDefaultRoyalty","inputs":[{"name":"numerator","type":"uint256","internalType":"uint256"},{"name":"denominator","type":"uint256","internalType":"uint256"}]},{"type":"error","name":"ERC2981InvalidDefaultRoyaltyReceiver","inputs":[{"name":"receiver","type":"address","internalType":"address"}]},{"type":"error","name":"ERC2981InvalidTokenRoyalty","inputs":[{"name":"tokenId","type":"uint256","internalType":"uint256"},{"name":"numerator","type":"uint256","internalType":"uint256"},{"name":"denominator","type":"uint256","internalType":"uint256"}]},{"type":"error","name":"ERC2981InvalidTokenRoyaltyReceiver","inputs":[{"name":"tokenId","type":"uint256","internalType":"uint256"},{"name":"receiver","type":"address","internalType":"address"}]},{"type":"error","name":"ERC721IncorrectOwner","inputs":[{"name":"sender","type":"address","internalType":"address"},{"name":"tokenId","type":"uint256","internalType":"uint256"},{"name":"owner","type":"address","internalType":"address"}]},{"type":"error","name":"ERC721InsufficientApproval","inputs":[{"name":"operator","type":"address","internalType":"address"},{"name":"tokenId","type":"uint256","internalType":"uint256"}]},{"type":"error","name":"ERC721InvalidApprover","inputs":[{"name":"approver","type":"address","internalType":"address"}]},{"type":"error","name":"ERC721InvalidOperator","inputs":[{"name":"operator","type":"address","internalType":"address"}]},{"type":"error","name":"ERC721InvalidOwner","inputs":[{"name":"owner","type":"address","internalType":"address"}]},{"type":"error","name":"ERC721InvalidReceiver","inputs":[{"name":"receiver","type":"address","internalType":"address"}]},{"type":"error","name":"ERC721InvalidSender","inputs":[{"name":"sender","type":"address","internalType":"address"}]},{"type":"error","name":"ERC721NonexistentToken","inputs":[{"name":"tokenId","type":"uint256","internalType":"uint256"}]},{"type":"error","name":"FailedCall","inputs":[]},{"type":"error","name":"IncorrectBatchMintSupply","inputs":[]},{"type":"error","name":"InsufficientBalance","inputs":[]},{"type":"error","name":"InvalidInitialization","inputs":[]},{"type":"error","name":"InvalidVRFRequest","inputs":[]},{"type":"error","name":"MaxSupplyReached","inputs":[]},{"type":"error","name":"NoUnrevealedIndexes","inputs":[]},{"type":"error","name":"NotAnOwner","inputs":[]},{"type":"error","name":"NotInitializing","inputs":[]},{"type":"error","name":"OnlyVRFAdapter","inputs":[]},{"type":"error","name":"OwnableInvalidOwner","inputs":[{"name":"owner","type":"address","internalType":"address"}]},{"type":"error","name":"OwnableUnauthorizedAccount","inputs":[{"name":"account","type":"address","internalType":"address"}]},{"type":"error","name":"ReentrancyGuardReentrantCall","inputs":[]},{"type":"error","name":"TokenAlreadyPendingReveal","inputs":[{"name":"tokenId","type":"uint256","internalType":"uint256"}]},{"type":"error","name":"TokenIsNotMinted","inputs":[]},{"type":"error","name":"TokenIsRevealedAlready","inputs":[{"name":"tokenId","type":"uint256","internalType":"uint256"}]},{"type":"error","name":"TransferFailed","inputs":[]},{"type":"error","name":"UUPSUnauthorizedCallContext","inputs":[]},{"type":"error","name":"UUPSUnsupportedProxiableUUID","inputs":[{"name":"slot","type":"bytes32","internalType":"bytes32"}]},{"type":"error","name":"VRFRequestFailed","inputs":[]},{"type":"error","name":"VrfAdapterNotSet","inputs":[]},{"type":"error","name":"ZeroAddress","inputs":[]}],"bytecode":{"object":"0x60a06040523073ffffffffffffffffffffffffffffffffffffffff1660809073ffffffffffffffffffffffffffffffffffffffff16815250348015610042575f5ffd5b50600161006161005661007a60201b60201c565b6100a360201b60201c565b5f01819055506100756100ac60201b60201c565b610227565b5f7f9b779b17422d0df92223018b32b4d1fa46e071723d6817e2486d003becc55f005f1b905090565b5f819050919050565b5f6100bb6101aa60201b60201c565b9050805f0160089054906101000a900460ff1615610105576040517ff92ee8a900000000000000000000000000000000000000000000000000000000815260040160405180910390fd5b67ffffffffffffffff8016815f015f9054906101000a900467ffffffffffffffff1667ffffffffffffffff16146101a75767ffffffffffffffff815f015f6101000a81548167ffffffffffffffff021916908367ffffffffffffffff1602179055507fc7f505b2f371ae2175ee4913f4499e1f2633a7b5936321eed1cdaeb6115181d267ffffffffffffffff60405161019e919061020e565b60405180910390a15b50565b5f5f6101ba6101c360201b60201c565b90508091505090565b5f7ff0c57e16840df040f15088dc2f81fe391c3923bec73e23a9662efc9c229c6a005f1b905090565b5f67ffffffffffffffff82169050919050565b610208816101ec565b82525050565b5f6020820190506102215f8301846101ff565b92915050565b60805161538f61024d5f395f8181612824015281816128790152612a2b015261538f5ff3fe608060405260043610610266575f3560e01c80636c9c2faf11610143578063a2af294f116100b5578063d5abeb0111610079578063d5abeb01146108f0578063da0239a61461091a578063e985e9c514610944578063f2fde38b14610980578063f4a0a528146109a8578063f5744b06146109d057610266565b8063a2af294f1461080e578063ad3cb1cc14610838578063b88d4fde14610862578063c87b56dd1461088a578063caa0f92a146108c657610266565b806395d89b411161010757806395d89b41146106f3578063968eb9ea1461071d578063986153cc1461074557806398b38d701461076d578063a1a7b9c1146107aa578063a22cb465146107e657610266565b80636c9c2faf1461062557806370a082311461064f578063715018a61461068b57806372e41663146106a15780638da5cb5b146106c957610266565b8063404146b1116101dc57806355e32e75116101a057806355e32e751461050957806355f804b3146105335780636352211e1461055b57806365ebf99a146105975780636817c76c146105bf578063685f41df146105e957610266565b8063404146b11461043557806342842e0e1461045f5780634f1ef286146104875780635055fbc3146104a357806352d1902d146104df57610266565b80631fd63a231161022e5780631fd63a231461033e57806323b872dd1461036857806327fce3fb146103905780632a55205a146103b85780633403c4e9146103f55780633ccfd60b1461041f57610266565b806301ffc9a71461026a57806306fdde03146102a6578063081812fc146102d0578063095ea7b31461030c5780631249c58b14610334575b5f5ffd5b348015610275575f5ffd5b50610290600480360381019061028b919061402c565b610a0c565b60405161029d9190614071565b60405180910390f35b3480156102b1575f5ffd5b506102ba610a1d565b6040516102c791906140fa565b60405180910390f35b3480156102db575f5ffd5b506102f660048036038101906102f1919061414d565b610aba565b60405161030391906141b7565b60405180910390f35b348015610317575f5ffd5b50610332600480360381019061032d91906141fa565b610ad5565b005b61033c610aeb565b005b348015610349575f5ffd5b50610352610cd1565b60405161035f9190614247565b60405180910390f35b348015610373575f5ffd5b5061038e60048036038101906103899190614260565b610d3c565b005b34801561039b575f5ffd5b506103b660048036038101906103b191906142b0565b610e3b565b005b3480156103c3575f5ffd5b506103de60048036038101906103d991906142b0565b611066565b6040516103ec9291906142ee565b60405180910390f35b348015610400575f5ffd5b50610409611198565b60405161041691906141b7565b60405180910390f35b34801561042a575f5ffd5b506104336111d0565b005b348015610440575f5ffd5b50610449611306565b6040516104569190614247565b60405180910390f35b34801561046a575f5ffd5b5061048560048036038101906104809190614260565b61130c565b005b6104a1600480360381019061049c9190614441565b61132b565b005b3480156104ae575f5ffd5b506104c960048036038101906104c4919061414d565b61134a565b6040516104d69190614071565b60405180910390f35b3480156104ea575f5ffd5b506104f36113ab565b60405161050091906144b3565b60405180910390f35b348015610514575f5ffd5b5061051d6113dc565b60405161052a91906141b7565b60405180910390f35b34801561053e575f5ffd5b506105596004803603810190610554919061456a565b611404565b005b348015610566575f5ffd5b50610581600480360381019061057c919061414d565b611456565b60405161058e91906141b7565b60405180910390f35b3480156105a2575f5ffd5b506105bd60048036038101906105b891906145b1565b611467565b005b3480156105ca575f5ffd5b506105d361155a565b6040516105e09190614247565b60405180910390f35b3480156105f4575f5ffd5b5061060f600480360381019061060a919061414d565b611560565b60405161061c9190614247565b60405180910390f35b348015610630575f5ffd5b5061063961162d565b6040516106469190614247565b60405180910390f35b34801561065a575f5ffd5b50610675600480360381019061067091906145b1565b611642565b6040516106829190614247565b60405180910390f35b348015610696575f5ffd5b5061069f611706565b005b3480156106ac575f5ffd5b506106c760048036038101906106c2919061461d565b611719565b005b3480156106d4575f5ffd5b506106dd6117de565b6040516106ea91906141b7565b60405180910390f35b3480156106fe575f5ffd5b50610707611813565b60405161071491906140fa565b60405180910390f35b348015610728575f5ffd5b50610743600480360381019061073e919061414d565b6118b1565b005b348015610750575f5ffd5b5061076b600480360381019061076691906147f8565b611bb2565b005b348015610778575f5ffd5b50610793600480360381019061078e91906142b0565b611f91565b6040516107a192919061483f565b60405180910390f35b3480156107b5575f5ffd5b506107d060048036038101906107cb919061414d565b611fac565b6040516107dd9190614247565b60405180910390f35b3480156107f1575f5ffd5b5061080c60048036038101906108079190614890565b611ff1565b005b348015610819575f5ffd5b50610822612007565b60405161082f91906140fa565b60405180910390f35b348015610843575f5ffd5b5061084c612093565b60405161085991906140fa565b60405180910390f35b34801561086d575f5ffd5b50610888600480360381019061088391906148ce565b6120cc565b005b348015610895575f5ffd5b506108b060048036038101906108ab919061414d565b6120f1565b6040516108bd91906140fa565b60405180910390f35b3480156108d1575f5ffd5b506108da61221b565b6040516108e79190614247565b60405180910390f35b3480156108fb575f5ffd5b50610904612264565b6040516109119190614247565b60405180910390f35b348015610925575f5ffd5b5061092e612269565b60405161093b9190614247565b60405180910390f35b34801561094f575f5ffd5b5061096a6004803603810190610965919061494e565b61228a565b6040516109779190614071565b60405180910390f35b34801561098b575f5ffd5b506109a660048036038101906109a191906145b1565b612326565b005b3480156109b3575f5ffd5b506109ce60048036038101906109c9919061414d565b6123aa565b005b3480156109db575f5ffd5b506109f660048036038101906109f1919061498c565b6123e9565b604051610a039190614071565b60405180910390f35b5f610a1682612447565b9050919050565b60605f610a286124c0565b9050805f018054610a38906149f7565b80601f0160208091040260200160405190810160405280929190818152602001828054610a64906149f7565b8015610aaf5780601f10610a8657610100808354040283529160200191610aaf565b820191905f5260205f20905b815481529060010190602001808311610a9257829003601f168201915b505050505091505090565b5f610ac4826124e7565b50610ace8261256d565b9050919050565b610ae78282610ae26125b4565b6125bb565b5050565b5f546003541115610b28576040517fd05cb60900000000000000000000000000000000000000000000000000000000815260040160405180910390fd5b600154341015610b64576040517ff4d678b800000000000000000000000000000000000000000000000000000000815260040160405180910390fd5b5f600b5f9054906101000a900473ffffffffffffffffffffffffffffffffffffffff1673ffffffffffffffffffffffffffffffffffffffff1634604051610baa90614a54565b5f6040518083038185875af1925050503d805f8114610be4576040519150601f19603f3d011682016040523d82523d5f602084013e610be9565b606091505b5050905080610c24576040517f90b8ec1800000000000000000000000000000000000000000000000000000000815260040160405180910390fd5b610c30336003546125cd565b6003547f0fd3f0c19389c82c03821755f90d898521f4f56630b7fe87530ef2b0067c756b60405160405180910390a2604051602001610c6e90614abc565b604051602081830303815290604052805190602001206004604051602001610c969190614b62565b6040516020818303038152906040528051906020012003610cbd57610cbc6003546125ea565b5b60035f815480929190600101919050555050565b5f5f5f90505f600190505b6001600354610ceb9190614ba5565b8111610d345760075f8281526020019081526020015f205f9054906101000a900460ff1615610d23578180610d1f90614bd8565b9250505b80610d2d90614bd8565b9050610cdc565b508091505090565b5f73ffffffffffffffffffffffffffffffffffffffff168273ffffffffffffffffffffffffffffffffffffffff1603610dac575f6040517f64a0ae92000000000000000000000000000000000000000000000000000000008152600401610da391906141b7565b60405180910390fd5b5f610dbf8383610dba6125b4565b612756565b90508373ffffffffffffffffffffffffffffffffffffffff168173ffffffffffffffffffffffffffffffffffffffff1614610e35578382826040517f64283d7b000000000000000000000000000000000000000000000000000000008152600401610e2c93929190614c1f565b60405180910390fd5b50505050565b600a5f9054906101000a900473ffffffffffffffffffffffffffffffffffffffff1673ffffffffffffffffffffffffffffffffffffffff163373ffffffffffffffffffffffffffffffffffffffff1614610ec1576040517f1cedbbbb00000000000000000000000000000000000000000000000000000000815260040160405180910390fd5b60085f8381526020019081526020015f205f9054906101000a900460ff16610f15576040517f8043166d00000000000000000000000000000000000000000000000000000000815260040160405180910390fd5b60075f8381526020019081526020015f205f9054906101000a900460ff1615610f7557816040517f45b3d0bc000000000000000000000000000000000000000000000000000000008152600401610f6c9190614247565b60405180910390fd5b5f60015f5483610f859190614c81565b610f8f9190614cb1565b90505f610f9b82611560565b9050600160075f8681526020019081526020015f205f6101000a81548160ff0219169083151502179055508060095f8681526020019081526020015f20819055505f60085f8681526020019081526020015f205f6101000a81548160ff02191690831515021790555080847f5b7f9283edd2504660f29463d2f79648570e3be56c99aafad27f3a3aad7e4e0460405160405180910390a380847f9635ba21af05a17541712188f4e9d3dd26ba62d77f0a8c76817c747ac2cd8e1560405160405180910390a350505050565b5f5f5f61107161276b565b90505f816001015f8781526020019081526020015f2090505f815f015f9054906101000a900473ffffffffffffffffffffffffffffffffffffffff1690505f825f0160149054906101000a90046bffffffffffffffffffffffff1690505f73ffffffffffffffffffffffffffffffffffffffff168273ffffffffffffffffffffffffffffffffffffffff160361114957835f015f015f9054906101000a900473ffffffffffffffffffffffffffffffffffffffff169150835f015f0160149054906101000a90046bffffffffffffffffffffffff1690505b5f611152612792565b6bffffffffffffffffffffffff16826bffffffffffffffffffffffff168961117a9190614ce4565b6111849190614d25565b905082819650965050505050509250929050565b5f5f6111c67fffffffffffffffffffffffffffffffffffffffffffffffffffffffffffffffff612710611066565b5090508091505090565b6111d861279b565b5f4790505f8103611215576040517ff4d678b800000000000000000000000000000000000000000000000000000000815260040160405180910390fd5b5f600b5f9054906101000a900473ffffffffffffffffffffffffffffffffffffffff1673ffffffffffffffffffffffffffffffffffffffff168260405161125b90614a54565b5f6040518083038185875af1925050503d805f8114611295576040519150601f19603f3d011682016040523d82523d5f602084013e61129a565b606091505b50509050806112d5576040517f90b8ec1800000000000000000000000000000000000000000000000000000000815260040160405180910390fd5b817f430648de173157e069201c943adb2d4e340e7cf5b27b1b09c9cb852f03d63b5660405160405180910390a25050565b60025481565b61132683838360405180602001604052805f8152506120cc565b505050565b611333612822565b61133c82612908565b611346828261290b565b5050565b5f6003548210611386576040517f9ff82bbf00000000000000000000000000000000000000000000000000000000815260040160405180910390fd5b60075f8381526020019081526020015f205f9054906101000a900460ff169050919050565b5f6113b4612a29565b7f360894a13ba1a3210667c828492db98dca3e2076cc3735a920a3ca505d382bbc5f1b905090565b5f600a5f9054906101000a900473ffffffffffffffffffffffffffffffffffffffff16905090565b61140c61279b565b806005908161141b9190614ee3565b507f6741b2fc379fad678116fe3d4d4b9a1a184ab53ba36b86ad0fa66340b1ab41ad8160405161144b91906140fa565b60405180910390a150565b5f611460826124e7565b9050919050565b61146f61279b565b5f73ffffffffffffffffffffffffffffffffffffffff168173ffffffffffffffffffffffffffffffffffffffff16036114d4576040517fd92e233d00000000000000000000000000000000000000000000000000000000815260040160405180910390fd5b80600b5f6101000a81548173ffffffffffffffffffffffffffffffffffffffff021916908373ffffffffffffffffffffffffffffffffffffffff1602179055508073ffffffffffffffffffffffffffffffffffffffff167f6cfddd24d2afc1b9f31d51f0ef77029fdde044799f0a87a2a09b7673b609742260405160405180910390a250565b60015481565b5f5f8290505b600181106115a55760075f8281526020019081526020015f205f9054906101000a900460ff166115995780915050611628565b80600190039050611566565b505f6001836115b49190614cb1565b90505b5f5481116115f55760075f8281526020019081526020015f205f9054906101000a900460ff166115ea5780915050611628565b8060010190506115b7565b506040517f82f59b3c00000000000000000000000000000000000000000000000000000000815260040160405180910390fd5b919050565b5f600160035461163d9190614ba5565b905090565b5f5f61164c6124c0565b90505f73ffffffffffffffffffffffffffffffffffffffff168373ffffffffffffffffffffffffffffffffffffffff16036116be575f6040517f89c62b640000000000000000000000000000000000000000000000000000000081526004016116b591906141b7565b60405180910390fd5b806003015f8473ffffffffffffffffffffffffffffffffffffffff1673ffffffffffffffffffffffffffffffffffffffff1681526020019081526020015f2054915050919050565b61170e61279b565b6117175f612ab0565b565b5f73ffffffffffffffffffffffffffffffffffffffff168273ffffffffffffffffffffffffffffffffffffffff160361177e576040517fd92e233d00000000000000000000000000000000000000000000000000000000815260040160405180910390fd5b6117888282612b81565b806bffffffffffffffffffffffff168273ffffffffffffffffffffffffffffffffffffffff167ff87991cc31e6653da01df8e6e4fc92b7f168b6f7e0012788c683e54e4ac1eeb360405160405180910390a35050565b5f5f6117e8612d29565b9050805f015f9054906101000a900473ffffffffffffffffffffffffffffffffffffffff1691505090565b60605f61181e6124c0565b905080600101805461182f906149f7565b80601f016020809104026020016040519081016040528092919081815260200182805461185b906149f7565b80156118a65780601f1061187d576101008083540402835291602001916118a6565b820191905f5260205f20905b81548152906001019060200180831161188957829003601f168201915b505050505091505090565b6118ba81611456565b73ffffffffffffffffffffffffffffffffffffffff163373ffffffffffffffffffffffffffffffffffffffff161461191e576040517feea91ff800000000000000000000000000000000000000000000000000000000815260040160405180910390fd5b60075f8281526020019081526020015f205f9054906101000a900460ff161561197e57806040517f45b3d0bc0000000000000000000000000000000000000000000000000000000081526004016119759190614247565b60405180910390fd5b60085f8281526020019081526020015f205f9054906101000a900460ff16156119de57806040517f0ca724810000000000000000000000000000000000000000000000000000000081526004016119d59190614247565b60405180910390fd5b5f73ffffffffffffffffffffffffffffffffffffffff16600a5f9054906101000a900473ffffffffffffffffffffffffffffffffffffffff1673ffffffffffffffffffffffffffffffffffffffff1603611a64576040517f2f852b8f00000000000000000000000000000000000000000000000000000000815260040160405180910390fd5b600160085f8381526020019081526020015f205f6101000a81548160ff021916908315150217905550600a5f9054906101000a900473ffffffffffffffffffffffffffffffffffffffff1673ffffffffffffffffffffffffffffffffffffffff16637363ae1f826040518263ffffffff1660e01b8152600401611ae79190614247565b6020604051808303815f875af1925050508015611b2257506040513d601f19601f82011682018060405250810190611b1f9190614fc6565b60015b611b80575f60085f8381526020019081526020015f205f6101000a81548160ff0219169083151502179055506040517f884a9c8b00000000000000000000000000000000000000000000000000000000815260040160405180910390fd5b81817fc6f253de430148d7581a940518a73a6d98efc85ea9162887a3918443ba67c21260405160405180910390a35050565b5f611bbb612d50565b90505f815f0160089054906101000a900460ff161590505f825f015f9054906101000a900467ffffffffffffffff1690505f5f8267ffffffffffffffff16148015611c035750825b90505f60018367ffffffffffffffff16148015611c3657505f3073ffffffffffffffffffffffffffffffffffffffff163b145b905081158015611c44575080155b15611c7b576040517ff92ee8a900000000000000000000000000000000000000000000000000000000815260040160405180910390fd5b6001855f015f6101000a81548167ffffffffffffffff021916908367ffffffffffffffff1602179055508315611cc8576001855f0160086101000a81548160ff0219169083151502179055505b611cd9865f01518760200151612d63565b611ce1612d79565b611cea33612d83565b856040015160049081611cfd9190614ee3565b50856060015160059081611d119190614ee3565b50856080015160069081611d259190614ee3565b508560e001515f819055508561010001516001819055508561012001516002819055505f73ffffffffffffffffffffffffffffffffffffffff1686610140015173ffffffffffffffffffffffffffffffffffffffff1603611db2576040517fd92e233d00000000000000000000000000000000000000000000000000000000815260040160405180910390fd5b856101400151600a5f6101000a81548173ffffffffffffffffffffffffffffffffffffffff021916908373ffffffffffffffffffffffffffffffffffffffff1602179055508560e001518661012001511115611e3a576040517f397c0adf00000000000000000000000000000000000000000000000000000000815260040160405180910390fd5b611e4c8660a001518760c00151612b81565b8560a00151600b5f6101000a81548173ffffffffffffffffffffffffffffffffffffffff021916908373ffffffffffffffffffffffffffffffffffffffff16021790555060016003819055505f600254600354611ea99190614cb1565b90505f60035490505b81811015611ecf57611ec43382612d97565b806001019050611eb2565b50806003819055503373ffffffffffffffffffffffffffffffffffffffff167f82dfd53401a55bb491abcb3e7a97c99da1ed7eaffd89721d3e96e8e8ad4a692d885f01518960200151604051611f26929190614ff1565b60405180910390a2508315611f89575f855f0160086101000a81548160ff0219169083151502179055507fc7f505b2f371ae2175ee4913f4499e1f2633a7b5936321eed1cdaeb6115181d26001604051611f809190615072565b60405180910390a15b505050505050565b5f5f611f9d8484611066565b80935081925050509250929050565b5f60075f8381526020019081526020015f205f9054906101000a900460ff16611fd7575f9050611fec565b60095f8381526020019081526020015f205490505b919050565b612003611ffc6125b4565b8383612e8a565b5050565b60048054612014906149f7565b80601f0160208091040260200160405190810160405280929190818152602001828054612040906149f7565b801561208b5780601f106120625761010080835404028352916020019161208b565b820191905f5260205f20905b81548152906001019060200180831161206e57829003601f168201915b505050505081565b6040518060400160405280600581526020017f352e302e3000000000000000000000000000000000000000000000000000000081525081565b6120d7848484610d3c565b6120eb6120e26125b4565b85858585613001565b50505050565b60606120fc826124e7565b5060075f8381526020019081526020015f205f9054906101000a900460ff166121af576006805461212c906149f7565b80601f0160208091040260200160405190810160405280929190818152602001828054612158906149f7565b80156121a35780601f1061217a576101008083540402835291602001916121a3565b820191905f5260205f20905b81548152906001019060200180831161218657829003601f168201915b50505050509050612216565b5f6121b86131ad565b90505f8151116121d65760405180602001604052805f815250612212565b806121f160095f8681526020019081526020015f205461323d565b6040516020016122029291906150bb565b6040516020818303038152906040525b9150505b919050565b5f5f612225612269565b0361225c576040517fd05cb60900000000000000000000000000000000000000000000000000000000815260040160405180910390fd5b600354905090565b5f5481565b5f60016003546122799190614ba5565b5f546122859190614ba5565b905090565b5f5f6122946124c0565b9050806005015f8573ffffffffffffffffffffffffffffffffffffffff1673ffffffffffffffffffffffffffffffffffffffff1681526020019081526020015f205f8473ffffffffffffffffffffffffffffffffffffffff1673ffffffffffffffffffffffffffffffffffffffff1681526020019081526020015f205f9054906101000a900460ff1691505092915050565b61232e61279b565b5f73ffffffffffffffffffffffffffffffffffffffff168173ffffffffffffffffffffffffffffffffffffffff160361239e575f6040517f1e4fbdf700000000000000000000000000000000000000000000000000000000815260040161239591906141b7565b60405180910390fd5b6123a781612ab0565b50565b6123b261279b565b80600181905550807f525b762709cc2a983aec5ccdfd807a061f993c91090b5bcd7da92ca254976aaa60405160405180910390a250565b5f5f6123f484611456565b90508273ffffffffffffffffffffffffffffffffffffffff1661241685610aba565b73ffffffffffffffffffffffffffffffffffffffff16148061243e575061243d818461228a565b5b91505092915050565b5f7f2a55205a000000000000000000000000000000000000000000000000000000007bffffffffffffffffffffffffffffffffffffffffffffffffffffffff1916827bffffffffffffffffffffffffffffffffffffffffffffffffffffffff191614806124b957506124b882613307565b5b9050919050565b5f7f80bb2b638cc20bc4d0a60d66940f3ab4a00c1d7b313497ca82fb0b4ab0079300905090565b5f5f6124f2836133e8565b90505f73ffffffffffffffffffffffffffffffffffffffff168173ffffffffffffffffffffffffffffffffffffffff160361256457826040517f7e27328900000000000000000000000000000000000000000000000000000000815260040161255b9190614247565b60405180910390fd5b80915050919050565b5f5f6125776124c0565b9050806004015f8481526020019081526020015f205f9054906101000a900473ffffffffffffffffffffffffffffffffffffffff16915050919050565b5f33905090565b6125c8838383600161342f565b505050565b6125e6828260405180602001604052805f8152506135fc565b5050565b5f42446001436125fa9190614ba5565b40338560035460405160200161261596959493929190615163565b604051602081830303815290604052805190602001205f1c90505f5f600190505b5f5481116126805760075f8281526020019081526020015f205f9054906101000a900460ff1661266f57818061266b90614bd8565b9250505b8061267990614bd8565b9050612636565b505f81036126ba576040517f82f59b3c00000000000000000000000000000000000000000000000000000000815260040160405180910390fd5b5f60015f54846126ca9190614c81565b6126d49190614cb1565b90505f6126e082611560565b9050600160075f8781526020019081526020015f205f6101000a81548160ff0219169083151502179055508060095f8781526020019081526020015f208190555080857f5b7f9283edd2504660f29463d2f79648570e3be56c99aafad27f3a3aad7e4e0460405160405180910390a35050505050565b5f61276284848461361f565b90509392505050565b5f7fdaedc9ab023613a7caf35e703657e986ccfad7e3eb0af93a2853f8d65dd86b00905090565b5f612710905090565b6127a36125b4565b73ffffffffffffffffffffffffffffffffffffffff166127c16117de565b73ffffffffffffffffffffffffffffffffffffffff1614612820576127e46125b4565b6040517f118cdaa700000000000000000000000000000000000000000000000000000000815260040161281791906141b7565b60405180910390fd5b565b7f000000000000000000000000000000000000000000000000000000000000000073ffffffffffffffffffffffffffffffffffffffff163073ffffffffffffffffffffffffffffffffffffffff1614806128cf57507f000000000000000000000000000000000000000000000000000000000000000073ffffffffffffffffffffffffffffffffffffffff166128b661383c565b73ffffffffffffffffffffffffffffffffffffffff1614155b15612906576040517fe07c8dba00000000000000000000000000000000000000000000000000000000815260040160405180910390fd5b565b50565b8173ffffffffffffffffffffffffffffffffffffffff166352d1902d6040518163ffffffff1660e01b8152600401602060405180830381865afa92505050801561297357506040513d601f19601f8201168201806040525081019061297091906151fc565b60015b6129b457816040517f4c9c8ce30000000000000000000000000000000000000000000000000000000081526004016129ab91906141b7565b60405180910390fd5b7f360894a13ba1a3210667c828492db98dca3e2076cc3735a920a3ca505d382bbc5f1b8114612a1a57806040517faa1d49a4000000000000000000000000000000000000000000000000000000008152600401612a1191906144b3565b60405180910390fd5b612a24838361388f565b505050565b7f000000000000000000000000000000000000000000000000000000000000000073ffffffffffffffffffffffffffffffffffffffff163073ffffffffffffffffffffffffffffffffffffffff1614612aae576040517fe07c8dba00000000000000000000000000000000000000000000000000000000815260040160405180910390fd5b565b5f612ab9612d29565b90505f815f015f9054906101000a900473ffffffffffffffffffffffffffffffffffffffff16905082825f015f6101000a81548173ffffffffffffffffffffffffffffffffffffffff021916908373ffffffffffffffffffffffffffffffffffffffff1602179055508273ffffffffffffffffffffffffffffffffffffffff168173ffffffffffffffffffffffffffffffffffffffff167f8be0079c531659141344cd1fd0a4f28419497f9722a3daafe3b4186f6b6457e060405160405180910390a3505050565b5f612b8a61276b565b90505f612b95612792565b6bffffffffffffffffffffffff16905080836bffffffffffffffffffffffff161115612bfa5782816040517f6f483d09000000000000000000000000000000000000000000000000000000008152600401612bf1929190615257565b60405180910390fd5b5f73ffffffffffffffffffffffffffffffffffffffff168473ffffffffffffffffffffffffffffffffffffffff1603612c6a575f6040517fb6d9900a000000000000000000000000000000000000000000000000000000008152600401612c6191906141b7565b60405180910390fd5b60405180604001604052808573ffffffffffffffffffffffffffffffffffffffff168152602001846bffffffffffffffffffffffff16815250825f015f820151815f015f6101000a81548173ffffffffffffffffffffffffffffffffffffffff021916908373ffffffffffffffffffffffffffffffffffffffff1602179055506020820151815f0160146101000a8154816bffffffffffffffffffffffff02191690836bffffffffffffffffffffffff16021790555090505050505050565b5f7f9016d09d72d40fdae2fd8ceac6b6234c7706214fd39c1cd1e609a0528c199300905090565b5f5f612d5a613901565b90508091505090565b612d6b61392a565b612d75828261396a565b5050565b612d8161392a565b565b612d8b61392a565b612d94816139a5565b50565b5f73ffffffffffffffffffffffffffffffffffffffff168273ffffffffffffffffffffffffffffffffffffffff1603612e07575f6040517f64a0ae92000000000000000000000000000000000000000000000000000000008152600401612dfe91906141b7565b60405180910390fd5b5f612e1383835f612756565b90505f73ffffffffffffffffffffffffffffffffffffffff168173ffffffffffffffffffffffffffffffffffffffff1614612e85575f6040517f73c6ac6e000000000000000000000000000000000000000000000000000000008152600401612e7c91906141b7565b60405180910390fd5b505050565b5f612e936124c0565b90505f73ffffffffffffffffffffffffffffffffffffffff168373ffffffffffffffffffffffffffffffffffffffff1603612f0557826040517f5b08ba18000000000000000000000000000000000000000000000000000000008152600401612efc91906141b7565b60405180910390fd5b81816005015f8673ffffffffffffffffffffffffffffffffffffffff1673ffffffffffffffffffffffffffffffffffffffff1681526020019081526020015f205f8573ffffffffffffffffffffffffffffffffffffffff1673ffffffffffffffffffffffffffffffffffffffff1681526020019081526020015f205f6101000a81548160ff0219169083151502179055508273ffffffffffffffffffffffffffffffffffffffff168473ffffffffffffffffffffffffffffffffffffffff167f17307eab39ab6107e8899845ad3d59bd9653f200f220920489ca2b5937696c3184604051612ff39190614071565b60405180910390a350505050565b5f8373ffffffffffffffffffffffffffffffffffffffff163b11156131a6578273ffffffffffffffffffffffffffffffffffffffff1663150b7a02868685856040518563ffffffff1660e01b815260040161305f94939291906152d0565b6020604051808303815f875af192505050801561309a57506040513d601f19601f82011682018060405250810190613097919061532e565b60015b61311b573d805f81146130c8576040519150601f19603f3d011682016040523d82523d5f602084013e6130cd565b606091505b505f81510361311357836040517f64a0ae9200000000000000000000000000000000000000000000000000000000815260040161310a91906141b7565b60405180910390fd5b805160208201fd5b63150b7a0260e01b7bffffffffffffffffffffffffffffffffffffffffffffffffffffffff1916817bffffffffffffffffffffffffffffffffffffffffffffffffffffffff1916146131a457836040517f64a0ae9200000000000000000000000000000000000000000000000000000000815260040161319b91906141b7565b60405180910390fd5b505b5050505050565b6060600580546131bc906149f7565b80601f01602080910402602001604051908101604052809291908181526020018280546131e8906149f7565b80156132335780601f1061320a57610100808354040283529160200191613233565b820191905f5260205f20905b81548152906001019060200180831161321657829003601f168201915b5050505050905090565b60605f600161324b84613a29565b0190505f8167ffffffffffffffff8111156132695761326861431d565b5b6040519080825280601f01601f19166020018201604052801561329b5781602001600182028036833780820191505090505b5090505f82602083010190505b6001156132fc578080600190039150507f3031323334353637383961626364656600000000000000000000000000000000600a86061a8153600a85816132f1576132f0614c54565b5b0494505f85036132a8575b819350505050919050565b5f7f80ac58cd000000000000000000000000000000000000000000000000000000007bffffffffffffffffffffffffffffffffffffffffffffffffffffffff1916827bffffffffffffffffffffffffffffffffffffffffffffffffffffffff191614806133d157507f5b5e139f000000000000000000000000000000000000000000000000000000007bffffffffffffffffffffffffffffffffffffffffffffffffffffffff1916827bffffffffffffffffffffffffffffffffffffffffffffffffffffffff1916145b806133e157506133e082613b7a565b5b9050919050565b5f5f6133f26124c0565b9050806002015f8481526020019081526020015f205f9054906101000a900473ffffffffffffffffffffffffffffffffffffffff16915050919050565b5f6134386124c0565b9050818061347257505f73ffffffffffffffffffffffffffffffffffffffff168373ffffffffffffffffffffffffffffffffffffffff1614155b156135a4575f613481856124e7565b90505f73ffffffffffffffffffffffffffffffffffffffff168473ffffffffffffffffffffffffffffffffffffffff16141580156134eb57508373ffffffffffffffffffffffffffffffffffffffff168173ffffffffffffffffffffffffffffffffffffffff1614155b80156134fe57506134fc818561228a565b155b1561354057836040517fa9fbf51f00000000000000000000000000000000000000000000000000000000815260040161353791906141b7565b60405180910390fd5b82156135a257848673ffffffffffffffffffffffffffffffffffffffff168273ffffffffffffffffffffffffffffffffffffffff167f8c5be1e5ebec7d5bd14f71427d1e84f3dd0314c0f7b2291e5b200ac8c7c3b92560405160405180910390a45b505b84816004015f8681526020019081526020015f205f6101000a81548173ffffffffffffffffffffffffffffffffffffffff021916908373ffffffffffffffffffffffffffffffffffffffff1602179055505050505050565b6136068383612d97565b61361a6136116125b4565b5f858585613001565b505050565b5f5f6136296124c0565b90505f613635856133e8565b90505f73ffffffffffffffffffffffffffffffffffffffff168473ffffffffffffffffffffffffffffffffffffffff161461367657613675818587613be3565b5b5f73ffffffffffffffffffffffffffffffffffffffff168173ffffffffffffffffffffffffffffffffffffffff1614613703576136b55f865f5f61342f565b6001826003015f8373ffffffffffffffffffffffffffffffffffffffff1673ffffffffffffffffffffffffffffffffffffffff1681526020019081526020015f205f82825403925050819055505b5f73ffffffffffffffffffffffffffffffffffffffff168673ffffffffffffffffffffffffffffffffffffffff1614613784576001826003015f8873ffffffffffffffffffffffffffffffffffffffff1673ffffffffffffffffffffffffffffffffffffffff1681526020019081526020015f205f82825401925050819055505b85826002015f8781526020019081526020015f205f6101000a81548173ffffffffffffffffffffffffffffffffffffffff021916908373ffffffffffffffffffffffffffffffffffffffff160217905550848673ffffffffffffffffffffffffffffffffffffffff168273ffffffffffffffffffffffffffffffffffffffff167fddf252ad1be2c89b69c2b068fc378daa952ba7f163c4a11628f55a4df523b3ef60405160405180910390a480925050509392505050565b5f6138687f360894a13ba1a3210667c828492db98dca3e2076cc3735a920a3ca505d382bbc5f1b613ca6565b5f015f9054906101000a900473ffffffffffffffffffffffffffffffffffffffff16905090565b61389882613caf565b8173ffffffffffffffffffffffffffffffffffffffff167fbc7cd75a20ee27fd9adebab32041f755214dbc6bffa90cc0225b39da2e5c2d3b60405160405180910390a25f815111156138f4576138ee8282613d78565b506138fd565b6138fc613e69565b5b5050565b5f7ff0c57e16840df040f15088dc2f81fe391c3923bec73e23a9662efc9c229c6a005f1b905090565b613932613ea5565b613968576040517fd7e6bcf800000000000000000000000000000000000000000000000000000000815260040160405180910390fd5b565b61397261392a565b5f61397b6124c0565b905082815f01908161398d9190614ee3565b508181600101908161399f9190614ee3565b50505050565b6139ad61392a565b5f73ffffffffffffffffffffffffffffffffffffffff168173ffffffffffffffffffffffffffffffffffffffff1603613a1d575f6040517f1e4fbdf7000000000000000000000000000000000000000000000000000000008152600401613a1491906141b7565b60405180910390fd5b613a2681612ab0565b50565b5f5f5f90507a184f03e93ff9f4daa797ed6e38ed64bf6a1f0100000000000000008310613a85577a184f03e93ff9f4daa797ed6e38ed64bf6a1f0100000000000000008381613a7b57613a7a614c54565b5b0492506040810190505b6d04ee2d6d415b85acef81000000008310613ac2576d04ee2d6d415b85acef81000000008381613ab857613ab7614c54565b5b0492506020810190505b662386f26fc100008310613af157662386f26fc100008381613ae757613ae6614c54565b5b0492506010810190505b6305f5e1008310613b1a576305f5e1008381613b1057613b0f614c54565b5b0492506008810190505b6127108310613b3f576127108381613b3557613b34614c54565b5b0492506004810190505b60648310613b625760648381613b5857613b57614c54565b5b0492506002810190505b600a8310613b71576001810190505b80915050919050565b5f7f01ffc9a7000000000000000000000000000000000000000000000000000000007bffffffffffffffffffffffffffffffffffffffffffffffffffffffff1916827bffffffffffffffffffffffffffffffffffffffffffffffffffffffff1916149050919050565b613bee838383613ec3565b613ca1575f73ffffffffffffffffffffffffffffffffffffffff168373ffffffffffffffffffffffffffffffffffffffff1603613c6257806040517f7e273289000000000000000000000000000000000000000000000000000000008152600401613c599190614247565b60405180910390fd5b81816040517f177e802f000000000000000000000000000000000000000000000000000000008152600401613c989291906142ee565b60405180910390fd5b505050565b5f819050919050565b5f8173ffffffffffffffffffffffffffffffffffffffff163b03613d0a57806040517f4c9c8ce3000000000000000000000000000000000000000000000000000000008152600401613d0191906141b7565b60405180910390fd5b80613d367f360894a13ba1a3210667c828492db98dca3e2076cc3735a920a3ca505d382bbc5f1b613ca6565b5f015f6101000a81548173ffffffffffffffffffffffffffffffffffffffff021916908373ffffffffffffffffffffffffffffffffffffffff16021790555050565b60605f613d858484613f83565b9050808015613dbb57505f613d98613f97565b1180613dba57505f8473ffffffffffffffffffffffffffffffffffffffff163b115b5b15613dd057613dc8613f9e565b915050613e63565b8015613e1357836040517f9996b315000000000000000000000000000000000000000000000000000000008152600401613e0a91906141b7565b60405180910390fd5b5f613e1c613f97565b1115613e2f57613e2a613fbb565b613e61565b6040517fd6bda27500000000000000000000000000000000000000000000000000000000815260040160405180910390fd5b505b92915050565b5f341115613ea3576040517fb398979f00000000000000000000000000000000000000000000000000000000815260040160405180910390fd5b565b5f613eae612d50565b5f0160089054906101000a900460ff16905090565b5f5f73ffffffffffffffffffffffffffffffffffffffff168373ffffffffffffffffffffffffffffffffffffffff1614158015613f7a57508273ffffffffffffffffffffffffffffffffffffffff168473ffffffffffffffffffffffffffffffffffffffff161480613f3b5750613f3a848461228a565b5b80613f7957508273ffffffffffffffffffffffffffffffffffffffff16613f618361256d565b73ffffffffffffffffffffffffffffffffffffffff16145b5b90509392505050565b5f5f5f835160208501865af4905092915050565b5f3d905090565b606060405190503d81523d5f602083013e3d602001810160405290565b6040513d5f823e3d81fd5b5f604051905090565b5f5ffd5b5f5ffd5b5f7fffffffff0000000000000000000000000000000000000000000000000000000082169050919050565b61400b81613fd7565b8114614015575f5ffd5b50565b5f8135905061402681614002565b92915050565b5f6020828403121561404157614040613fcf565b5b5f61404e84828501614018565b91505092915050565b5f8115159050919050565b61406b81614057565b82525050565b5f6020820190506140845f830184614062565b92915050565b5f81519050919050565b5f82825260208201905092915050565b8281835e5f83830152505050565b5f601f19601f8301169050919050565b5f6140cc8261408a565b6140d68185614094565b93506140e68185602086016140a4565b6140ef816140b2565b840191505092915050565b5f6020820190508181035f83015261411281846140c2565b905092915050565b5f819050919050565b61412c8161411a565b8114614136575f5ffd5b50565b5f8135905061414781614123565b92915050565b5f6020828403121561416257614161613fcf565b5b5f61416f84828501614139565b91505092915050565b5f73ffffffffffffffffffffffffffffffffffffffff82169050919050565b5f6141a182614178565b9050919050565b6141b181614197565b82525050565b5f6020820190506141ca5f8301846141a8565b92915050565b6141d981614197565b81146141e3575f5ffd5b50565b5f813590506141f4816141d0565b92915050565b5f5f604083850312156142105761420f613fcf565b5b5f61421d858286016141e6565b925050602061422e85828601614139565b9150509250929050565b6142418161411a565b82525050565b5f60208201905061425a5f830184614238565b92915050565b5f5f5f6060848603121561427757614276613fcf565b5b5f614284868287016141e6565b9350506020614295868287016141e6565b92505060406142a686828701614139565b9150509250925092565b5f5f604083850312156142c6576142c5613fcf565b5b5f6142d385828601614139565b92505060206142e485828601614139565b9150509250929050565b5f6040820190506143015f8301856141a8565b61430e6020830184614238565b9392505050565b5f5ffd5b5f5ffd5b7f4e487b71000000000000000000000000000000000000000000000000000000005f52604160045260245ffd5b614353826140b2565b810181811067ffffffffffffffff821117156143725761437161431d565b5b80604052505050565b5f614384613fc6565b9050614390828261434a565b919050565b5f67ffffffffffffffff8211156143af576143ae61431d565b5b6143b8826140b2565b9050602081019050919050565b828183375f83830152505050565b5f6143e56143e084614395565b61437b565b90508281526020810184848401111561440157614400614319565b5b61440c8482856143c5565b509392505050565b5f82601f83011261442857614427614315565b5b81356144388482602086016143d3565b91505092915050565b5f5f6040838503121561445757614456613fcf565b5b5f614464858286016141e6565b925050602083013567ffffffffffffffff81111561448557614484613fd3565b5b61449185828601614414565b9150509250929050565b5f819050919050565b6144ad8161449b565b82525050565b5f6020820190506144c65f8301846144a4565b92915050565b5f67ffffffffffffffff8211156144e6576144e561431d565b5b6144ef826140b2565b9050602081019050919050565b5f61450e614509846144cc565b61437b565b90508281526020810184848401111561452a57614529614319565b5b6145358482856143c5565b509392505050565b5f82601f83011261455157614550614315565b5b81356145618482602086016144fc565b91505092915050565b5f6020828403121561457f5761457e613fcf565b5b5f82013567ffffffffffffffff81111561459c5761459b613fd3565b5b6145a88482850161453d565b91505092915050565b5f602082840312156145c6576145c5613fcf565b5b5f6145d3848285016141e6565b91505092915050565b5f6bffffffffffffffffffffffff82169050919050565b6145fc816145dc565b8114614606575f5ffd5b50565b5f81359050614617816145f3565b92915050565b5f5f6040838503121561463357614632613fcf565b5b5f614640858286016141e6565b925050602061465185828601614609565b9150509250929050565b5f5ffd5b5f5ffd5b5f61016082840312156146795761467861465b565b5b61468461016061437b565b90505f82013567ffffffffffffffff8111156146a3576146a261465f565b5b6146af8482850161453d565b5f83015250602082013567ffffffffffffffff8111156146d2576146d161465f565b5b6146de8482850161453d565b602083015250604082013567ffffffffffffffff8111156147025761470161465f565b5b61470e8482850161453d565b604083015250606082013567ffffffffffffffff8111156147325761473161465f565b5b61473e8482850161453d565b606083015250608082013567ffffffffffffffff8111156147625761476161465f565b5b61476e8482850161453d565b60808301525060a0614782848285016141e6565b60a08301525060c061479684828501614609565b60c08301525060e06147aa84828501614139565b60e0830152506101006147bf84828501614139565b610100830152506101206147d584828501614139565b610120830152506101406147eb848285016141e6565b6101408301525092915050565b5f6020828403121561480d5761480c613fcf565b5b5f82013567ffffffffffffffff81111561482a57614829613fd3565b5b61483684828501614663565b91505092915050565b5f6040820190506148525f830185614238565b61485f60208301846141a8565b9392505050565b61486f81614057565b8114614879575f5ffd5b50565b5f8135905061488a81614866565b92915050565b5f5f604083850312156148a6576148a5613fcf565b5b5f6148b3858286016141e6565b92505060206148c48582860161487c565b9150509250929050565b5f5f5f5f608085870312156148e6576148e5613fcf565b5b5f6148f3878288016141e6565b9450506020614904878288016141e6565b935050604061491587828801614139565b925050606085013567ffffffffffffffff81111561493657614935613fd3565b5b61494287828801614414565b91505092959194509250565b5f5f6040838503121561496457614963613fcf565b5b5f614971858286016141e6565b9250506020614982858286016141e6565b9150509250929050565b5f5f604083850312156149a2576149a1613fcf565b5b5f6149af85828601614139565b92505060206149c0858286016141e6565b9150509250929050565b7f4e487b71000000000000000000000000000000000000000000000000000000005f52602260045260245ffd5b5f6002820490506001821680614a0e57607f821691505b602082108103614a2157614a206149ca565b5b50919050565b5f81905092915050565b50565b5f614a3f5f83614a27565b9150614a4a82614a31565b5f82019050919050565b5f614a5e82614a34565b9150819050919050565b5f81905092915050565b7f696e7374616e74000000000000000000000000000000000000000000000000005f82015250565b5f614aa6600783614a68565b9150614ab182614a72565b600782019050919050565b5f614ac682614a9a565b9150819050919050565b5f819050815f5260205f209050919050565b5f8154614aee816149f7565b614af88186614a68565b9450600182165f8114614b125760018114614b2757614b59565b60ff1983168652811515820286019350614b59565b614b3085614ad0565b5f5b83811015614b5157815481890152600182019150602081019050614b32565b838801955050505b50505092915050565b5f614b6d8284614ae2565b915081905092915050565b7f4e487b71000000000000000000000000000000000000000000000000000000005f52601160045260245ffd5b5f614baf8261411a565b9150614bba8361411a565b9250828203905081811115614bd257614bd1614b78565b5b92915050565b5f614be28261411a565b91507fffffffffffffffffffffffffffffffffffffffffffffffffffffffffffffffff8203614c1457614c13614b78565b5b600182019050919050565b5f606082019050614c325f8301866141a8565b614c3f6020830185614238565b614c4c60408301846141a8565b949350505050565b7f4e487b71000000000000000000000000000000000000000000000000000000005f52601260045260245ffd5b5f614c8b8261411a565b9150614c968361411a565b925082614ca657614ca5614c54565b5b828206905092915050565b5f614cbb8261411a565b9150614cc68361411a565b9250828201905080821115614cde57614cdd614b78565b5b92915050565b5f614cee8261411a565b9150614cf98361411a565b9250828202614d078161411a565b91508282048414831517614d1e57614d1d614b78565b5b5092915050565b5f614d2f8261411a565b9150614d3a8361411a565b925082614d4a57614d49614c54565b5b828204905092915050565b5f6020601f8301049050919050565b5f82821b905092915050565b5f60088302614d9f7fffffffffffffffffffffffffffffffffffffffffffffffffffffffffffffffff82614d64565b614da98683614d64565b95508019841693508086168417925050509392505050565b5f819050919050565b5f614de4614ddf614dda8461411a565b614dc1565b61411a565b9050919050565b5f819050919050565b614dfd83614dca565b614e11614e0982614deb565b848454614d70565b825550505050565b5f5f905090565b614e28614e19565b614e33818484614df4565b505050565b5b81811015614e5657614e4b5f82614e20565b600181019050614e39565b5050565b601f821115614e9b57614e6c81614ad0565b614e7584614d55565b81016020851015614e84578190505b614e98614e9085614d55565b830182614e38565b50505b505050565b5f82821c905092915050565b5f614ebb5f1984600802614ea0565b1980831691505092915050565b5f614ed38383614eac565b9150826002028217905092915050565b614eec8261408a565b67ffffffffffffffff811115614f0557614f0461431d565b5b614f0f82546149f7565b614f1a828285614e5a565b5f60209050601f831160018114614f4b575f8415614f39578287015190505b614f438582614ec8565b865550614faa565b601f198416614f5986614ad0565b5f5b82811015614f8057848901518255600182019150602085019450602081019050614f5b565b86831015614f9d5784890151614f99601f891682614eac565b8355505b6001600288020188555050505b505050505050565b5f81519050614fc081614123565b92915050565b5f60208284031215614fdb57614fda613fcf565b5b5f614fe884828501614fb2565b91505092915050565b5f6040820190508181035f83015261500981856140c2565b9050818103602083015261501d81846140c2565b90509392505050565b5f819050919050565b5f67ffffffffffffffff82169050919050565b5f61505c61505761505284615026565b614dc1565b61502f565b9050919050565b61506c81615042565b82525050565b5f6020820190506150855f830184615063565b92915050565b5f6150958261408a565b61509f8185614a68565b93506150af8185602086016140a4565b80840191505092915050565b5f6150c6828561508b565b91506150d2828461508b565b91508190509392505050565b5f819050919050565b6150f86150f38261411a565b6150de565b82525050565b5f819050919050565b6151186151138261449b565b6150fe565b82525050565b5f8160601b9050919050565b5f6151348261511e565b9050919050565b5f6151458261512a565b9050919050565b61515d61515882614197565b61513b565b82525050565b5f61516e82896150e7565b60208201915061517e82886150e7565b60208201915061518e8287615107565b60208201915061519e828661514c565b6014820191506151ae82856150e7565b6020820191506151be82846150e7565b602082019150819050979650505050505050565b6151db8161449b565b81146151e5575f5ffd5b50565b5f815190506151f6816151d2565b92915050565b5f6020828403121561521157615210613fcf565b5b5f61521e848285016151e8565b91505092915050565b5f61524161523c615237846145dc565b614dc1565b61411a565b9050919050565b61525181615227565b82525050565b5f60408201905061526a5f830185615248565b6152776020830184614238565b9392505050565b5f81519050919050565b5f82825260208201905092915050565b5f6152a28261527e565b6152ac8185615288565b93506152bc8185602086016140a4565b6152c5816140b2565b840191505092915050565b5f6080820190506152e35f8301876141a8565b6152f060208301866141a8565b6152fd6040830185614238565b818103606083015261530f8184615298565b905095945050505050565b5f8151905061532881614002565b92915050565b5f6020828403121561534357615342613fcf565b5b5f6153508482850161531a565b9150509291505056fea2646970667358221220a0a2f0b1edf1428c7de66bb7fa348cd854fc1a7dd69dc95f7bb32f59d1ed567464736f6c634300081e0033","linkReferences":{}},"methodIdentifiers":{"UPGRADE_INTERFACE_VERSION()":"ad3cb1cc","approve(address,uint256)":"095ea7b3","balanceOf(address)":"70a08231","batchMintSupply()":"404146b1","delayedReveal(uint256)":"968eb9ea","getApproved(uint256)":"081812fc","getDefaultRoyaltyReceiver()":"3403c4e9","getNextTokenId()":"caa0f92a","getRevealedCount()":"1fd63a23","getRevealedTraitIndex(uint256)":"a1a7b9c1","getRoyaltyByTokenId(uint256,uint256)":"98b38d70","getSupply()":"6c9c2faf","getVRFAdapter()":"55e32e75","initialize((string,string,string,string,string,address,uint96,uint256,uint256,uint256,address))":"986153cc","isApprovedForAll(address,address)":"e985e9c5","isRevealed(uint256)":"5055fbc3","isTokenApproved(uint256,address)":"f5744b06","maxSupply()":"d5abeb01","mint()":"1249c58b","mintPrice()":"6817c76c","name()":"06fdde03","nextUnrevealedIndex(uint256)":"685f41df","owner()":"8da5cb5b","ownerOf(uint256)":"6352211e","proxiableUUID()":"52d1902d","remainingSupply()":"da0239a6","renounceOwnership()":"715018a6","revealType()":"a2af294f","revealWithRandomNumber(uint256,uint256)":"27fce3fb","royaltyInfo(uint256,uint256)":"2a55205a","safeTransferFrom(address,address,uint256)":"42842e0e","safeTransferFrom(address,address,uint256,bytes)":"b88d4fde","setApprovalForAll(address,bool)":"a22cb465","setBaseURI(string)":"55f804b3","setMintPrice(uint256)":"f4a0a528","setNewDefaultRoyaltyInfo(address,uint96)":"72e41663","setPaymentReceiver(address)":"65ebf99a","supportsInterface(bytes4)":"01ffc9a7","symbol()":"95d89b41","tokenURI(uint256)":"c87b56dd","transferFrom(address,address,uint256)":"23b872dd","transferOwnership(address)":"f2fde38b","upgradeToAndCall(address,bytes)":"4f1ef286","withdraw()":"3ccfd60b"},"id":65}