{"abi":[{"type":"constructor","inputs":[],"stateMutability":"nonpayable"},{"type":"function","name":"UPGRADE_INTERFACE_VERSION","inputs":[],"outputs":[{"name":"","type":"string","internalType":"string"}],"stateMutability":"view"},{"type":"function","name":"activateStaking","inputs":[],"outputs":[],"stateMutability":"nonpayable"},{"type":"function","name":"checkUserStakeNFT","inputs":[{"name":"user","type":"address","internalType":"address"},{"name":"collectionId","type":"uint256","internalType":"uint256"},{"name":"tokenId","type":"uint256","internalType":"uint256"}],"outputs":[{"name":"","type":"bool","internalType":"bool"}],"stateMutability":"view"},{"type":"function","name":"getCollectionAddress","inputs":[{"name":"collectionId","type":"uint256","internalType":"uint256"}],"outputs":[{"name":"collectionAddress","type":"address","internalType":"address"}],"stateMutability":"view"},{"type":"function","name":"getFactoryAddress","inputs":[],"outputs":[{"name":"","type":"address","internalType":"address"}],"stateMutability":"view"},{"type":"function","name":"getRewardAmount","inputs":[],"outputs":[{"name":"","type":"uint256","internalType":"uint256"}],"stateMutability":"view"},{"type":"function","name":"getStakedTimestamp","inputs":[{"name":"collectionId","type":"uint256","internalType":"uint256"},{"name":"tokenId","type":"uint256","internalType":"uint256"}],"outputs":[{"name":"","type":"uint256","internalType":"uint256"}],"stateMutability":"view"},{"type":"function","name":"getStaker","inputs":[{"name":"collectionId","type":"uint256","internalType":"uint256"},{"name":"tokenId","type":"uint256","internalType":"uint256"}],"outputs":[{"name":"","type":"address","internalType":"address"}],"stateMutability":"view"},{"type":"function","name":"getUserStakedNFT","inputs":[{"name":"user","type":"address","internalType":"address"},{"name":"collectionAddress","type":"address","internalType":"address"},{"name":"tokenId","type":"uint256","internalType":"uint256"}],"outputs":[{"name":"","type":"bool","internalType":"bool"}],"stateMutability":"view"},{"type":"function","name":"getUserTokenStaked","inputs":[{"name":"user","type":"address","internalType":"address"},{"name":"collectionId","type":"uint256","internalType":"uint256"}],"outputs":[{"name":"","type":"uint256[]","internalType":"uint256[]"}],"stateMutability":"view"},{"type":"function","name":"initialize","inputs":[{"name":"multisigTimelock","type":"address","internalType":"address"}],"outputs":[],"stateMutability":"nonpayable"},{"type":"function","name":"isStakingActive","inputs":[],"outputs":[{"name":"","type":"bool","internalType":"bool"}],"stateMutability":"view"},{"type":"function","name":"onERC721Received","inputs":[{"name":"","type":"address","internalType":"address"},{"name":"","type":"address","internalType":"address"},{"name":"","type":"uint256","internalType":"uint256"},{"name":"","type":"bytes","internalType":"bytes"}],"outputs":[{"name":"","type":"bytes4","internalType":"bytes4"}],"stateMutability":"pure"},{"type":"function","name":"proxiableUUID","inputs":[],"outputs":[{"name":"","type":"bytes32","internalType":"bytes32"}],"stateMutability":"view"},{"type":"function","name":"setFactoryAddress","inputs":[{"name":"newFactoryAddress","type":"address","internalType":"address"}],"outputs":[],"stateMutability":"nonpayable"},{"type":"function","name":"setMultisigTimelock","inputs":[{"name":"multisigTimelock","type":"address","internalType":"address"}],"outputs":[],"stateMutability":"nonpayable"},{"type":"function","name":"setRewardAmount","inputs":[{"name":"amount","type":"uint256","internalType":"uint256"}],"outputs":[],"stateMutability":"nonpayable"},{"type":"function","name":"stake","inputs":[{"name":"collectionId","type":"uint256","internalType":"uint256"},{"name":"tokenId","type":"uint256","internalType":"uint256"}],"outputs":[],"stateMutability":"nonpayable"},{"type":"function","name":"stopStaking","inputs":[],"outputs":[],"stateMutability":"nonpayable"},{"type":"function","name":"unstakeNFT","inputs":[{"name":"collectionId","type":"uint256","internalType":"uint256"},{"name":"tokenId","type":"uint256","internalType":"uint256"}],"outputs":[],"stateMutability":"nonpayable"},{"type":"function","name":"upgradeToAndCall","inputs":[{"name":"newImplementation","type":"address","internalType":"address"},{"name":"data","type":"bytes","internalType":"bytes"}],"outputs":[],"stateMutability":"payable"},{"type":"event","name":"Initialized","inputs":[{"name":"version","type":"uint64","indexed":false,"internalType":"uint64"}],"anonymous":false},{"type":"event","name":"NFTStaked","inputs":[{"name":"staker","type":"address","indexed":true,"internalType":"address"},{"name":"collectionId","type":"uint256","indexed":true,"internalType":"uint256"},{"name":"tokenId","type":"uint256","indexed":true,"internalType":"uint256"},{"name":"timestamp","type":"uint256","indexed":false,"internalType":"uint256"}],"anonymous":false},{"type":"event","name":"NFTUnstaked","inputs":[{"name":"staker","type":"address","indexed":true,"internalType":"address"},{"name":"collectionId","type":"uint256","indexed":true,"internalType":"uint256"},{"name":"tokenId","type":"uint256","indexed":true,"internalType":"uint256"},{"name":"timestamp","type":"uint256","indexed":false,"internalType":"uint256"}],"anonymous":false},{"type":"event","name":"NewFactoryAddressSet","inputs":[{"name":"factory","type":"address","indexed":true,"internalType":"address"}],"anonymous":false},{"type":"event","name":"NewMultisigTimelockSet","inputs":[{"name":"multisigTimelock","type":"address","indexed":true,"internalType":"address"}],"anonymous":false},{"type":"event","name":"NewRewardAmountSet","inputs":[{"name":"amount","type":"uint256","indexed":true,"internalType":"uint256"}],"anonymous":false},{"type":"event","name":"StakingIsActive","inputs":[],"anonymous":false},{"type":"event","name":"StakingIsStopped","inputs":[],"anonymous":false},{"type":"event","name":"Upgraded","inputs":[{"name":"implementation","type":"address","indexed":true,"internalType":"address"}],"anonymous":false},{"type":"error","name":"AddressEmptyCode","inputs":[{"name":"target","type":"address","internalType":"address"}]},{"type":"error","name":"ERC1967InvalidImplementation","inputs":[{"name":"implementation","type":"address","internalType":"address"}]},{"type":"error","name":"ERC1967NonPayable","inputs":[]},{"type":"error","name":"FailedCall","inputs":[]},{"type":"error","name":"InsufficientContractBalance","inputs":[]},{"type":"error","name":"InvalidCollectionAddress","inputs":[]},{"type":"error","name":"InvalidInitialization","inputs":[]},{"type":"error","name":"InvalidTimestamp","inputs":[]},{"type":"error","name":"NFTAlreadyStaked","inputs":[]},{"type":"error","name":"NFTNotStaked","inputs":[]},{"type":"error","name":"NFTNotStakedByUser","inputs":[]},{"type":"error","name":"NoApprovedForStakingContract","inputs":[]},{"type":"error","name":"NoFactoryAddress","inputs":[]},{"type":"error","name":"NotAMultisigTimelock","inputs":[]},{"type":"error","name":"NotInitializing","inputs":[]},{"type":"error","name":"NotNFTOwner","inputs":[]},{"type":"error","name":"PaymentFailed","inputs":[]},{"type":"error","name":"StakingAlreadyActive","inputs":[]},{"type":"error","name":"StakingAlreadyStopped","inputs":[]},{"type":"error","name":"StakingIsNotActive","inputs":[]},{"type":"error","name":"UUPSUnauthorizedCallContext","inputs":[]},{"type":"error","name":"UUPSUnsupportedProxiableUUID","inputs":[{"name":"slot","type":"bytes32","internalType":"bytes32"}]},{"type":"error","name":"ZeroAddress","inputs":[]}],"bytecode":{"object":"0x60a06040523073ffffffffffffffffffffffffffffffffffffffff1660809073ffffffffffffffffffffffffffffffffffffffff16815250348015610042575f5ffd5b5061005161005660201b60201c565b6101d1565b5f61006561015460201b60201c565b9050805f0160089054906101000a900460ff16156100af576040517ff92ee8a900000000000000000000000000000000000000000000000000000000815260040160405180910390fd5b67ffffffffffffffff8016815f015f9054906101000a900467ffffffffffffffff1667ffffffffffffffff16146101515767ffffffffffffffff815f015f6101000a81548167ffffffffffffffff021916908367ffffffffffffffff1602179055507fc7f505b2f371ae2175ee4913f4499e1f2633a7b5936321eed1cdaeb6115181d267ffffffffffffffff60405161014891906101b8565b60405180910390a15b50565b5f5f61016461016d60201b60201c565b90508091505090565b5f7ff0c57e16840df040f15088dc2f81fe391c3923bec73e23a9662efc9c229c6a005f1b905090565b5f67ffffffffffffffff82169050919050565b6101b281610196565b82525050565b5f6020820190506101cb5f8301846101a9565b92915050565b6080516136e96101f75f395f8181612468015281816124bd015261277001526136e95ff3fe608060405260043610610129575f3560e01c806352d1902d116100aa57806393af01701161006e57806393af0170146103e55780639cc99a3d146103fb578063a8a65a7814610437578063a9c2e36c1461045f578063ad3cb1cc14610489578063c4d66de8146104b357610129565b806352d1902d1461031957806361f644571461034357806374bbc8001461036d5780637b0472f01461039557806383c17c55146103bd57610129565b806327ffeeeb116100f157806327ffeeeb14610221578063333671a41461025d57806340127061146102995780634ecb98e3146102d55780634f1ef286146102fd57610129565b80630550b2661461012d57806309a69f57146101435780630d8c46531461016d578063150b7a02146101a95780631cfba78c146101e5575b5f5ffd5b348015610138575f5ffd5b506101416104db565b005b34801561014e575f5ffd5b506101576106ef565b6040516101649190612b50565b60405180910390f35b348015610178575f5ffd5b50610193600480360381019061018e9190612ba4565b6106f8565b6040516101a09190612c21565b60405180910390f35b3480156101b4575f5ffd5b506101cf60048036038101906101ca9190612cc5565b61077a565b6040516101dc9190612d83565b60405180910390f35b3480156101f0575f5ffd5b5061020b60048036038101906102069190612ba4565b61078e565b6040516102189190612b50565b60405180910390f35b34801561022c575f5ffd5b5061024760048036038101906102429190612d9c565b6107f1565b6040516102549190612e06565b60405180910390f35b348015610268575f5ffd5b50610283600480360381019061027e9190612e1f565b61089c565b6040516102909190612c21565b60405180910390f35b3480156102a4575f5ffd5b506102bf60048036038101906102ba9190612e4a565b610a92565b6040516102cc9190612e06565b60405180910390f35b3480156102e0575f5ffd5b506102fb60048036038101906102f69190612ba4565b610b30565b005b61031760048036038101906103129190612fd2565b61135b565b005b348015610324575f5ffd5b5061032d61137a565b60405161033a9190613044565b60405180910390f35b34801561034e575f5ffd5b506103576113ab565b6040516103649190612e06565b60405180910390f35b348015610378575f5ffd5b50610393600480360381019061038e919061305d565b6113c1565b005b3480156103a0575f5ffd5b506103bb60048036038101906103b69190612ba4565b6115ad565b005b3480156103c8575f5ffd5b506103e360048036038101906103de919061305d565b611bba565b005b3480156103f0575f5ffd5b506103f9611da5565b005b348015610406575f5ffd5b50610421600480360381019061041c9190613088565b611fbb565b60405161042e919061317d565b60405180910390f35b348015610442575f5ffd5b5061045d60048036038101906104589190612e1f565b612097565b005b34801561046a575f5ffd5b506104736121cf565b6040516104809190612c21565b60405180910390f35b348015610494575f5ffd5b5061049d6121f6565b6040516104aa91906131fd565b60405180910390f35b3480156104be575f5ffd5b506104d960048036038101906104d4919061305d565b61222f565b005b60025f9054906101000a900473ffffffffffffffffffffffffffffffffffffffff1673ffffffffffffffffffffffffffffffffffffffff163373ffffffffffffffffffffffffffffffffffffffff1614610561576040517fc33e396f00000000000000000000000000000000000000000000000000000000815260040160405180910390fd5b60025f9054906101000a900473ffffffffffffffffffffffffffffffffffffffff1673ffffffffffffffffffffffffffffffffffffffff16632bb02d4e6040518163ffffffff1660e01b81526004015f6040518083038186803b1580156105c6575f5ffd5b505afa1580156105d8573d5f5f3e3d5ffd5b50505050600260149054906101000a900460ff16610622576040517f6300c39400000000000000000000000000000000000000000000000000000000815260040160405180910390fd5b5f73ffffffffffffffffffffffffffffffffffffffff165f5f9054906101000a900473ffffffffffffffffffffffffffffffffffffffff1673ffffffffffffffffffffffffffffffffffffffff16036106a7576040517fd70f4c5100000000000000000000000000000000000000000000000000000000815260040160405180910390fd5b5f600260146101000a81548160ff0219169083151502179055507f13e345ade173f028ba580c58a86d02736ed2a2cd97443821e76e163d8f126b2860405160405180910390a1565b5f600154905090565b5f5f6107038461089c565b905060035f8273ffffffffffffffffffffffffffffffffffffffff1673ffffffffffffffffffffffffffffffffffffffff1681526020019081526020015f205f8481526020019081526020015f205f9054906101000a900473ffffffffffffffffffffffffffffffffffffffff1691505092915050565b5f63150b7a0260e01b905095945050505050565b5f5f6107998461089c565b905060045f8273ffffffffffffffffffffffffffffffffffffffff1673ffffffffffffffffffffffffffffffffffffffff1681526020019081526020015f205f8481526020019081526020015f205491505092915050565b5f5f6107fc8461089c565b905060065f8673ffffffffffffffffffffffffffffffffffffffff1673ffffffffffffffffffffffffffffffffffffffff1681526020019081526020015f205f8273ffffffffffffffffffffffffffffffffffffffff1673ffffffffffffffffffffffffffffffffffffffff1681526020019081526020015f205f8481526020019081526020015f205f9054906101000a900460ff169150509392505050565b5f5f5f9054906101000a900473ffffffffffffffffffffffffffffffffffffffff1673ffffffffffffffffffffffffffffffffffffffff16633ca82d95836040518263ffffffff1660e01b81526004016108f69190612b50565b602060405180830381865afa92505050801561093057506040513d601f19601f8201168201806040525081019061092d9190613231565b60015b610a245761093c613268565b806308c379a0036109b75750610950613287565b8061095b57506109b9565b8060405160200161096c9190613376565b6040516020818303038152906040526040517f08c379a00000000000000000000000000000000000000000000000000000000081526004016109ae91906131fd565b60405180910390fd5b505b3d805f81146109e3576040519150601f19603f3d011682016040523d82523d5f602084013e6109e8565b606091505b506040517f08c379a0000000000000000000000000000000000000000000000000000000008152600401610a1b906133e5565b60405180910390fd5b809150505f73ffffffffffffffffffffffffffffffffffffffff168173ffffffffffffffffffffffffffffffffffffffff1603610a8d576040517fdb781b8300000000000000000000000000000000000000000000000000000000815260040160405180910390fd5b919050565b5f60065f8573ffffffffffffffffffffffffffffffffffffffff1673ffffffffffffffffffffffffffffffffffffffff1681526020019081526020015f205f8473ffffffffffffffffffffffffffffffffffffffff1673ffffffffffffffffffffffffffffffffffffffff1681526020019081526020015f205f8381526020019081526020015f205f9054906101000a900460ff1690509392505050565b600260149054906101000a900460ff16610b76576040517f6300c39400000000000000000000000000000000000000000000000000000000815260040160405180910390fd5b5f73ffffffffffffffffffffffffffffffffffffffff165f5f9054906101000a900473ffffffffffffffffffffffffffffffffffffffff1673ffffffffffffffffffffffffffffffffffffffff1603610bfb576040517fd70f4c5100000000000000000000000000000000000000000000000000000000815260040160405180910390fd5b5f73ffffffffffffffffffffffffffffffffffffffff165f5f9054906101000a900473ffffffffffffffffffffffffffffffffffffffff1673ffffffffffffffffffffffffffffffffffffffff1603610c80576040517fd70f4c5100000000000000000000000000000000000000000000000000000000815260040160405180910390fd5b5f610c8a8361089c565b90503373ffffffffffffffffffffffffffffffffffffffff1660035f8373ffffffffffffffffffffffffffffffffffffffff1673ffffffffffffffffffffffffffffffffffffffff1681526020019081526020015f205f8481526020019081526020015f205f9054906101000a900473ffffffffffffffffffffffffffffffffffffffff1673ffffffffffffffffffffffffffffffffffffffff1614610d5c576040517fec76d92700000000000000000000000000000000000000000000000000000000815260040160405180910390fd5b5f8190505f8173ffffffffffffffffffffffffffffffffffffffff16636352211e856040518263ffffffff1660e01b8152600401610d9a9190612b50565b602060405180830381865afa158015610db5573d5f5f3e3d5ffd5b505050506040513d601f19601f82011682018060405250810190610dd99190613231565b90503073ffffffffffffffffffffffffffffffffffffffff168173ffffffffffffffffffffffffffffffffffffffff1614610e40576040517fda70723f00000000000000000000000000000000000000000000000000000000815260040160405180910390fd5b60035f8473ffffffffffffffffffffffffffffffffffffffff1673ffffffffffffffffffffffffffffffffffffffff1681526020019081526020015f205f8581526020019081526020015f205f6101000a81549073ffffffffffffffffffffffffffffffffffffffff021916905560065f3373ffffffffffffffffffffffffffffffffffffffff1673ffffffffffffffffffffffffffffffffffffffff1681526020019081526020015f205f8473ffffffffffffffffffffffffffffffffffffffff1673ffffffffffffffffffffffffffffffffffffffff1681526020019081526020015f205f8581526020019081526020015f205f6101000a81549060ff02191690555f60055f3373ffffffffffffffffffffffffffffffffffffffff1673ffffffffffffffffffffffffffffffffffffffff1681526020019081526020015f205f8573ffffffffffffffffffffffffffffffffffffffff1673ffffffffffffffffffffffffffffffffffffffff1681526020019081526020015f2090505f5f90505b81805490508110156110715785828281548110610fe457610fe3613403565b5b905f5260205f20015403611066578160018380549050611004919061345d565b8154811061101557611014613403565b5b905f5260205f20015482828154811061103157611030613403565b5b905f5260205f2001819055508180548061104e5761104d613490565b5b600190038181905f5260205f20015f90559055611071565b806001019050610fc4565b508273ffffffffffffffffffffffffffffffffffffffff166342842e0e3033886040518463ffffffff1660e01b81526004016110af939291906134bd565b5f604051808303815f87803b1580156110c6575f5ffd5b505af11580156110d8573d5f5f3e3d5ffd5b505050505f60045f8673ffffffffffffffffffffffffffffffffffffffff1673ffffffffffffffffffffffffffffffffffffffff1681526020019081526020015f205f8781526020019081526020015f205442611135919061345d565b90505f60045f8773ffffffffffffffffffffffffffffffffffffffff1673ffffffffffffffffffffffffffffffffffffffff1681526020019081526020015f205f8881526020019081526020015f2054148061119057505f81145b156111c7576040517fb7d0949700000000000000000000000000000000000000000000000000000000815260040160405180910390fd5b5f816001546111d691906134f2565b905080471015611212576040517f786e0a9900000000000000000000000000000000000000000000000000000000815260040160405180910390fd5b5f3373ffffffffffffffffffffffffffffffffffffffff168260405161123790613560565b5f6040518083038185875af1925050503d805f8114611271576040519150601f19603f3d011682016040523d82523d5f602084013e611276565b606091505b50509050806112b1576040517ff499da2000000000000000000000000000000000000000000000000000000000815260040160405180910390fd5b60045f8873ffffffffffffffffffffffffffffffffffffffff1673ffffffffffffffffffffffffffffffffffffffff1681526020019081526020015f205f8981526020019081526020015f205f905587893373ffffffffffffffffffffffffffffffffffffffff167f84bcc89bc1b3cb66a2b22a282fa6e1bb013db80ebce0e9c70f9beba416ac2b70426040516113489190612b50565b60405180910390a4505050505050505050565b611363612466565b61136c8261254c565b6113768282612650565b5050565b5f61138361276e565b7f360894a13ba1a3210667c828492db98dca3e2076cc3735a920a3ca505d382bbc5f1b905090565b5f600260149054906101000a900460ff16905090565b60025f9054906101000a900473ffffffffffffffffffffffffffffffffffffffff1673ffffffffffffffffffffffffffffffffffffffff163373ffffffffffffffffffffffffffffffffffffffff1614611447576040517fc33e396f00000000000000000000000000000000000000000000000000000000815260040160405180910390fd5b60025f9054906101000a900473ffffffffffffffffffffffffffffffffffffffff1673ffffffffffffffffffffffffffffffffffffffff16632bb02d4e6040518163ffffffff1660e01b81526004015f6040518083038186803b1580156114ac575f5ffd5b505afa1580156114be573d5f5f3e3d5ffd5b505050505f73ffffffffffffffffffffffffffffffffffffffff168173ffffffffffffffffffffffffffffffffffffffff1603611527576040517fd92e233d00000000000000000000000000000000000000000000000000000000815260040160405180910390fd5b8060025f6101000a81548173ffffffffffffffffffffffffffffffffffffffff021916908373ffffffffffffffffffffffffffffffffffffffff1602179055508073ffffffffffffffffffffffffffffffffffffffff167f33e9027b020490a1921cf83d5db29b7cb2efb68a14ef44d30b46933f11c4d44760405160405180910390a250565b600260149054906101000a900460ff166115f3576040517f6300c39400000000000000000000000000000000000000000000000000000000815260040160405180910390fd5b5f73ffffffffffffffffffffffffffffffffffffffff165f5f9054906101000a900473ffffffffffffffffffffffffffffffffffffffff1673ffffffffffffffffffffffffffffffffffffffff1603611678576040517fd70f4c5100000000000000000000000000000000000000000000000000000000815260040160405180910390fd5b5f6116828361089c565b90505f8190505f73ffffffffffffffffffffffffffffffffffffffff1660035f8473ffffffffffffffffffffffffffffffffffffffff1673ffffffffffffffffffffffffffffffffffffffff1681526020019081526020015f205f8581526020019081526020015f205f9054906101000a900473ffffffffffffffffffffffffffffffffffffffff1673ffffffffffffffffffffffffffffffffffffffff1614611758576040517f9c96118800000000000000000000000000000000000000000000000000000000815260040160405180910390fd5b3373ffffffffffffffffffffffffffffffffffffffff168173ffffffffffffffffffffffffffffffffffffffff16636352211e856040518263ffffffff1660e01b81526004016117a89190612b50565b602060405180830381865afa1580156117c3573d5f5f3e3d5ffd5b505050506040513d601f19601f820116820180604052508101906117e79190613231565b73ffffffffffffffffffffffffffffffffffffffff1614611834576040517f4088c61c00000000000000000000000000000000000000000000000000000000815260040160405180910390fd5b8073ffffffffffffffffffffffffffffffffffffffff1663f5744b0684306040518363ffffffff1660e01b815260040161186f929190613574565b602060405180830381865afa15801561188a573d5f5f3e3d5ffd5b505050506040513d601f19601f820116820180604052508101906118ae91906135c5565b6118e4576040517f06b13be900000000000000000000000000000000000000000000000000000000815260040160405180910390fd5b8073ffffffffffffffffffffffffffffffffffffffff166342842e0e3330866040518463ffffffff1660e01b8152600401611921939291906134bd565b5f604051808303815f87803b158015611938575f5ffd5b505af115801561194a573d5f5f3e3d5ffd5b505050503360035f8473ffffffffffffffffffffffffffffffffffffffff1673ffffffffffffffffffffffffffffffffffffffff1681526020019081526020015f205f8581526020019081526020015f205f6101000a81548173ffffffffffffffffffffffffffffffffffffffff021916908373ffffffffffffffffffffffffffffffffffffffff160217905550600160065f3373ffffffffffffffffffffffffffffffffffffffff1673ffffffffffffffffffffffffffffffffffffffff1681526020019081526020015f205f8473ffffffffffffffffffffffffffffffffffffffff1673ffffffffffffffffffffffffffffffffffffffff1681526020019081526020015f205f8581526020019081526020015f205f6101000a81548160ff02191690831515021790555060055f3373ffffffffffffffffffffffffffffffffffffffff1673ffffffffffffffffffffffffffffffffffffffff1681526020019081526020015f205f8373ffffffffffffffffffffffffffffffffffffffff1673ffffffffffffffffffffffffffffffffffffffff1681526020019081526020015f2083908060018154018082558091505060019003905f5260205f20015f90919091909150554260045f8473ffffffffffffffffffffffffffffffffffffffff1673ffffffffffffffffffffffffffffffffffffffff1681526020019081526020015f205f8581526020019081526020015f208190555082843373ffffffffffffffffffffffffffffffffffffffff167f375f4f041ef0aea92b9f42612f1cf95d9be53adf8c2723e05d11ca6617caded942604051611bac9190612b50565b60405180910390a450505050565b60025f9054906101000a900473ffffffffffffffffffffffffffffffffffffffff1673ffffffffffffffffffffffffffffffffffffffff163373ffffffffffffffffffffffffffffffffffffffff1614611c40576040517fc33e396f00000000000000000000000000000000000000000000000000000000815260040160405180910390fd5b60025f9054906101000a900473ffffffffffffffffffffffffffffffffffffffff1673ffffffffffffffffffffffffffffffffffffffff16632bb02d4e6040518163ffffffff1660e01b81526004015f6040518083038186803b158015611ca5575f5ffd5b505afa158015611cb7573d5f5f3e3d5ffd5b505050505f73ffffffffffffffffffffffffffffffffffffffff168173ffffffffffffffffffffffffffffffffffffffff1603611d20576040517fd92e233d00000000000000000000000000000000000000000000000000000000815260040160405180910390fd5b805f5f6101000a81548173ffffffffffffffffffffffffffffffffffffffff021916908373ffffffffffffffffffffffffffffffffffffffff1602179055508073ffffffffffffffffffffffffffffffffffffffff167fc4ef348f8e4e2576aca53cd875c06757dcf06c4605b25963f09df341d9e8c68960405160405180910390a250565b60025f9054906101000a900473ffffffffffffffffffffffffffffffffffffffff1673ffffffffffffffffffffffffffffffffffffffff163373ffffffffffffffffffffffffffffffffffffffff1614611e2b576040517fc33e396f00000000000000000000000000000000000000000000000000000000815260040160405180910390fd5b60025f9054906101000a900473ffffffffffffffffffffffffffffffffffffffff1673ffffffffffffffffffffffffffffffffffffffff16632bb02d4e6040518163ffffffff1660e01b81526004015f6040518083038186803b158015611e90575f5ffd5b505afa158015611ea2573d5f5f3e3d5ffd5b505050505f73ffffffffffffffffffffffffffffffffffffffff165f5f9054906101000a900473ffffffffffffffffffffffffffffffffffffffff1673ffffffffffffffffffffffffffffffffffffffff1603611f2b576040517fd70f4c5100000000000000000000000000000000000000000000000000000000815260040160405180910390fd5b600260149054906101000a900460ff1615611f72576040517f9e40792b00000000000000000000000000000000000000000000000000000000815260040160405180910390fd5b6001600260146101000a81548160ff0219169083151502179055507f93a6f7eda50ac80576e7ccbbb72cf24d73627e788ff603a01caef5cc7788380160405160405180910390a1565b60605f611fc78361089c565b905060055f8573ffffffffffffffffffffffffffffffffffffffff1673ffffffffffffffffffffffffffffffffffffffff1681526020019081526020015f205f8273ffffffffffffffffffffffffffffffffffffffff1673ffffffffffffffffffffffffffffffffffffffff1681526020019081526020015f2080548060200260200160405190810160405280929190818152602001828054801561208957602002820191905f5260205f20905b815481526020019060010190808311612075575b505050505091505092915050565b60025f9054906101000a900473ffffffffffffffffffffffffffffffffffffffff1673ffffffffffffffffffffffffffffffffffffffff163373ffffffffffffffffffffffffffffffffffffffff161461211d576040517fc33e396f00000000000000000000000000000000000000000000000000000000815260040160405180910390fd5b60025f9054906101000a900473ffffffffffffffffffffffffffffffffffffffff1673ffffffffffffffffffffffffffffffffffffffff16632bb02d4e6040518163ffffffff1660e01b81526004015f6040518083038186803b158015612182575f5ffd5b505afa158015612194573d5f5f3e3d5ffd5b5050505080600181905550807f96905db05c5901c09cbebc41250998a1aa6de4c08cbbb81ba0da0c086ee796ee60405160405180910390a250565b5f5f5f9054906101000a900473ffffffffffffffffffffffffffffffffffffffff16905090565b6040518060400160405280600581526020017f352e302e3000000000000000000000000000000000000000000000000000000081525081565b5f6122386127f5565b90505f815f0160089054906101000a900460ff161590505f825f015f9054906101000a900467ffffffffffffffff1690505f5f8267ffffffffffffffff161480156122805750825b90505f60018367ffffffffffffffff161480156122b357505f3073ffffffffffffffffffffffffffffffffffffffff163b145b9050811580156122c1575080155b156122f8576040517ff92ee8a900000000000000000000000000000000000000000000000000000000815260040160405180910390fd5b6001855f015f6101000a81548167ffffffffffffffff021916908367ffffffffffffffff1602179055508315612345576001855f0160086101000a81548160ff0219169083151502179055505b5f73ffffffffffffffffffffffffffffffffffffffff168673ffffffffffffffffffffffffffffffffffffffff16036123aa576040517fd92e233d00000000000000000000000000000000000000000000000000000000815260040160405180910390fd5b8560025f6101000a81548173ffffffffffffffffffffffffffffffffffffffff021916908373ffffffffffffffffffffffffffffffffffffffff1602179055505f600260146101000a81548160ff021916908315150217905550831561245e575f855f0160086101000a81548160ff0219169083151502179055507fc7f505b2f371ae2175ee4913f4499e1f2633a7b5936321eed1cdaeb6115181d260016040516124559190613645565b60405180910390a15b505050505050565b7f000000000000000000000000000000000000000000000000000000000000000073ffffffffffffffffffffffffffffffffffffffff163073ffffffffffffffffffffffffffffffffffffffff16148061251357507f000000000000000000000000000000000000000000000000000000000000000073ffffffffffffffffffffffffffffffffffffffff166124fa612808565b73ffffffffffffffffffffffffffffffffffffffff1614155b1561254a576040517fe07c8dba00000000000000000000000000000000000000000000000000000000815260040160405180910390fd5b565b60025f9054906101000a900473ffffffffffffffffffffffffffffffffffffffff1673ffffffffffffffffffffffffffffffffffffffff163373ffffffffffffffffffffffffffffffffffffffff16146125d2576040517fc33e396f00000000000000000000000000000000000000000000000000000000815260040160405180910390fd5b60025f9054906101000a900473ffffffffffffffffffffffffffffffffffffffff1673ffffffffffffffffffffffffffffffffffffffff16632bb02d4e6040518163ffffffff1660e01b81526004015f6040518083038186803b158015612637575f5ffd5b505afa158015612649573d5f5f3e3d5ffd5b5050505050565b8173ffffffffffffffffffffffffffffffffffffffff166352d1902d6040518163ffffffff1660e01b8152600401602060405180830381865afa9250505080156126b857506040513d601f19601f820116820180604052508101906126b59190613688565b60015b6126f957816040517f4c9c8ce30000000000000000000000000000000000000000000000000000000081526004016126f09190612c21565b60405180910390fd5b7f360894a13ba1a3210667c828492db98dca3e2076cc3735a920a3ca505d382bbc5f1b811461275f57806040517faa1d49a40000000000000000000000000000000000000000000000000000000081526004016127569190613044565b60405180910390fd5b612769838361285b565b505050565b7f000000000000000000000000000000000000000000000000000000000000000073ffffffffffffffffffffffffffffffffffffffff163073ffffffffffffffffffffffffffffffffffffffff16146127f3576040517fe07c8dba00000000000000000000000000000000000000000000000000000000815260040160405180910390fd5b565b5f5f6127ff6128cd565b90508091505090565b5f6128347f360894a13ba1a3210667c828492db98dca3e2076cc3735a920a3ca505d382bbc5f1b6128f6565b5f015f9054906101000a900473ffffffffffffffffffffffffffffffffffffffff16905090565b612864826128ff565b8173ffffffffffffffffffffffffffffffffffffffff167fbc7cd75a20ee27fd9adebab32041f755214dbc6bffa90cc0225b39da2e5c2d3b60405160405180910390a25f815111156128c0576128ba82826129c8565b506128c9565b6128c8612ab9565b5b5050565b5f7ff0c57e16840df040f15088dc2f81fe391c3923bec73e23a9662efc9c229c6a005f1b905090565b5f819050919050565b5f8173ffffffffffffffffffffffffffffffffffffffff163b0361295a57806040517f4c9c8ce30000000000000000000000000000000000000000000000000000000081526004016129519190612c21565b60405180910390fd5b806129867f360894a13ba1a3210667c828492db98dca3e2076cc3735a920a3ca505d382bbc5f1b6128f6565b5f015f6101000a81548173ffffffffffffffffffffffffffffffffffffffff021916908373ffffffffffffffffffffffffffffffffffffffff16021790555050565b60605f6129d58484612af5565b9050808015612a0b57505f6129e8612b09565b1180612a0a57505f8473ffffffffffffffffffffffffffffffffffffffff163b115b5b15612a2057612a18612b10565b915050612ab3565b8015612a6357836040517f9996b315000000000000000000000000000000000000000000000000000000008152600401612a5a9190612c21565b60405180910390fd5b5f612a6c612b09565b1115612a7f57612a7a612b2d565b612ab1565b6040517fd6bda27500000000000000000000000000000000000000000000000000000000815260040160405180910390fd5b505b92915050565b5f341115612af3576040517fb398979f00000000000000000000000000000000000000000000000000000000815260040160405180910390fd5b565b5f5f5f835160208501865af4905092915050565b5f3d905090565b606060405190503d81523d5f602083013e3d602001810160405290565b6040513d5f823e3d81fd5b5f819050919050565b612b4a81612b38565b82525050565b5f602082019050612b635f830184612b41565b92915050565b5f604051905090565b5f5ffd5b5f5ffd5b612b8381612b38565b8114612b8d575f5ffd5b50565b5f81359050612b9e81612b7a565b92915050565b5f5f60408385031215612bba57612bb9612b72565b5b5f612bc785828601612b90565b9250506020612bd885828601612b90565b9150509250929050565b5f73ffffffffffffffffffffffffffffffffffffffff82169050919050565b5f612c0b82612be2565b9050919050565b612c1b81612c01565b82525050565b5f602082019050612c345f830184612c12565b92915050565b612c4381612c01565b8114612c4d575f5ffd5b50565b5f81359050612c5e81612c3a565b92915050565b5f5ffd5b5f5ffd5b5f5ffd5b5f5f83601f840112612c8557612c84612c64565b5b8235905067ffffffffffffffff811115612ca257612ca1612c68565b5b602083019150836001820283011115612cbe57612cbd612c6c565b5b9250929050565b5f5f5f5f5f60808688031215612cde57612cdd612b72565b5b5f612ceb88828901612c50565b9550506020612cfc88828901612c50565b9450506040612d0d88828901612b90565b935050606086013567ffffffffffffffff811115612d2e57612d2d612b76565b5b612d3a88828901612c70565b92509250509295509295909350565b5f7fffffffff0000000000000000000000000000000000000000000000000000000082169050919050565b612d7d81612d49565b82525050565b5f602082019050612d965f830184612d74565b92915050565b5f5f5f60608486031215612db357612db2612b72565b5b5f612dc086828701612c50565b9350506020612dd186828701612b90565b9250506040612de286828701612b90565b9150509250925092565b5f8115159050919050565b612e0081612dec565b82525050565b5f602082019050612e195f830184612df7565b92915050565b5f60208284031215612e3457612e33612b72565b5b5f612e4184828501612b90565b91505092915050565b5f5f5f60608486031215612e6157612e60612b72565b5b5f612e6e86828701612c50565b9350506020612e7f86828701612c50565b9250506040612e9086828701612b90565b9150509250925092565b5f5ffd5b5f601f19601f8301169050919050565b7f4e487b71000000000000000000000000000000000000000000000000000000005f52604160045260245ffd5b612ee482612e9e565b810181811067ffffffffffffffff82111715612f0357612f02612eae565b5b80604052505050565b5f612f15612b69565b9050612f218282612edb565b919050565b5f67ffffffffffffffff821115612f4057612f3f612eae565b5b612f4982612e9e565b9050602081019050919050565b828183375f83830152505050565b5f612f76612f7184612f26565b612f0c565b905082815260208101848484011115612f9257612f91612e9a565b5b612f9d848285612f56565b509392505050565b5f82601f830112612fb957612fb8612c64565b5b8135612fc9848260208601612f64565b91505092915050565b5f5f60408385031215612fe857612fe7612b72565b5b5f612ff585828601612c50565b925050602083013567ffffffffffffffff81111561301657613015612b76565b5b61302285828601612fa5565b9150509250929050565b5f819050919050565b61303e8161302c565b82525050565b5f6020820190506130575f830184613035565b92915050565b5f6020828403121561307257613071612b72565b5b5f61307f84828501612c50565b91505092915050565b5f5f6040838503121561309e5761309d612b72565b5b5f6130ab85828601612c50565b92505060206130bc85828601612b90565b9150509250929050565b5f81519050919050565b5f82825260208201905092915050565b5f819050602082019050919050565b6130f881612b38565b82525050565b5f61310983836130ef565b60208301905092915050565b5f602082019050919050565b5f61312b826130c6565b61313581856130d0565b9350613140836130e0565b805f5b8381101561317057815161315788826130fe565b975061316283613115565b925050600181019050613143565b5085935050505092915050565b5f6020820190508181035f8301526131958184613121565b905092915050565b5f81519050919050565b5f82825260208201905092915050565b8281835e5f83830152505050565b5f6131cf8261319d565b6131d981856131a7565b93506131e98185602086016131b7565b6131f281612e9e565b840191505092915050565b5f6020820190508181035f83015261321581846131c5565b905092915050565b5f8151905061322b81612c3a565b92915050565b5f6020828403121561324657613245612b72565b5b5f6132538482850161321d565b91505092915050565b5f8160e01c9050919050565b5f60033d11156132845760045f5f3e6132815f5161325c565b90505b90565b5f60443d1061331357613298612b69565b60043d036004823e80513d602482011167ffffffffffffffff821117156132c0575050613313565b808201805167ffffffffffffffff8111156132de5750505050613313565b80602083010160043d0385018111156132fb575050505050613313565b61330a82602001850186612edb565b82955050505050505b90565b7f466163746f7279207265766572743a2000000000000000000000000000000000815250565b5f81905092915050565b5f6133508261319d565b61335a818561333c565b935061336a8185602086016131b7565b80840191505092915050565b5f61338082613316565b6010820191506133908284613346565b915081905092915050565b7f466163746f72792063616c6c206661696c6564000000000000000000000000005f82015250565b5f6133cf6013836131a7565b91506133da8261339b565b602082019050919050565b5f6020820190508181035f8301526133fc816133c3565b9050919050565b7f4e487b71000000000000000000000000000000000000000000000000000000005f52603260045260245ffd5b7f4e487b71000000000000000000000000000000000000000000000000000000005f52601160045260245ffd5b5f61346782612b38565b915061347283612b38565b925082820390508181111561348a57613489613430565b5b92915050565b7f4e487b71000000000000000000000000000000000000000000000000000000005f52603160045260245ffd5b5f6060820190506134d05f830186612c12565b6134dd6020830185612c12565b6134ea6040830184612b41565b949350505050565b5f6134fc82612b38565b915061350783612b38565b925082820261351581612b38565b9150828204841483151761352c5761352b613430565b5b5092915050565b5f81905092915050565b50565b5f61354b5f83613533565b91506135568261353d565b5f82019050919050565b5f61356a82613540565b9150819050919050565b5f6040820190506135875f830185612b41565b6135946020830184612c12565b9392505050565b6135a481612dec565b81146135ae575f5ffd5b50565b5f815190506135bf8161359b565b92915050565b5f602082840312156135da576135d9612b72565b5b5f6135e7848285016135b1565b91505092915050565b5f819050919050565b5f67ffffffffffffffff82169050919050565b5f819050919050565b5f61362f61362a613625846135f0565b61360c565b6135f9565b9050919050565b61363f81613615565b82525050565b5f6020820190506136585f830184613636565b92915050565b6136678161302c565b8114613671575f5ffd5b50565b5f815190506136828161365e565b92915050565b5f6020828403121561369d5761369c612b72565b5b5f6136aa84828501613674565b9150509291505056fea2646970667358221220b2417d0dec808c7a5f9b70966072de6e1af4a620a66fff3024de14300265983f64736f6c634300081e0033","linkReferences":{}},"methodIdentifiers":{"UPGRADE_INTERFACE_VERSION()":"ad3cb1cc","activateStaking()":"93af0170","checkUserStakeNFT(address,uint256,uint256)":"27ffeeeb","getCollectionAddress(uint256)":"333671a4","getFactoryAddress()":"a9c2e36c","getRewardAmount()":"09a69f57","getStakedTimestamp(uint256,uint256)":"1cfba78c","getStaker(uint256,uint256)":"0d8c4653","getUserStakedNFT(address,address,uint256)":"40127061","getUserTokenStaked(address,uint256)":"9cc99a3d","initialize(address)":"c4d66de8","isStakingActive()":"61f64457","onERC721Received(address,address,uint256,bytes)":"150b7a02","proxiableUUID()":"52d1902d","setFactoryAddress(address)":"83c17c55","setMultisigTimelock(address)":"74bbc800","setRewardAmount(uint256)":"a8a65a78","stake(uint256,uint256)":"7b0472f0","stopStaking()":"0550b266","unstakeNFT(uint256,uint256)":"4ecb98e3","upgradeToAndCall(address,bytes)":"4f1ef286"},"id":70}