{"abi":[{"type":"constructor","inputs":[],"stateMutability":"nonpayable"},{"type":"function","name":"UPGRADE_INTERFACE_VERSION","inputs":[],"outputs":[{"name":"","type":"string","internalType":"string"}],"stateMutability":"view"},{"type":"function","name":"activateAuction","inputs":[],"outputs":[],"stateMutability":"nonpayable"},{"type":"function","name":"cancelAuction","inputs":[{"name":"auctionId","type":"uint256","internalType":"uint256"}],"outputs":[],"stateMutability":"nonpayable"},{"type":"function","name":"finalizeAuction","inputs":[{"name":"auctionId","type":"uint256","internalType":"uint256"}],"outputs":[],"stateMutability":"nonpayable"},{"type":"function","name":"getAllBids","inputs":[{"name":"auctionId","type":"uint256","internalType":"uint256"}],"outputs":[{"name":"buyers","type":"address[]","internalType":"address[]"},{"name":"amounts","type":"uint256[]","internalType":"uint256[]"}],"stateMutability":"view"},{"type":"function","name":"getAuctionCount","inputs":[],"outputs":[{"name":"count","type":"uint256","internalType":"uint256"}],"stateMutability":"view"},{"type":"function","name":"getAuctionInfo","inputs":[{"name":"auctionId","type":"uint256","internalType":"uint256"}],"outputs":[{"name":"seller","type":"address","internalType":"address"},{"name":"collectionAddress","type":"address","internalType":"address"},{"name":"tokenId","type":"uint256","internalType":"uint256"},{"name":"price","type":"uint256","internalType":"uint256"},{"name":"deadline","type":"uint256","internalType":"uint256"},{"name":"isFinished","type":"bool","internalType":"bool"}],"stateMutability":"view"},{"type":"function","name":"getAuctionSettings","inputs":[],"outputs":[{"name":"minDuration","type":"uint256","internalType":"uint256"},{"name":"maxDuration","type":"uint256","internalType":"uint256"},{"name":"minPrice","type":"uint256","internalType":"uint256"},{"name":"extensionTime","type":"uint256","internalType":"uint256"},{"name":"minNextBidPercent","type":"uint256","internalType":"uint256"},{"name":"auctionFeeAmount","type":"uint256","internalType":"uint256"},{"name":"feeReceiver","type":"address","internalType":"address"}],"stateMutability":"view"},{"type":"function","name":"getBlockedAmount","inputs":[],"outputs":[{"name":"amount","type":"uint256","internalType":"uint256"}],"stateMutability":"view"},{"type":"function","name":"getMaximumBid","inputs":[{"name":"auctionId","type":"uint256","internalType":"uint256"}],"outputs":[{"name":"maxCurrentBid","type":"uint256","internalType":"uint256"},{"name":"maxBidIndex","type":"uint256","internalType":"uint256"}],"stateMutability":"view"},{"type":"function","name":"getNextBidAmount","inputs":[{"name":"auctionId","type":"uint256","internalType":"uint256"}],"outputs":[{"name":"minBid","type":"uint256","internalType":"uint256"}],"stateMutability":"view"},{"type":"function","name":"getUserBid","inputs":[{"name":"auctionId","type":"uint256","internalType":"uint256"},{"name":"user","type":"address","internalType":"address"}],"outputs":[{"name":"bidAmount","type":"uint256","internalType":"uint256"},{"name":"hasBid","type":"bool","internalType":"bool"}],"stateMutability":"view"},{"type":"function","name":"initialize","inputs":[{"name":"multisigTimelock","type":"address","internalType":"address"}],"outputs":[],"stateMutability":"nonpayable"},{"type":"function","name":"isAuctionActive","inputs":[],"outputs":[{"name":"","type":"bool","internalType":"bool"}],"stateMutability":"view"},{"type":"function","name":"makeABid","inputs":[{"name":"auctionId","type":"uint256","internalType":"uint256"}],"outputs":[],"stateMutability":"payable"},{"type":"function","name":"onERC721Received","inputs":[{"name":"","type":"address","internalType":"address"},{"name":"","type":"address","internalType":"address"},{"name":"","type":"uint256","internalType":"uint256"},{"name":"","type":"bytes","internalType":"bytes"}],"outputs":[{"name":"","type":"bytes4","internalType":"bytes4"}],"stateMutability":"pure"},{"type":"function","name":"proxiableUUID","inputs":[],"outputs":[{"name":"","type":"bytes32","internalType":"bytes32"}],"stateMutability":"view"},{"type":"function","name":"putTokenOnAuction","inputs":[{"name":"collectionId","type":"uint256","internalType":"uint256"},{"name":"tokenId","type":"uint256","internalType":"uint256"},{"name":"duration","type":"uint256","internalType":"uint256"},{"name":"minimumBid","type":"uint256","internalType":"uint256"}],"outputs":[],"stateMutability":"nonpayable"},{"type":"function","name":"setAuctionFeeReceiver","inputs":[{"name":"newFeeReceiver","type":"address","internalType":"address"}],"outputs":[],"stateMutability":"nonpayable"},{"type":"function","name":"setFactoryAddress","inputs":[{"name":"newFactoryAddress","type":"address","internalType":"address"}],"outputs":[],"stateMutability":"nonpayable"},{"type":"function","name":"setMaxDuration","inputs":[{"name":"newMaxDuration","type":"uint256","internalType":"uint256"}],"outputs":[],"stateMutability":"nonpayable"},{"type":"function","name":"setMinimumNextBidPercent","inputs":[{"name":"newBidPercent","type":"uint256","internalType":"uint256"}],"outputs":[],"stateMutability":"nonpayable"},{"type":"function","name":"setMultisigTimelock","inputs":[{"name":"newMultisigTimelock","type":"address","internalType":"address"}],"outputs":[],"stateMutability":"nonpayable"},{"type":"function","name":"setNewAuctionFeeAmount","inputs":[{"name":"newAuctionFeeAmount","type":"uint256","internalType":"uint256"}],"outputs":[],"stateMutability":"nonpayable"},{"type":"function","name":"stopAuction","inputs":[],"outputs":[],"stateMutability":"nonpayable"},{"type":"function","name":"upgradeToAndCall","inputs":[{"name":"newImplementation","type":"address","internalType":"address"},{"name":"data","type":"bytes","internalType":"bytes"}],"outputs":[],"stateMutability":"payable"},{"type":"function","name":"withdraw","inputs":[],"outputs":[],"stateMutability":"nonpayable"},{"type":"function","name":"withdrawAuctionBid","inputs":[{"name":"auctionId","type":"uint256","internalType":"uint256"}],"outputs":[],"stateMutability":"nonpayable"},{"type":"event","name":"AuctionCancelled","inputs":[{"name":"seller","type":"address","indexed":true,"internalType":"address"},{"name":"collectionAddress","type":"address","indexed":true,"internalType":"address"},{"name":"tokenId","type":"uint256","indexed":true,"internalType":"uint256"}],"anonymous":false},{"type":"event","name":"AuctionCreated","inputs":[{"name":"seller","type":"address","indexed":true,"internalType":"address"},{"name":"collectionId","type":"uint256","indexed":true,"internalType":"uint256"},{"name":"tokenId","type":"uint256","indexed":true,"internalType":"uint256"}],"anonymous":false},{"type":"event","name":"AuctionEnded","inputs":[{"name":"auctionId","type":"uint256","indexed":true,"internalType":"uint256"}],"anonymous":false},{"type":"event","name":"AuctionIsActive","inputs":[],"anonymous":false},{"type":"event","name":"AuctionIsStopped","inputs":[],"anonymous":false},{"type":"event","name":"Initialized","inputs":[{"name":"version","type":"uint64","indexed":false,"internalType":"uint64"}],"anonymous":false},{"type":"event","name":"NewAuctionFeeAmountSet","inputs":[{"name":"newAuctionFeeAmount","type":"uint256","indexed":true,"internalType":"uint256"}],"anonymous":false},{"type":"event","name":"NewAuctionFeeReceiverSet","inputs":[{"name":"newFeeReceiver","type":"address","indexed":true,"internalType":"address"}],"anonymous":false},{"type":"event","name":"NewBidSet","inputs":[{"name":"auctionId","type":"uint256","indexed":true,"internalType":"uint256"},{"name":"newBid","type":"uint256","indexed":true,"internalType":"uint256"},{"name":"user","type":"address","indexed":true,"internalType":"address"}],"anonymous":false},{"type":"event","name":"NewFactoryAddressSet","inputs":[{"name":"newFactory","type":"address","indexed":true,"internalType":"address"}],"anonymous":false},{"type":"event","name":"NewMaxDurationSet","inputs":[{"name":"newMaxDuration","type":"uint256","indexed":true,"internalType":"uint256"}],"anonymous":false},{"type":"event","name":"NewMultisigTimelockSet","inputs":[{"name":"multisigTimelock","type":"address","indexed":true,"internalType":"address"}],"anonymous":false},{"type":"event","name":"NewNextBidPercentSet","inputs":[{"name":"newBidPercent","type":"uint256","indexed":true,"internalType":"uint256"}],"anonymous":false},{"type":"event","name":"Upgraded","inputs":[{"name":"implementation","type":"address","indexed":true,"internalType":"address"}],"anonymous":false},{"type":"event","name":"UserBidWithdrawn","inputs":[{"name":"auctionId","type":"uint256","indexed":true,"internalType":"uint256"},{"name":"userAddress","type":"address","indexed":true,"internalType":"address"}],"anonymous":false},{"type":"error","name":"AddressEmptyCode","inputs":[{"name":"target","type":"address","internalType":"address"}]},{"type":"error","name":"AllBidsArePaid","inputs":[]},{"type":"error","name":"AuctionHasBids","inputs":[]},{"type":"error","name":"AuctionIsActiveAlready","inputs":[]},{"type":"error","name":"AuctionIsAlready","inputs":[]},{"type":"error","name":"AuctionIsExpired","inputs":[]},{"type":"error","name":"AuctionIsGoing","inputs":[]},{"type":"error","name":"AuctionIsNotFinished","inputs":[]},{"type":"error","name":"AuctionIsStoppedAlready","inputs":[]},{"type":"error","name":"ERC1967InvalidImplementation","inputs":[{"name":"implementation","type":"address","internalType":"address"}]},{"type":"error","name":"ERC1967NonPayable","inputs":[]},{"type":"error","name":"FailedCall","inputs":[]},{"type":"error","name":"InsufficientBalance","inputs":[]},{"type":"error","name":"InsufficientPayment","inputs":[]},{"type":"error","name":"InvalidAuction","inputs":[]},{"type":"error","name":"InvalidAuctionFeeAmount","inputs":[]},{"type":"error","name":"InvalidBidAddress","inputs":[]},{"type":"error","name":"InvalidDuration","inputs":[]},{"type":"error","name":"InvalidInitialization","inputs":[]},{"type":"error","name":"InvalidNextBidPercent","inputs":[]},{"type":"error","name":"InvalidPrice","inputs":[]},{"type":"error","name":"NoBidsMade","inputs":[]},{"type":"error","name":"NoFactoryAddressSet","inputs":[]},{"type":"error","name":"NotAMultisigTimelock","inputs":[]},{"type":"error","name":"NotATokenOwner","inputs":[]},{"type":"error","name":"NotAnAuctionAuthor","inputs":[]},{"type":"error","name":"NotInitializing","inputs":[]},{"type":"error","name":"OwnerCanMakeNoBid","inputs":[]},{"type":"error","name":"PaymentFailed","inputs":[]},{"type":"error","name":"ReentrancyGuardReentrantCall","inputs":[]},{"type":"error","name":"UUPSUnauthorizedCallContext","inputs":[]},{"type":"error","name":"UUPSUnsupportedProxiableUUID","inputs":[{"name":"slot","type":"bytes32","internalType":"bytes32"}]},{"type":"error","name":"UserBidNotFound","inputs":[]},{"type":"error","name":"ZeroAddress","inputs":[]}],"bytecode":{"object":"0x6101206040523073ffffffffffffffffffffffffffffffffffffffff1660809073ffffffffffffffffffffffffffffffffffffffff16815250600160035562093a8060045561070860a0908152506103e860c090815250606460e0908152506127106101009081525061012c600555600560065534801561007e575f5ffd5b50600161009d6100926100b660201b60201c565b6100df60201b60201c565b5f01819055506100b16100e860201b60201c565b610263565b5f7f9b779b17422d0df92223018b32b4d1fa46e071723d6817e2486d003becc55f005f1b905090565b5f819050919050565b5f6100f76101e660201b60201c565b9050805f0160089054906101000a900460ff1615610141576040517ff92ee8a900000000000000000000000000000000000000000000000000000000815260040160405180910390fd5b67ffffffffffffffff8016815f015f9054906101000a900467ffffffffffffffff1667ffffffffffffffff16146101e35767ffffffffffffffff815f015f6101000a81548167ffffffffffffffff021916908367ffffffffffffffff1602179055507fc7f505b2f371ae2175ee4913f4499e1f2633a7b5936321eed1cdaeb6115181d267ffffffffffffffff6040516101da919061024a565b60405180910390a15b50565b5f5f6101f66101ff60201b60201c565b90508091505090565b5f7ff0c57e16840df040f15088dc2f81fe391c3923bec73e23a9662efc9c229c6a005f1b905090565b5f67ffffffffffffffff82169050919050565b61024481610228565b82525050565b5f60208201905061025d5f83018461023b565b92915050565b60805160a05160c05160e051610100516156136102d15f395f81816136b101526136f901525f818161090801526124a101525f8181610e7f01526113f901525f8181610e19015281816113d501526130cc01525f81816140ec0152818161414101526143f201526156135ff3fe6080604052600436106101b6575f3560e01c80638db045f1116100eb578063cf0f34c411610089578063e808386311610063578063e808386314610590578063e879b475146105b8578063f319fef5146105f5578063fc3fc4ed1461061d576101b6565b8063cf0f34c414610516578063d1b4b9a31461053e578063d882ac5914610568576101b6565b8063a528ff83116100c5578063a528ff831461045d578063ad3cb1cc1461049a578063c44e6640146104c4578063c4d66de8146104ee576101b6565b80638db045f1146103d157806396b5a7551461040d5780639a7ba87814610435576101b6565b80634f1ef2861161015857806374bbc8001161013257806374bbc8001461031a5780637b89e4321461034257806381f0b7eb1461037f57806383c17c55146103a9576101b6565b80634f1ef286146102be57806352d1902d146102da578063605fed8714610304576101b6565b806320bcb25d1161019457806320bcb25d1461023a578063269b9a081461026a578063283f766c146102805780633ccfd60b146102a8576101b6565b806304efbb2a146101ba57806313aa8e43146101d6578063150b7a02146101fe575b5f5ffd5b6101d460048036038101906101cf919061488d565b61065e565b005b3480156101e1575f5ffd5b506101fc60048036038101906101f791906148b8565b610dd2565b005b348015610209575f5ffd5b50610224600480360381019061021f91906149d7565b6113b8565b6040516102319190614a95565b60405180910390f35b348015610245575f5ffd5b5061024e6113cc565b6040516102619796959493929190614acc565b60405180910390f35b348015610275575f5ffd5b5061027e61145a565b005b34801561028b575f5ffd5b506102a660048036038101906102a1919061488d565b6115e5565b005b3480156102b3575f5ffd5b506102bc611a1e565b005b6102d860048036038101906102d39190614c71565b611ced565b005b3480156102e5575f5ffd5b506102ee611d0c565b6040516102fb9190614ce3565b60405180910390f35b34801561030f575f5ffd5b50610318611d3d565b005b348015610325575f5ffd5b50610340600480360381019061033b9190614cfc565b611eca565b005b34801561034d575f5ffd5b506103686004803603810190610363919061488d565b61204e565b604051610376929190614d27565b60405180910390f35b34801561038a575f5ffd5b506103936121d2565b6040516103a09190614d4e565b60405180910390f35b3480156103b4575f5ffd5b506103cf60048036038101906103ca9190614cfc565b6121db565b005b3480156103dc575f5ffd5b506103f760048036038101906103f2919061488d565b6123c5565b6040516104049190614d4e565b60405180910390f35b348015610418575f5ffd5b50610433600480360381019061042e919061488d565b6124ed565b005b348015610440575f5ffd5b5061045b60048036038101906104569190614cfc565b612910565b005b348015610468575f5ffd5b50610483600480360381019061047e919061488d565b612afa565b604051610491929190614ed5565b60405180910390f35b3480156104a5575f5ffd5b506104ae612d61565b6040516104bb9190614f6a565b60405180910390f35b3480156104cf575f5ffd5b506104d8612d9a565b6040516104e59190614d4e565b60405180910390f35b3480156104f9575f5ffd5b50610514600480360381019061050f9190614cfc565b612daf565b005b348015610521575f5ffd5b5061053c6004803603810190610537919061488d565b612fcb565b005b348015610549575f5ffd5b5061055261315b565b60405161055f9190614fa4565b60405180910390f35b348015610573575f5ffd5b5061058e6004803603810190610589919061488d565b613170565b005b34801561059b575f5ffd5b506105b660048036038101906105b1919061488d565b6132ec565b005b3480156105c3575f5ffd5b506105de60048036038101906105d99190614fbd565b613c22565b6040516105ec929190614ffb565b60405180910390f35b348015610600575f5ffd5b5061061b6004803603810190610616919061488d565b613dc9565b005b348015610628575f5ffd5b50610643600480360381019061063e919061488d565b613f3b565b60405161065596959493929190615022565b60405180910390f35b6106666140ae565b60095f9054906101000a900460ff166106ab576040517f3e6b40b800000000000000000000000000000000000000000000000000000000815260040160405180910390fd5b3073ffffffffffffffffffffffffffffffffffffffff163373ffffffffffffffffffffffffffffffffffffffff1603610710576040517f813fa89800000000000000000000000000000000000000000000000000000000815260040160405180910390fd5b600354811061074b576040517f2156216000000000000000000000000000000000000000000000000000000000815260040160405180910390fd5b600c5f8281526020019081526020015f205f9054906101000a900460ff16156107a0576040517fd4746fc700000000000000000000000000000000000000000000000000000000815260040160405180910390fd5b3373ffffffffffffffffffffffffffffffffffffffff16600a5f8381526020019081526020015f205f015f9054906101000a900473ffffffffffffffffffffffffffffffffffffffff1673ffffffffffffffffffffffffffffffffffffffff1603610837576040517fa330fc9400000000000000000000000000000000000000000000000000000000815260040160405180910390fd5b42600a5f8381526020019081526020015f206004015411610884576040517fd4746fc700000000000000000000000000000000000000000000000000000000815260040160405180910390fd5b5f600b5f8381526020019081526020015f208054905090505f81036108f657600a5f8381526020019081526020015f20600301543410156108f1576040517fcd1c886700000000000000000000000000000000000000000000000000000000815260040160405180910390fd5b610a6b565b5f5f6109018461204e565b915091505f7f00000000000000000000000000000000000000000000000000000000000000008360065461093591906150ae565b61093f919061511c565b8361094a919061514c565b90505f5f90505b84811015610a2c573373ffffffffffffffffffffffffffffffffffffffff16600b5f8881526020019081526020015f2082815481106109935761099261517f565b5b905f5260205f2090600202015f015f9054906101000a900473ffffffffffffffffffffffffffffffffffffffff1673ffffffffffffffffffffffffffffffffffffffff1603610a2157600b5f8781526020019081526020015f2081815481106109ff576109fe61517f565b5b905f5260205f2090600202016001015482610a1a91906151ac565b9150610a2c565b806001019050610951565b5080341015610a67576040517fcd1c886700000000000000000000000000000000000000000000000000000000815260040160405180910390fd5b5050505b5f5f90505f5f90505b82811015610b5b573373ffffffffffffffffffffffffffffffffffffffff16600b5f8681526020019081526020015f208281548110610ab657610ab561517f565b5b905f5260205f2090600202015f015f9054906101000a900473ffffffffffffffffffffffffffffffffffffffff1673ffffffffffffffffffffffffffffffffffffffff1603610b505734600b5f8681526020019081526020015f208281548110610b2357610b2261517f565b5b905f5260205f2090600202016001015f828254610b40919061514c565b9250508190555060019150610b5b565b806001019050610a74565b5080610c1457600b5f8481526020019081526020015f2060405180604001604052803373ffffffffffffffffffffffffffffffffffffffff16815260200134815250908060018154018082558091505060019003905f5260205f2090600202015f909190919091505f820151815f015f6101000a81548173ffffffffffffffffffffffffffffffffffffffff021916908373ffffffffffffffffffffffffffffffffffffffff1602179055506020820151816001015550505b3460075f828254610c25919061514c565b925050819055505f5f610c378561204e565b915091505f7fffffffffffffffffffffffffffffffffffffffffffffffffffffffffffffffff90505f600b5f8881526020019081526020015f208054905090505f5f90505b81811015610d1a573373ffffffffffffffffffffffffffffffffffffffff16600b5f8a81526020019081526020015f208281548110610cbe57610cbd61517f565b5b905f5260205f2090600202015f015f9054906101000a900473ffffffffffffffffffffffffffffffffffffffff1673ffffffffffffffffffffffffffffffffffffffff1603610d0f57809250610d1a565b806001019050610c7c565b507fffffffffffffffffffffffffffffffffffffffffffffffffffffffffffffffff8214158015610d4a57508282145b15610d7c57600554600a5f8981526020019081526020015f206004015f828254610d74919061514c565b925050819055505b3373ffffffffffffffffffffffffffffffffffffffff1684887feb69686d3c9aec2852dc6cd23699787f848cf46efb0175a5558084ae39f65e9a60405160405180910390a4505050505050610dcf6140d0565b50565b60095f9054906101000a900460ff16610e17576040517f3e6b40b800000000000000000000000000000000000000000000000000000000815260040160405180910390fd5b7f0000000000000000000000000000000000000000000000000000000000000000821080610e46575060045482115b15610e7d576040517f7616640100000000000000000000000000000000000000000000000000000000815260040160405180910390fd5b7f0000000000000000000000000000000000000000000000000000000000000000811015610ed6576040517ebfc92100000000000000000000000000000000000000000000000000000000815260040160405180910390fd5b5f73ffffffffffffffffffffffffffffffffffffffff1660025f9054906101000a900473ffffffffffffffffffffffffffffffffffffffff1673ffffffffffffffffffffffffffffffffffffffff1603610f5c576040517f449dad0100000000000000000000000000000000000000000000000000000000815260040160405180910390fd5b5f60025f9054906101000a900473ffffffffffffffffffffffffffffffffffffffff1673ffffffffffffffffffffffffffffffffffffffff16633ca82d95866040518263ffffffff1660e01b8152600401610fb79190614d4e565b602060405180830381865afa925050508015610ff157506040513d601f19601f82011682018060405250810190610fee91906151f3565b60015b6110e557610ffd61522a565b806308c379a0036110785750611011615249565b8061101c575061107a565b8060405160200161102d9190615338565b6040516020818303038152906040526040517f08c379a000000000000000000000000000000000000000000000000000000000815260040161106f9190614f6a565b60405180910390fd5b505b3d805f81146110a4576040519150601f19603f3d011682016040523d82523d5f602084013e6110a9565b606091505b506040517f08c379a00000000000000000000000000000000000000000000000000000000081526004016110dc906153a7565b60405180910390fd5b809150505f8190505f8173ffffffffffffffffffffffffffffffffffffffff16636352211e876040518263ffffffff1660e01b81526004016111279190614d4e565b602060405180830381865afa158015611142573d5f5f3e3d5ffd5b505050506040513d601f19601f8201168201806040525081019061116691906151f3565b90503373ffffffffffffffffffffffffffffffffffffffff168173ffffffffffffffffffffffffffffffffffffffff16146111cd576040517f1dedaec700000000000000000000000000000000000000000000000000000000815260040160405180910390fd5b8173ffffffffffffffffffffffffffffffffffffffff166342842e0e3330896040518463ffffffff1660e01b815260040161120a939291906153c5565b5f604051808303815f87803b158015611221575f5ffd5b505af1158015611233573d5f5f3e3d5ffd5b505050506040518060a001604052803373ffffffffffffffffffffffffffffffffffffffff1681526020018473ffffffffffffffffffffffffffffffffffffffff1681526020018781526020018581526020018642611292919061514c565b815250600a5f60035481526020019081526020015f205f820151815f015f6101000a81548173ffffffffffffffffffffffffffffffffffffffff021916908373ffffffffffffffffffffffffffffffffffffffff1602179055506020820151816001015f6101000a81548173ffffffffffffffffffffffffffffffffffffffff021916908373ffffffffffffffffffffffffffffffffffffffff16021790555060408201518160020155606082015181600301556080820151816004015590505085873373ffffffffffffffffffffffffffffffffffffffff167f4560b4b4d2eec0d9c2feb420083427dbdb8371b8df7fc5471791ebe492622f6960405160405180910390a460035f8154809291906113aa906153fa565b919050555050505050505050565b5f63150b7a0260e01b905095945050505050565b5f5f5f5f5f5f5f7f00000000000000000000000000000000000000000000000000000000000000006004547f000000000000000000000000000000000000000000000000000000000000000060055460065460085460015f9054906101000a900473ffffffffffffffffffffffffffffffffffffffff16965096509650965096509650965090919293949596565b5f5f9054906101000a900473ffffffffffffffffffffffffffffffffffffffff1673ffffffffffffffffffffffffffffffffffffffff163373ffffffffffffffffffffffffffffffffffffffff16146114df576040517fc33e396f00000000000000000000000000000000000000000000000000000000815260040160405180910390fd5b5f5f9054906101000a900473ffffffffffffffffffffffffffffffffffffffff1673ffffffffffffffffffffffffffffffffffffffff16632bb02d4e6040518163ffffffff1660e01b81526004015f6040518083038186803b158015611543575f5ffd5b505afa158015611555573d5f5f3e3d5ffd5b5050505060095f9054906101000a900460ff1661159e576040517f3e6b40b800000000000000000000000000000000000000000000000000000000815260040160405180910390fd5b5f60095f6101000a81548160ff0219169083151502179055507f5c0162ef4c43b257c14f9c7f8bca332ecf0803c7ae1821fed62b1841863a3ffe60405160405180910390a1565b6115ed6140ae565b6003548110611628576040517f2156216000000000000000000000000000000000000000000000000000000000815260040160405180910390fd5b600c5f8281526020019081526020015f205f9054906101000a900460ff1661167c576040517f149ac7d600000000000000000000000000000000000000000000000000000000815260040160405180910390fd5b5f600b5f8381526020019081526020015f208054905090505f81036116cd576040517f85ee994b00000000000000000000000000000000000000000000000000000000815260040160405180910390fd5b5f5f90505b818110156119e0573373ffffffffffffffffffffffffffffffffffffffff16600b5f8581526020019081526020015f2082815481106117145761171361517f565b5b905f5260205f2090600202015f015f9054906101000a900473ffffffffffffffffffffffffffffffffffffffff1673ffffffffffffffffffffffffffffffffffffffff16036119d5575f600b5f8581526020019081526020015f2082815481106117815761178061517f565b5b905f5260205f209060020201600101549050600b5f8581526020019081526020015f206001846117b191906151ac565b815481106117c2576117c161517f565b5b905f5260205f209060020201600b5f8681526020019081526020015f2083815481106117f1576117f061517f565b5b905f5260205f2090600202015f82015f9054906101000a900473ffffffffffffffffffffffffffffffffffffffff16815f015f6101000a81548173ffffffffffffffffffffffffffffffffffffffff021916908373ffffffffffffffffffffffffffffffffffffffff16021790555060018201548160010155905050600b5f8581526020019081526020015f2080548061188e5761188d615441565b5b600190038181905f5260205f2090600202015f5f82015f6101000a81549073ffffffffffffffffffffffffffffffffffffffff0219169055600182015f9055505090558060075f8282546118e291906151ac565b925050819055505f3373ffffffffffffffffffffffffffffffffffffffff168260405161190e9061549b565b5f6040518083038185875af1925050503d805f8114611948576040519150601f19603f3d011682016040523d82523d5f602084013e61194d565b606091505b5050905080611988576040517ff499da2000000000000000000000000000000000000000000000000000000000815260040160405180910390fd5b3373ffffffffffffffffffffffffffffffffffffffff16857f40077da6126e46b6278661d9995e563541c900a7ae872d91e51d0f22ab79468360405160405180910390a350505050611a13565b8060010190506116d2565b506040517ff00402c500000000000000000000000000000000000000000000000000000000815260040160405180910390fd5b611a1b6140d0565b50565b5f5f9054906101000a900473ffffffffffffffffffffffffffffffffffffffff1673ffffffffffffffffffffffffffffffffffffffff163373ffffffffffffffffffffffffffffffffffffffff1614611aa3576040517fc33e396f00000000000000000000000000000000000000000000000000000000815260040160405180910390fd5b5f5f9054906101000a900473ffffffffffffffffffffffffffffffffffffffff1673ffffffffffffffffffffffffffffffffffffffff16632bb02d4e6040518163ffffffff1660e01b81526004015f6040518083038186803b158015611b07575f5ffd5b505afa158015611b19573d5f5f3e3d5ffd5b505050505f73ffffffffffffffffffffffffffffffffffffffff1660015f9054906101000a900473ffffffffffffffffffffffffffffffffffffffff1673ffffffffffffffffffffffffffffffffffffffff1603611ba3576040517fd92e233d00000000000000000000000000000000000000000000000000000000815260040160405180910390fd5b600754471015611bdf576040517ff4d678b800000000000000000000000000000000000000000000000000000000815260040160405180910390fd5b5f60075447611bee91906151ac565b90505f8103611c29576040517ff4d678b800000000000000000000000000000000000000000000000000000000815260040160405180910390fd5b5f60015f9054906101000a900473ffffffffffffffffffffffffffffffffffffffff1673ffffffffffffffffffffffffffffffffffffffff1682604051611c6f9061549b565b5f6040518083038185875af1925050503d805f8114611ca9576040519150601f19603f3d011682016040523d82523d5f602084013e611cae565b606091505b5050905080611ce9576040517ff499da2000000000000000000000000000000000000000000000000000000000815260040160405180910390fd5b5050565b611cf56140ea565b611cfe826141d0565b611d0882826142d2565b5050565b5f611d156143f0565b7f360894a13ba1a3210667c828492db98dca3e2076cc3735a920a3ca505d382bbc5f1b905090565b5f5f9054906101000a900473ffffffffffffffffffffffffffffffffffffffff1673ffffffffffffffffffffffffffffffffffffffff163373ffffffffffffffffffffffffffffffffffffffff1614611dc2576040517fc33e396f00000000000000000000000000000000000000000000000000000000815260040160405180910390fd5b5f5f9054906101000a900473ffffffffffffffffffffffffffffffffffffffff1673ffffffffffffffffffffffffffffffffffffffff16632bb02d4e6040518163ffffffff1660e01b81526004015f6040518083038186803b158015611e26575f5ffd5b505afa158015611e38573d5f5f3e3d5ffd5b5050505060095f9054906101000a900460ff1615611e82576040517fed7b76fe00000000000000000000000000000000000000000000000000000000815260040160405180910390fd5b600160095f6101000a81548160ff0219169083151502179055507f5bd3f04f3c7e625d7941b8bef8bc83267db9291f3aec916da485c46ff9a68a1f60405160405180910390a1565b5f5f9054906101000a900473ffffffffffffffffffffffffffffffffffffffff1673ffffffffffffffffffffffffffffffffffffffff163373ffffffffffffffffffffffffffffffffffffffff1614611f4f576040517fc33e396f00000000000000000000000000000000000000000000000000000000815260040160405180910390fd5b5f5f9054906101000a900473ffffffffffffffffffffffffffffffffffffffff1673ffffffffffffffffffffffffffffffffffffffff16632bb02d4e6040518163ffffffff1660e01b81526004015f6040518083038186803b158015611fb3575f5ffd5b505afa158015611fc5573d5f5f3e3d5ffd5b50505050805f5f6101000a81548173ffffffffffffffffffffffffffffffffffffffff021916908373ffffffffffffffffffffffffffffffffffffffff1602179055508073ffffffffffffffffffffffffffffffffffffffff167f33e9027b020490a1921cf83d5db29b7cb2efb68a14ef44d30b46933f11c4d44760405160405180910390a250565b5f5f600354831061208b576040517f2156216000000000000000000000000000000000000000000000000000000000815260040160405180910390fd5b600c5f8481526020019081526020015f205f9054906101000a900460ff16156120e0576040517fd4746fc700000000000000000000000000000000000000000000000000000000815260040160405180910390fd5b5f600b5f8581526020019081526020015f20805490500361212d576040517fc6df826300000000000000000000000000000000000000000000000000000000815260040160405180910390fd5b5f5f90505b600b5f8581526020019081526020015f20805490508110156121cc5782600b5f8681526020019081526020015f2082815481106121725761217161517f565b5b905f5260205f2090600202016001015411156121c157600b5f8581526020019081526020015f2081815481106121ab576121aa61517f565b5b905f5260205f2090600202016001015492508091505b806001019050612132565b50915091565b5f600754905090565b5f5f9054906101000a900473ffffffffffffffffffffffffffffffffffffffff1673ffffffffffffffffffffffffffffffffffffffff163373ffffffffffffffffffffffffffffffffffffffff1614612260576040517fc33e396f00000000000000000000000000000000000000000000000000000000815260040160405180910390fd5b5f5f9054906101000a900473ffffffffffffffffffffffffffffffffffffffff1673ffffffffffffffffffffffffffffffffffffffff16632bb02d4e6040518163ffffffff1660e01b81526004015f6040518083038186803b1580156122c4575f5ffd5b505afa1580156122d6573d5f5f3e3d5ffd5b505050505f73ffffffffffffffffffffffffffffffffffffffff168173ffffffffffffffffffffffffffffffffffffffff160361233f576040517fd92e233d00000000000000000000000000000000000000000000000000000000815260040160405180910390fd5b8060025f6101000a81548173ffffffffffffffffffffffffffffffffffffffff021916908373ffffffffffffffffffffffffffffffffffffffff1602179055508073ffffffffffffffffffffffffffffffffffffffff167fc4ef348f8e4e2576aca53cd875c06757dcf06c4605b25963f09df341d9e8c68960405160405180910390a250565b5f6003548210612401576040517f2156216000000000000000000000000000000000000000000000000000000000815260040160405180910390fd5b600c5f8381526020019081526020015f205f9054906101000a900460ff1615612456576040517fd4746fc700000000000000000000000000000000000000000000000000000000815260040160405180910390fd5b5f600b5f8481526020019081526020015f208054905090505f810361249257600a5f8481526020019081526020015f20600301549150506124e8565b5f61249c8461204e565b5090507f0000000000000000000000000000000000000000000000000000000000000000816006546124ce91906150ae565b6124d8919061511c565b816124e3919061514c565b925050505b919050565b6003548110612528576040517f2156216000000000000000000000000000000000000000000000000000000000815260040160405180910390fd5b600c5f8281526020019081526020015f205f9054906101000a900460ff161561257d576040517fd4746fc700000000000000000000000000000000000000000000000000000000815260040160405180910390fd5b3373ffffffffffffffffffffffffffffffffffffffff16600a5f8381526020019081526020015f205f015f9054906101000a900473ffffffffffffffffffffffffffffffffffffffff1673ffffffffffffffffffffffffffffffffffffffff1614612614576040517f0322f88300000000000000000000000000000000000000000000000000000000815260040160405180910390fd5b42600a5f8381526020019081526020015f206004015411612661576040517fd4746fc700000000000000000000000000000000000000000000000000000000815260040160405180910390fd5b5f600b5f8381526020019081526020015f208054905011156126af576040517f35473acb00000000000000000000000000000000000000000000000000000000815260040160405180910390fd5b5f600a5f8381526020019081526020015f206001015f9054906101000a900473ffffffffffffffffffffffffffffffffffffffff1690505f600a5f8481526020019081526020015f206002015490508173ffffffffffffffffffffffffffffffffffffffff166342842e0e30600a5f8781526020019081526020015f205f015f9054906101000a900473ffffffffffffffffffffffffffffffffffffffff16846040518463ffffffff1660e01b815260040161276d939291906153c5565b5f604051808303815f87803b158015612784575f5ffd5b505af1158015612796573d5f5f3e3d5ffd5b505050506001600c5f8581526020019081526020015f205f6101000a81548160ff021916908315150217905550600a5f8481526020019081526020015f2060020154600a5f8581526020019081526020015f206001015f9054906101000a900473ffffffffffffffffffffffffffffffffffffffff1673ffffffffffffffffffffffffffffffffffffffff16600a5f8681526020019081526020015f205f015f9054906101000a900473ffffffffffffffffffffffffffffffffffffffff1673ffffffffffffffffffffffffffffffffffffffff167fb5b85bfb8be795a728f5f9d60c42235943db69844ebb6bc1552469ee65a0ad4a60405160405180910390a4600a5f8481526020019081526020015f205f5f82015f6101000a81549073ffffffffffffffffffffffffffffffffffffffff0219169055600182015f6101000a81549073ffffffffffffffffffffffffffffffffffffffff0219169055600282015f9055600382015f9055600482015f90555050505050565b5f5f9054906101000a900473ffffffffffffffffffffffffffffffffffffffff1673ffffffffffffffffffffffffffffffffffffffff163373ffffffffffffffffffffffffffffffffffffffff1614612995576040517fc33e396f00000000000000000000000000000000000000000000000000000000815260040160405180910390fd5b5f5f9054906101000a900473ffffffffffffffffffffffffffffffffffffffff1673ffffffffffffffffffffffffffffffffffffffff16632bb02d4e6040518163ffffffff1660e01b81526004015f6040518083038186803b1580156129f9575f5ffd5b505afa158015612a0b573d5f5f3e3d5ffd5b505050505f73ffffffffffffffffffffffffffffffffffffffff168173ffffffffffffffffffffffffffffffffffffffff1603612a74576040517fd92e233d00000000000000000000000000000000000000000000000000000000815260040160405180910390fd5b8060015f6101000a81548173ffffffffffffffffffffffffffffffffffffffff021916908373ffffffffffffffffffffffffffffffffffffffff1602179055508073ffffffffffffffffffffffffffffffffffffffff167f5e3853545166fee27ddae3d7d25c9fe149be3bcc2e36f02dcf19322ab57fcfe060405160405180910390a250565b6060806003548310612b38576040517f2156216000000000000000000000000000000000000000000000000000000000815260040160405180910390fd5b5f600b5f8581526020019081526020015f20805480602002602001604051908101604052809291908181526020015f905b82821015612bf7578382905f5260205f2090600202016040518060400160405290815f82015f9054906101000a900473ffffffffffffffffffffffffffffffffffffffff1673ffffffffffffffffffffffffffffffffffffffff1673ffffffffffffffffffffffffffffffffffffffff16815260200160018201548152505081526020019060010190612b69565b5050505090505f815190508067ffffffffffffffff811115612c1c57612c1b614b4d565b5b604051908082528060200260200182016040528015612c4a5781602001602082028036833780820191505090505b5093508067ffffffffffffffff811115612c6757612c66614b4d565b5b604051908082528060200260200182016040528015612c955781602001602082028036833780820191505090505b5092505f5f90505b81811015612d5957828181518110612cb857612cb761517f565b5b60200260200101515f0151858281518110612cd657612cd561517f565b5b602002602001019073ffffffffffffffffffffffffffffffffffffffff16908173ffffffffffffffffffffffffffffffffffffffff1681525050828181518110612d2357612d2261517f565b5b602002602001015160200151848281518110612d4257612d4161517f565b5b602002602001018181525050806001019050612c9d565b505050915091565b6040518060400160405280600581526020017f352e302e3000000000000000000000000000000000000000000000000000000081525081565b5f6001600354612daa91906151ac565b905090565b5f612db8614477565b90505f815f0160089054906101000a900460ff161590505f825f015f9054906101000a900467ffffffffffffffff1690505f5f8267ffffffffffffffff16148015612e005750825b90505f60018367ffffffffffffffff16148015612e3357505f3073ffffffffffffffffffffffffffffffffffffffff163b145b905081158015612e41575080155b15612e78576040517ff92ee8a900000000000000000000000000000000000000000000000000000000815260040160405180910390fd5b6001855f015f6101000a81548167ffffffffffffffff021916908367ffffffffffffffff1602179055508315612ec5576001855f0160086101000a81548160ff0219169083151502179055505b5f73ffffffffffffffffffffffffffffffffffffffff168673ffffffffffffffffffffffffffffffffffffffff1603612f2a576040517fd92e233d00000000000000000000000000000000000000000000000000000000815260040160405180910390fd5b855f5f6101000a81548173ffffffffffffffffffffffffffffffffffffffff021916908373ffffffffffffffffffffffffffffffffffffffff1602179055508315612fc3575f855f0160086101000a81548160ff0219169083151502179055507fc7f505b2f371ae2175ee4913f4499e1f2633a7b5936321eed1cdaeb6115181d26001604051612fba9190615504565b60405180910390a15b505050505050565b5f5f9054906101000a900473ffffffffffffffffffffffffffffffffffffffff1673ffffffffffffffffffffffffffffffffffffffff163373ffffffffffffffffffffffffffffffffffffffff1614613050576040517fc33e396f00000000000000000000000000000000000000000000000000000000815260040160405180910390fd5b5f5f9054906101000a900473ffffffffffffffffffffffffffffffffffffffff1673ffffffffffffffffffffffffffffffffffffffff16632bb02d4e6040518163ffffffff1660e01b81526004015f6040518083038186803b1580156130b4575f5ffd5b505afa1580156130c6573d5f5f3e3d5ffd5b505050507f0000000000000000000000000000000000000000000000000000000000000000811015613124576040517f7616640100000000000000000000000000000000000000000000000000000000815260040160405180910390fd5b80600481905550807f52f9f0102d053492fefbc1779205d2772d3aa714bf8f9241caed9228e2ae614160405160405180910390a250565b5f60095f9054906101000a900460ff16905090565b5f5f9054906101000a900473ffffffffffffffffffffffffffffffffffffffff1673ffffffffffffffffffffffffffffffffffffffff163373ffffffffffffffffffffffffffffffffffffffff16146131f5576040517fc33e396f00000000000000000000000000000000000000000000000000000000815260040160405180910390fd5b5f5f9054906101000a900473ffffffffffffffffffffffffffffffffffffffff1673ffffffffffffffffffffffffffffffffffffffff16632bb02d4e6040518163ffffffff1660e01b81526004015f6040518083038186803b158015613259575f5ffd5b505afa15801561326b573d5f5f3e3d5ffd5b50505050600581108061327e5750603281115b156132b5576040517f61698a0a00000000000000000000000000000000000000000000000000000000815260040160405180910390fd5b80600681905550807f57f900538034b5a36ced9fb254a776c686c91d0cf5b424ecab629451e1be39be60405160405180910390a250565b6132f46140ae565b600354811061332f576040517f2156216000000000000000000000000000000000000000000000000000000000815260040160405180910390fd5b600c5f8281526020019081526020015f205f9054906101000a900460ff1615613384576040517fd4746fc700000000000000000000000000000000000000000000000000000000815260040160405180910390fd5b42600a5f8381526020019081526020015f206004015411156133d2576040517f149ac7d600000000000000000000000000000000000000000000000000000000815260040160405180910390fd5b5f600a5f8381526020019081526020015f206001015f9054906101000a900473ffffffffffffffffffffffffffffffffffffffff1690505f600a5f8481526020019081526020015f206002015490505f600b5f8581526020019081526020015f208054905090505f810361350a576001600c5f8681526020019081526020015f205f6101000a81548160ff0219169083151502179055508273ffffffffffffffffffffffffffffffffffffffff166342842e0e30600a5f8881526020019081526020015f205f015f9054906101000a900473ffffffffffffffffffffffffffffffffffffffff16856040518463ffffffff1660e01b81526004016134d8939291906153c5565b5f604051808303815f87803b1580156134ef575f5ffd5b505af1158015613501573d5f5f3e3d5ffd5b50505050613b73565b5f5f6135158661204e565b915091506001600c5f8881526020019081526020015f205f6101000a81548160ff0219169083151502179055508473ffffffffffffffffffffffffffffffffffffffff166342842e0e30600b5f8a81526020019081526020015f2084815481106135825761358161517f565b5b905f5260205f2090600202015f015f9054906101000a900473ffffffffffffffffffffffffffffffffffffffff16876040518463ffffffff1660e01b81526004016135cf939291906153c5565b5f604051808303815f87803b1580156135e6575f5ffd5b505af11580156135f8573d5f5f3e3d5ffd5b505050505f5f600a5f8981526020019081526020015f206001015f9054906101000a900473ffffffffffffffffffffffffffffffffffffffff1673ffffffffffffffffffffffffffffffffffffffff16632a55205a87866040518363ffffffff1660e01b815260040161366c929190614d27565b6040805180830381865afa158015613686573d5f5f3e3d5ffd5b505050506040513d601f19601f820116820180604052508101906136aa9190615531565b915091505f7f00000000000000000000000000000000000000000000000000000000000000006103e8866136de91906150ae565b6136e8919061511c565b9050808211156136f6578091505b5f7f00000000000000000000000000000000000000000000000000000000000000006008548761372691906150ae565b613730919061511c565b90505f81848861374091906151ac565b61374a91906151ac565b90505f600a5f8d81526020019081526020015f205f015f9054906101000a900473ffffffffffffffffffffffffffffffffffffffff1673ffffffffffffffffffffffffffffffffffffffff16826040516137a39061549b565b5f6040518083038185875af1925050503d805f81146137dd576040519150601f19603f3d011682016040523d82523d5f602084013e6137e2565b606091505b505090508061381d576040517ff499da2000000000000000000000000000000000000000000000000000000000815260040160405180910390fd5b5f73ffffffffffffffffffffffffffffffffffffffff168673ffffffffffffffffffffffffffffffffffffffff161415801561385857505f85115b156138fe575f8673ffffffffffffffffffffffffffffffffffffffff16866040516138829061549b565b5f6040518083038185875af1925050503d805f81146138bc576040519150601f19603f3d011682016040523d82523d5f602084013e6138c1565b606091505b50509050806138fc576040517ff499da2000000000000000000000000000000000000000000000000000000000815260040160405180910390fd5b505b5f73ffffffffffffffffffffffffffffffffffffffff1660015f9054906101000a900473ffffffffffffffffffffffffffffffffffffffff1673ffffffffffffffffffffffffffffffffffffffff1614613a14575f60015f9054906101000a900473ffffffffffffffffffffffffffffffffffffffff1673ffffffffffffffffffffffffffffffffffffffff16846040516139989061549b565b5f6040518083038185875af1925050503d805f81146139d2576040519150601f19603f3d011682016040523d82523d5f602084013e6139d7565b606091505b5050905080613a12576040517ff499da2000000000000000000000000000000000000000000000000000000000815260040160405180910390fd5b505b600b5f8d81526020019081526020015f2060018a613a3291906151ac565b81548110613a4357613a4261517f565b5b905f5260205f209060020201600b5f8e81526020019081526020015f208881548110613a7257613a7161517f565b5b905f5260205f2090600202015f82015f9054906101000a900473ffffffffffffffffffffffffffffffffffffffff16815f015f6101000a81548173ffffffffffffffffffffffffffffffffffffffff021916908373ffffffffffffffffffffffffffffffffffffffff16021790555060018201548160010155905050600b5f8d81526020019081526020015f20805480613b0f57613b0e615441565b5b600190038181905f5260205f2090600202015f5f82015f6101000a81549073ffffffffffffffffffffffffffffffffffffffff0219169055600182015f9055505090558760075f828254613b6391906151ac565b9250508190555050505050505050505b600a5f8581526020019081526020015f205f5f82015f6101000a81549073ffffffffffffffffffffffffffffffffffffffff0219169055600182015f6101000a81549073ffffffffffffffffffffffffffffffffffffffff0219169055600282015f9055600382015f9055600482015f90555050837f45806e512b1f4f10e33e8b3cb64d1d11d998d8c554a95e0841fc1c701278bd5d60405160405180910390a2505050613c1f6140d0565b50565b5f5f6003548410613c5f576040517f2156216000000000000000000000000000000000000000000000000000000000815260040160405180910390fd5b5f600b5f8681526020019081526020015f20805480602002602001604051908101604052809291908181526020015f905b82821015613d1e578382905f5260205f2090600202016040518060400160405290815f82015f9054906101000a900473ffffffffffffffffffffffffffffffffffffffff1673ffffffffffffffffffffffffffffffffffffffff1673ffffffffffffffffffffffffffffffffffffffff16815260200160018201548152505081526020019060010190613c90565b5050505090505f5f90505b8151811015613db9578473ffffffffffffffffffffffffffffffffffffffff16828281518110613d5c57613d5b61517f565b5b60200260200101515f015173ffffffffffffffffffffffffffffffffffffffff1603613dae57818181518110613d9557613d9461517f565b5b6020026020010151602001516001935093505050613dc2565b806001019050613d29565b505f5f92509250505b9250929050565b5f5f9054906101000a900473ffffffffffffffffffffffffffffffffffffffff1673ffffffffffffffffffffffffffffffffffffffff163373ffffffffffffffffffffffffffffffffffffffff1614613e4e576040517fc33e396f00000000000000000000000000000000000000000000000000000000815260040160405180910390fd5b5f5f9054906101000a900473ffffffffffffffffffffffffffffffffffffffff1673ffffffffffffffffffffffffffffffffffffffff16632bb02d4e6040518163ffffffff1660e01b81526004015f6040518083038186803b158015613eb2575f5ffd5b505afa158015613ec4573d5f5f3e3d5ffd5b505050506101f4811115613f04576040517f5078ba6b00000000000000000000000000000000000000000000000000000000815260040160405180910390fd5b80600881905550807f2c92921225ca09e4e2f9053ef8d6115ee4ca5aa1ee521e02ea59f2d21ba156ec60405160405180910390a250565b5f5f5f5f5f5f6003548710613f7c576040517f2156216000000000000000000000000000000000000000000000000000000000815260040160405180910390fd5b5f600a5f8981526020019081526020015f206040518060a00160405290815f82015f9054906101000a900473ffffffffffffffffffffffffffffffffffffffff1673ffffffffffffffffffffffffffffffffffffffff1673ffffffffffffffffffffffffffffffffffffffff168152602001600182015f9054906101000a900473ffffffffffffffffffffffffffffffffffffffff1673ffffffffffffffffffffffffffffffffffffffff1673ffffffffffffffffffffffffffffffffffffffff16815260200160028201548152602001600382015481526020016004820154815250509050805f01518160200151826040015183606001518460800151600c5f8e81526020019081526020015f205f9054906101000a900460ff169650965096509650965096505091939550919395565b6140b661448a565b60026140c86140c36144cb565b6144f4565b5f0181905550565b60016140e26140dd6144cb565b6144f4565b5f0181905550565b7f000000000000000000000000000000000000000000000000000000000000000073ffffffffffffffffffffffffffffffffffffffff163073ffffffffffffffffffffffffffffffffffffffff16148061419757507f000000000000000000000000000000000000000000000000000000000000000073ffffffffffffffffffffffffffffffffffffffff1661417e6144fd565b73ffffffffffffffffffffffffffffffffffffffff1614155b156141ce576040517fe07c8dba00000000000000000000000000000000000000000000000000000000815260040160405180910390fd5b565b5f5f9054906101000a900473ffffffffffffffffffffffffffffffffffffffff1673ffffffffffffffffffffffffffffffffffffffff163373ffffffffffffffffffffffffffffffffffffffff1614614255576040517fc33e396f00000000000000000000000000000000000000000000000000000000815260040160405180910390fd5b5f5f9054906101000a900473ffffffffffffffffffffffffffffffffffffffff1673ffffffffffffffffffffffffffffffffffffffff16632bb02d4e6040518163ffffffff1660e01b81526004015f6040518083038186803b1580156142b9575f5ffd5b505afa1580156142cb573d5f5f3e3d5ffd5b5050505050565b8173ffffffffffffffffffffffffffffffffffffffff166352d1902d6040518163ffffffff1660e01b8152600401602060405180830381865afa92505050801561433a57506040513d601f19601f820116820180604052508101906143379190615599565b60015b61437b57816040517f4c9c8ce300000000000000000000000000000000000000000000000000000000815260040161437291906155c4565b60405180910390fd5b7f360894a13ba1a3210667c828492db98dca3e2076cc3735a920a3ca505d382bbc5f1b81146143e157806040517faa1d49a40000000000000000000000000000000000000000000000000000000081526004016143d89190614ce3565b60405180910390fd5b6143eb8383614550565b505050565b7f000000000000000000000000000000000000000000000000000000000000000073ffffffffffffffffffffffffffffffffffffffff163073ffffffffffffffffffffffffffffffffffffffff1614614475576040517fe07c8dba00000000000000000000000000000000000000000000000000000000815260040160405180910390fd5b565b5f5f6144816145c2565b90508091505090565b6144926145eb565b156144c9576040517f3ee5aeb500000000000000000000000000000000000000000000000000000000815260040160405180910390fd5b565b5f7f9b779b17422d0df92223018b32b4d1fa46e071723d6817e2486d003becc55f005f1b905090565b5f819050919050565b5f6145297f360894a13ba1a3210667c828492db98dca3e2076cc3735a920a3ca505d382bbc5f1b614607565b5f015f9054906101000a900473ffffffffffffffffffffffffffffffffffffffff16905090565b61455982614610565b8173ffffffffffffffffffffffffffffffffffffffff167fbc7cd75a20ee27fd9adebab32041f755214dbc6bffa90cc0225b39da2e5c2d3b60405160405180910390a25f815111156145b5576145af82826146d9565b506145be565b6145bd6147ca565b5b5050565b5f7ff0c57e16840df040f15088dc2f81fe391c3923bec73e23a9662efc9c229c6a005f1b905090565b5f60026145fe6145f96144cb565b6144f4565b5f015414905090565b5f819050919050565b5f8173ffffffffffffffffffffffffffffffffffffffff163b0361466b57806040517f4c9c8ce300000000000000000000000000000000000000000000000000000000815260040161466291906155c4565b60405180910390fd5b806146977f360894a13ba1a3210667c828492db98dca3e2076cc3735a920a3ca505d382bbc5f1b614607565b5f015f6101000a81548173ffffffffffffffffffffffffffffffffffffffff021916908373ffffffffffffffffffffffffffffffffffffffff16021790555050565b60605f6146e68484614806565b905080801561471c57505f6146f961481a565b118061471b57505f8473ffffffffffffffffffffffffffffffffffffffff163b115b5b1561473157614729614821565b9150506147c4565b801561477457836040517f9996b31500000000000000000000000000000000000000000000000000000000815260040161476b91906155c4565b60405180910390fd5b5f61477d61481a565b11156147905761478b61483e565b6147c2565b6040517fd6bda27500000000000000000000000000000000000000000000000000000000815260040160405180910390fd5b505b92915050565b5f341115614804576040517fb398979f00000000000000000000000000000000000000000000000000000000815260040160405180910390fd5b565b5f5f5f835160208501865af4905092915050565b5f3d905090565b606060405190503d81523d5f602083013e3d602001810160405290565b6040513d5f823e3d81fd5b5f604051905090565b5f5ffd5b5f5ffd5b5f819050919050565b61486c8161485a565b8114614876575f5ffd5b50565b5f8135905061488781614863565b92915050565b5f602082840312156148a2576148a1614852565b5b5f6148af84828501614879565b91505092915050565b5f5f5f5f608085870312156148d0576148cf614852565b5b5f6148dd87828801614879565b94505060206148ee87828801614879565b93505060406148ff87828801614879565b925050606061491087828801614879565b91505092959194509250565b5f73ffffffffffffffffffffffffffffffffffffffff82169050919050565b5f6149458261491c565b9050919050565b6149558161493b565b811461495f575f5ffd5b50565b5f813590506149708161494c565b92915050565b5f5ffd5b5f5ffd5b5f5ffd5b5f5f83601f84011261499757614996614976565b5b8235905067ffffffffffffffff8111156149b4576149b361497a565b5b6020830191508360018202830111156149d0576149cf61497e565b5b9250929050565b5f5f5f5f5f608086880312156149f0576149ef614852565b5b5f6149fd88828901614962565b9550506020614a0e88828901614962565b9450506040614a1f88828901614879565b935050606086013567ffffffffffffffff811115614a4057614a3f614856565b5b614a4c88828901614982565b92509250509295509295909350565b5f7fffffffff0000000000000000000000000000000000000000000000000000000082169050919050565b614a8f81614a5b565b82525050565b5f602082019050614aa85f830184614a86565b92915050565b614ab78161485a565b82525050565b614ac68161493b565b82525050565b5f60e082019050614adf5f83018a614aae565b614aec6020830189614aae565b614af96040830188614aae565b614b066060830187614aae565b614b136080830186614aae565b614b2060a0830185614aae565b614b2d60c0830184614abd565b98975050505050505050565b5f5ffd5b5f601f19601f8301169050919050565b7f4e487b71000000000000000000000000000000000000000000000000000000005f52604160045260245ffd5b614b8382614b3d565b810181811067ffffffffffffffff82111715614ba257614ba1614b4d565b5b80604052505050565b5f614bb4614849565b9050614bc08282614b7a565b919050565b5f67ffffffffffffffff821115614bdf57614bde614b4d565b5b614be882614b3d565b9050602081019050919050565b828183375f83830152505050565b5f614c15614c1084614bc5565b614bab565b905082815260208101848484011115614c3157614c30614b39565b5b614c3c848285614bf5565b509392505050565b5f82601f830112614c5857614c57614976565b5b8135614c68848260208601614c03565b91505092915050565b5f5f60408385031215614c8757614c86614852565b5b5f614c9485828601614962565b925050602083013567ffffffffffffffff811115614cb557614cb4614856565b5b614cc185828601614c44565b9150509250929050565b5f819050919050565b614cdd81614ccb565b82525050565b5f602082019050614cf65f830184614cd4565b92915050565b5f60208284031215614d1157614d10614852565b5b5f614d1e84828501614962565b91505092915050565b5f604082019050614d3a5f830185614aae565b614d476020830184614aae565b9392505050565b5f602082019050614d615f830184614aae565b92915050565b5f81519050919050565b5f82825260208201905092915050565b5f819050602082019050919050565b614d998161493b565b82525050565b5f614daa8383614d90565b60208301905092915050565b5f602082019050919050565b5f614dcc82614d67565b614dd68185614d71565b9350614de183614d81565b805f5b83811015614e11578151614df88882614d9f565b9750614e0383614db6565b925050600181019050614de4565b5085935050505092915050565b5f81519050919050565b5f82825260208201905092915050565b5f819050602082019050919050565b614e508161485a565b82525050565b5f614e618383614e47565b60208301905092915050565b5f602082019050919050565b5f614e8382614e1e565b614e8d8185614e28565b9350614e9883614e38565b805f5b83811015614ec8578151614eaf8882614e56565b9750614eba83614e6d565b925050600181019050614e9b565b5085935050505092915050565b5f6040820190508181035f830152614eed8185614dc2565b90508181036020830152614f018184614e79565b90509392505050565b5f81519050919050565b5f82825260208201905092915050565b8281835e5f83830152505050565b5f614f3c82614f0a565b614f468185614f14565b9350614f56818560208601614f24565b614f5f81614b3d565b840191505092915050565b5f6020820190508181035f830152614f828184614f32565b905092915050565b5f8115159050919050565b614f9e81614f8a565b82525050565b5f602082019050614fb75f830184614f95565b92915050565b5f5f60408385031215614fd357614fd2614852565b5b5f614fe085828601614879565b9250506020614ff185828601614962565b9150509250929050565b5f60408201905061500e5f830185614aae565b61501b6020830184614f95565b9392505050565b5f60c0820190506150355f830189614abd565b6150426020830188614abd565b61504f6040830187614aae565b61505c6060830186614aae565b6150696080830185614aae565b61507660a0830184614f95565b979650505050505050565b7f4e487b71000000000000000000000000000000000000000000000000000000005f52601160045260245ffd5b5f6150b88261485a565b91506150c38361485a565b92508282026150d18161485a565b915082820484148315176150e8576150e7615081565b5b5092915050565b7f4e487b71000000000000000000000000000000000000000000000000000000005f52601260045260245ffd5b5f6151268261485a565b91506151318361485a565b925082615141576151406150ef565b5b828204905092915050565b5f6151568261485a565b91506151618361485a565b925082820190508082111561517957615178615081565b5b92915050565b7f4e487b71000000000000000000000000000000000000000000000000000000005f52603260045260245ffd5b5f6151b68261485a565b91506151c18361485a565b92508282039050818111156151d9576151d8615081565b5b92915050565b5f815190506151ed8161494c565b92915050565b5f6020828403121561520857615207614852565b5b5f615215848285016151df565b91505092915050565b5f8160e01c9050919050565b5f60033d11156152465760045f5f3e6152435f5161521e565b90505b90565b5f60443d106152d55761525a614849565b60043d036004823e80513d602482011167ffffffffffffffff821117156152825750506152d5565b808201805167ffffffffffffffff8111156152a057505050506152d5565b80602083010160043d0385018111156152bd5750505050506152d5565b6152cc82602001850186614b7a565b82955050505050505b90565b7f466163746f7279207265766572743a2000000000000000000000000000000000815250565b5f81905092915050565b5f61531282614f0a565b61531c81856152fe565b935061532c818560208601614f24565b80840191505092915050565b5f615342826152d8565b6010820191506153528284615308565b915081905092915050565b7f466163746f72792063616c6c206661696c6564000000000000000000000000005f82015250565b5f615391601383614f14565b915061539c8261535d565b602082019050919050565b5f6020820190508181035f8301526153be81615385565b9050919050565b5f6060820190506153d85f830186614abd565b6153e56020830185614abd565b6153f26040830184614aae565b949350505050565b5f6154048261485a565b91507fffffffffffffffffffffffffffffffffffffffffffffffffffffffffffffffff820361543657615435615081565b5b600182019050919050565b7f4e487b71000000000000000000000000000000000000000000000000000000005f52603160045260245ffd5b5f81905092915050565b50565b5f6154865f8361546e565b915061549182615478565b5f82019050919050565b5f6154a58261547b565b9150819050919050565b5f819050919050565b5f67ffffffffffffffff82169050919050565b5f819050919050565b5f6154ee6154e96154e4846154af565b6154cb565b6154b8565b9050919050565b6154fe816154d4565b82525050565b5f6020820190506155175f8301846154f5565b92915050565b5f8151905061552b81614863565b92915050565b5f5f6040838503121561554757615546614852565b5b5f615554858286016151df565b92505060206155658582860161551d565b9150509250929050565b61557881614ccb565b8114615582575f5ffd5b50565b5f815190506155938161556f565b92915050565b5f602082840312156155ae576155ad614852565b5b5f6155bb84828501615585565b91505092915050565b5f6020820190506155d75f830184614abd565b9291505056fea26469706673582212204665e65180b0e474ef9e6f152b6efc9feb4c2c813da6faa2fd496977dd09fb8b64736f6c634300081e0033","linkReferences":{}},"methodIdentifiers":{"UPGRADE_INTERFACE_VERSION()":"ad3cb1cc","activateAuction()":"605fed87","cancelAuction(uint256)":"96b5a755","finalizeAuction(uint256)":"e8083863","getAllBids(uint256)":"a528ff83","getAuctionCount()":"c44e6640","getAuctionInfo(uint256)":"fc3fc4ed","getAuctionSettings()":"20bcb25d","getBlockedAmount()":"81f0b7eb","getMaximumBid(uint256)":"7b89e432","getNextBidAmount(uint256)":"8db045f1","getUserBid(uint256,address)":"e879b475","initialize(address)":"c4d66de8","isAuctionActive()":"d1b4b9a3","makeABid(uint256)":"04efbb2a","onERC721Received(address,address,uint256,bytes)":"150b7a02","proxiableUUID()":"52d1902d","putTokenOnAuction(uint256,uint256,uint256,uint256)":"13aa8e43","setAuctionFeeReceiver(address)":"9a7ba878","setFactoryAddress(address)":"83c17c55","setMaxDuration(uint256)":"cf0f34c4","setMinimumNextBidPercent(uint256)":"d882ac59","setMultisigTimelock(address)":"74bbc800","setNewAuctionFeeAmount(uint256)":"f319fef5","stopAuction()":"269b9a08","upgradeToAndCall(address,bytes)":"4f1ef286","withdraw()":"3ccfd60b","withdrawAuctionBid(uint256)":"283f766c"},"id":64}