{"abi":[{"type":"constructor","inputs":[],"stateMutability":"nonpayable"},{"type":"function","name":"MIN_PRICE","inputs":[],"outputs":[{"name":"","type":"uint256","internalType":"uint256"}],"stateMutability":"view"},{"type":"function","name":"UPGRADE_INTERFACE_VERSION","inputs":[],"outputs":[{"name":"","type":"string","internalType":"string"}],"stateMutability":"view"},{"type":"function","name":"_weth","inputs":[],"outputs":[{"name":"","type":"address","internalType":"address"}],"stateMutability":"view"},{"type":"function","name":"activateMarketplace","inputs":[],"outputs":[],"stateMutability":"nonpayable"},{"type":"function","name":"buyUnmintedToken","inputs":[{"name":"collectionId","type":"uint256","internalType":"uint256"}],"outputs":[],"stateMutability":"payable"},{"type":"function","name":"cancelOffer","inputs":[{"name":"offer","type":"tuple","internalType":"struct MarketplaceNFT.Offer","components":[{"name":"buyer","type":"address","internalType":"address"},{"name":"collectionId","type":"uint256","internalType":"uint256"},{"name":"tokenId","type":"uint256","internalType":"uint256"},{"name":"price","type":"uint256","internalType":"uint256"},{"name":"nonce","type":"uint256","internalType":"uint256"},{"name":"deadline","type":"uint256","internalType":"uint256"}]},{"name":"signature","type":"bytes","internalType":"bytes"}],"outputs":[],"stateMutability":"nonpayable"},{"type":"function","name":"cancelOrder","inputs":[{"name":"order","type":"tuple","internalType":"struct MarketplaceNFT.Order","components":[{"name":"seller","type":"address","internalType":"address"},{"name":"collectionId","type":"uint256","internalType":"uint256"},{"name":"tokenId","type":"uint256","internalType":"uint256"},{"name":"price","type":"uint256","internalType":"uint256"},{"name":"nonce","type":"uint256","internalType":"uint256"},{"name":"deadline","type":"uint256","internalType":"uint256"}]},{"name":"signature","type":"bytes","internalType":"bytes"}],"outputs":[],"stateMutability":"nonpayable"},{"type":"function","name":"createOffer","inputs":[{"name":"collectionId","type":"uint256","internalType":"uint256"},{"name":"tokenId","type":"uint256","internalType":"uint256"},{"name":"price","type":"uint256","internalType":"uint256"},{"name":"nonce","type":"uint256","internalType":"uint256"},{"name":"deadline","type":"uint256","internalType":"uint256"}],"outputs":[{"name":"","type":"tuple","internalType":"struct MarketplaceNFT.Offer","components":[{"name":"buyer","type":"address","internalType":"address"},{"name":"collectionId","type":"uint256","internalType":"uint256"},{"name":"tokenId","type":"uint256","internalType":"uint256"},{"name":"price","type":"uint256","internalType":"uint256"},{"name":"nonce","type":"uint256","internalType":"uint256"},{"name":"deadline","type":"uint256","internalType":"uint256"}]}],"stateMutability":"nonpayable"},{"type":"function","name":"eip712Domain","inputs":[],"outputs":[{"name":"fields","type":"bytes1","internalType":"bytes1"},{"name":"name","type":"string","internalType":"string"},{"name":"version","type":"string","internalType":"string"},{"name":"chainId","type":"uint256","internalType":"uint256"},{"name":"verifyingContract","type":"address","internalType":"address"},{"name":"salt","type":"bytes32","internalType":"bytes32"},{"name":"extensions","type":"uint256[]","internalType":"uint256[]"}],"stateMutability":"view"},{"type":"function","name":"executeOffer","inputs":[{"name":"offer","type":"tuple","internalType":"struct MarketplaceNFT.Offer","components":[{"name":"buyer","type":"address","internalType":"address"},{"name":"collectionId","type":"uint256","internalType":"uint256"},{"name":"tokenId","type":"uint256","internalType":"uint256"},{"name":"price","type":"uint256","internalType":"uint256"},{"name":"nonce","type":"uint256","internalType":"uint256"},{"name":"deadline","type":"uint256","internalType":"uint256"}]},{"name":"signature","type":"bytes","internalType":"bytes"}],"outputs":[],"stateMutability":"payable"},{"type":"function","name":"executeOrder","inputs":[{"name":"order","type":"tuple","internalType":"struct MarketplaceNFT.Order","components":[{"name":"seller","type":"address","internalType":"address"},{"name":"collectionId","type":"uint256","internalType":"uint256"},{"name":"tokenId","type":"uint256","internalType":"uint256"},{"name":"price","type":"uint256","internalType":"uint256"},{"name":"nonce","type":"uint256","internalType":"uint256"},{"name":"deadline","type":"uint256","internalType":"uint256"}]},{"name":"signature","type":"bytes","internalType":"bytes"}],"outputs":[],"stateMutability":"payable"},{"type":"function","name":"getAllRoyaltyAndFeeInfo","inputs":[{"name":"collectionAddress","type":"address","internalType":"address"},{"name":"tokenId","type":"uint256","internalType":"uint256"},{"name":"price","type":"uint256","internalType":"uint256"}],"outputs":[{"name":"royaltyReceiver","type":"address","internalType":"address"},{"name":"royaltyAmount","type":"uint256","internalType":"uint256"},{"name":"marketplaceFeeAmount","type":"uint256","internalType":"uint256"}],"stateMutability":"view"},{"type":"function","name":"getCollectionAddress","inputs":[{"name":"collectionId","type":"uint256","internalType":"uint256"}],"outputs":[{"name":"collectionAddress","type":"address","internalType":"address"}],"stateMutability":"view"},{"type":"function","name":"getDomainSeparator","inputs":[],"outputs":[{"name":"","type":"bytes32","internalType":"bytes32"}],"stateMutability":"view"},{"type":"function","name":"getMarketplaceFeeAmount","inputs":[],"outputs":[{"name":"","type":"uint256","internalType":"uint256"}],"stateMutability":"view"},{"type":"function","name":"getMarketplaceFeeReceiver","inputs":[],"outputs":[{"name":"","type":"address","internalType":"address"}],"stateMutability":"view"},{"type":"function","name":"getMarketplaceSettings","inputs":[],"outputs":[{"name":"minPrice","type":"uint256","internalType":"uint256"},{"name":"marketplaceFeeAmount","type":"uint256","internalType":"uint256"},{"name":"feeReceiver","type":"address","internalType":"address"},{"name":"wethAddress","type":"address","internalType":"address"},{"name":"factoryAddress","type":"address","internalType":"address"}],"stateMutability":"view"},{"type":"function","name":"initialize","inputs":[{"name":"multisigTimelock","type":"address","internalType":"address"},{"name":"weth","type":"address","internalType":"address"}],"outputs":[],"stateMutability":"nonpayable"},{"type":"function","name":"isMarketplaceActive","inputs":[],"outputs":[{"name":"","type":"bool","internalType":"bool"}],"stateMutability":"view"},{"type":"function","name":"isOfferCancelled","inputs":[{"name":"offer","type":"tuple","internalType":"struct MarketplaceNFT.Offer","components":[{"name":"buyer","type":"address","internalType":"address"},{"name":"collectionId","type":"uint256","internalType":"uint256"},{"name":"tokenId","type":"uint256","internalType":"uint256"},{"name":"price","type":"uint256","internalType":"uint256"},{"name":"nonce","type":"uint256","internalType":"uint256"},{"name":"deadline","type":"uint256","internalType":"uint256"}]}],"outputs":[{"name":"cancelled","type":"bool","internalType":"bool"}],"stateMutability":"view"},{"type":"function","name":"isOfferNonceUsed","inputs":[{"name":"buyer","type":"address","internalType":"address"},{"name":"nonce","type":"uint256","internalType":"uint256"}],"outputs":[{"name":"used","type":"bool","internalType":"bool"}],"stateMutability":"view"},{"type":"function","name":"isOrderCancelled","inputs":[{"name":"order","type":"tuple","internalType":"struct MarketplaceNFT.Order","components":[{"name":"seller","type":"address","internalType":"address"},{"name":"collectionId","type":"uint256","internalType":"uint256"},{"name":"tokenId","type":"uint256","internalType":"uint256"},{"name":"price","type":"uint256","internalType":"uint256"},{"name":"nonce","type":"uint256","internalType":"uint256"},{"name":"deadline","type":"uint256","internalType":"uint256"}]}],"outputs":[{"name":"cancelled","type":"bool","internalType":"bool"}],"stateMutability":"view"},{"type":"function","name":"isOrderNonceUsed","inputs":[{"name":"seller","type":"address","internalType":"address"},{"name":"nonce","type":"uint256","internalType":"uint256"}],"outputs":[{"name":"used","type":"bool","internalType":"bool"}],"stateMutability":"view"},{"type":"function","name":"onERC721Received","inputs":[{"name":"","type":"address","internalType":"address"},{"name":"","type":"address","internalType":"address"},{"name":"","type":"uint256","internalType":"uint256"},{"name":"","type":"bytes","internalType":"bytes"}],"outputs":[{"name":"","type":"bytes4","internalType":"bytes4"}],"stateMutability":"pure"},{"type":"function","name":"proxiableUUID","inputs":[],"outputs":[{"name":"","type":"bytes32","internalType":"bytes32"}],"stateMutability":"view"},{"type":"function","name":"putTokenOnSale","inputs":[{"name":"order","type":"tuple","internalType":"struct MarketplaceNFT.Order","components":[{"name":"seller","type":"address","internalType":"address"},{"name":"collectionId","type":"uint256","internalType":"uint256"},{"name":"tokenId","type":"uint256","internalType":"uint256"},{"name":"price","type":"uint256","internalType":"uint256"},{"name":"nonce","type":"uint256","internalType":"uint256"},{"name":"deadline","type":"uint256","internalType":"uint256"}]}],"outputs":[],"stateMutability":"view"},{"type":"function","name":"setFactoryAddress","inputs":[{"name":"newFactoryAddress","type":"address","internalType":"address"}],"outputs":[],"stateMutability":"nonpayable"},{"type":"function","name":"setMarketplaceFeeAmount","inputs":[{"name":"newMarketplaceFeeAmount","type":"uint256","internalType":"uint256"}],"outputs":[],"stateMutability":"nonpayable"},{"type":"function","name":"setMarketplaceFeeReceiver","inputs":[{"name":"newMarketplaceFeeReceiver","type":"address","internalType":"address"}],"outputs":[],"stateMutability":"nonpayable"},{"type":"function","name":"setMultisigTimelock","inputs":[{"name":"newMultisigTimelock","type":"address","internalType":"address"}],"outputs":[],"stateMutability":"nonpayable"},{"type":"function","name":"stopMarketplace","inputs":[],"outputs":[],"stateMutability":"nonpayable"},{"type":"function","name":"upgradeToAndCall","inputs":[{"name":"newImplementation","type":"address","internalType":"address"},{"name":"data","type":"bytes","internalType":"bytes"}],"outputs":[],"stateMutability":"payable"},{"type":"function","name":"withdrawMarketplaceFees","inputs":[],"outputs":[],"stateMutability":"nonpayable"},{"type":"event","name":"EIP712DomainChanged","inputs":[],"anonymous":false},{"type":"event","name":"Initialized","inputs":[{"name":"version","type":"uint64","indexed":false,"internalType":"uint64"}],"anonymous":false},{"type":"event","name":"MarketplaceIsActive","inputs":[],"anonymous":false},{"type":"event","name":"MarketplaceSetStopped","inputs":[],"anonymous":false},{"type":"event","name":"MultisigTimelockSet","inputs":[{"name":"multisigTimelock","type":"address","indexed":true,"internalType":"address"}],"anonymous":false},{"type":"event","name":"NewFactoryAddressSet","inputs":[{"name":"newFactory","type":"address","indexed":true,"internalType":"address"}],"anonymous":false},{"type":"event","name":"NewMarketplaceFeeAmountSet","inputs":[{"name":"feeAmount","type":"uint256","indexed":true,"internalType":"uint256"}],"anonymous":false},{"type":"event","name":"NewMarketplaceFeeReceiverSet","inputs":[{"name":"newMarketplaceFeeReceiver","type":"address","indexed":true,"internalType":"address"}],"anonymous":false},{"type":"event","name":"NonceMarkedUsed","inputs":[{"name":"account","type":"address","indexed":true,"internalType":"address"},{"name":"nonce","type":"uint256","indexed":true,"internalType":"uint256"}],"anonymous":false},{"type":"event","name":"OfferCancelled","inputs":[{"name":"buyer","type":"address","indexed":true,"internalType":"address"},{"name":"collectionId","type":"uint256","indexed":true,"internalType":"uint256"},{"name":"tokenId","type":"uint256","indexed":true,"internalType":"uint256"},{"name":"nonce","type":"uint256","indexed":false,"internalType":"uint256"}],"anonymous":false},{"type":"event","name":"OfferExecuted","inputs":[{"name":"buyer","type":"address","indexed":true,"internalType":"address"},{"name":"seller","type":"address","indexed":true,"internalType":"address"},{"name":"collectionId","type":"uint256","indexed":true,"internalType":"uint256"},{"name":"tokenId","type":"uint256","indexed":false,"internalType":"uint256"},{"name":"price","type":"uint256","indexed":false,"internalType":"uint256"},{"name":"nonce","type":"uint256","indexed":false,"internalType":"uint256"},{"name":"deadline","type":"uint256","indexed":false,"internalType":"uint256"}],"anonymous":false},{"type":"event","name":"OrderCancelled","inputs":[{"name":"seller","type":"address","indexed":true,"internalType":"address"},{"name":"collectionId","type":"uint256","indexed":true,"internalType":"uint256"},{"name":"tokenId","type":"uint256","indexed":true,"internalType":"uint256"},{"name":"nonce","type":"uint256","indexed":false,"internalType":"uint256"}],"anonymous":false},{"type":"event","name":"OrderExecuted","inputs":[{"name":"seller","type":"address","indexed":true,"internalType":"address"},{"name":"buyer","type":"address","indexed":true,"internalType":"address"},{"name":"collectionId","type":"uint256","indexed":true,"internalType":"uint256"},{"name":"tokenId","type":"uint256","indexed":false,"internalType":"uint256"},{"name":"price","type":"uint256","indexed":false,"internalType":"uint256"}],"anonymous":false},{"type":"event","name":"UnmintedTokenPurchased","inputs":[{"name":"buyer","type":"address","indexed":true,"internalType":"address"},{"name":"collectionId","type":"uint256","indexed":false,"internalType":"uint256"},{"name":"tokenId","type":"uint256","indexed":true,"internalType":"uint256"},{"name":"price","type":"uint256","indexed":false,"internalType":"uint256"}],"anonymous":false},{"type":"event","name":"Upgraded","inputs":[{"name":"implementation","type":"address","indexed":true,"internalType":"address"}],"anonymous":false},{"type":"error","name":"AddressEmptyCode","inputs":[{"name":"target","type":"address","internalType":"address"}]},{"type":"error","name":"ECDSAInvalidSignature","inputs":[]},{"type":"error","name":"ECDSAInvalidSignatureLength","inputs":[{"name":"length","type":"uint256","internalType":"uint256"}]},{"type":"error","name":"ECDSAInvalidSignatureS","inputs":[{"name":"s","type":"bytes32","internalType":"bytes32"}]},{"type":"error","name":"ERC1967InvalidImplementation","inputs":[{"name":"implementation","type":"address","internalType":"address"}]},{"type":"error","name":"ERC1967NonPayable","inputs":[]},{"type":"error","name":"FailedCall","inputs":[]},{"type":"error","name":"IncorrectPrice","inputs":[]},{"type":"error","name":"InsufficientPayment","inputs":[]},{"type":"error","name":"InvalidBidAddress","inputs":[]},{"type":"error","name":"InvalidCollectionAddress","inputs":[]},{"type":"error","name":"InvalidInitialization","inputs":[]},{"type":"error","name":"InvalidMarketplaceFeeAmount","inputs":[]},{"type":"error","name":"InvalidOfferOperation","inputs":[]},{"type":"error","name":"InvalidSignature","inputs":[]},{"type":"error","name":"MarketplaceHasNoApprovalForSale","inputs":[]},{"type":"error","name":"MarketplaceIsActiveAlready","inputs":[]},{"type":"error","name":"MarketplaceIsStopped","inputs":[]},{"type":"error","name":"MarketplaceIsStoppedAlready","inputs":[]},{"type":"error","name":"MintFailed","inputs":[]},{"type":"error","name":"NoFactoryAddressSet","inputs":[]},{"type":"error","name":"NoUnmintedTokens","inputs":[]},{"type":"error","name":"NonceAlreadyUsed","inputs":[]},{"type":"error","name":"NotAMultisigTimelock","inputs":[]},{"type":"error","name":"NotATokenOwner","inputs":[]},{"type":"error","name":"NotInitializing","inputs":[]},{"type":"error","name":"OfferExpired","inputs":[]},{"type":"error","name":"OfferIsCancelled","inputs":[]},{"type":"error","name":"OfferNotCancellable","inputs":[]},{"type":"error","name":"OrderExpired","inputs":[]},{"type":"error","name":"OrderIsCancelled","inputs":[]},{"type":"error","name":"OrderNotCancellable","inputs":[]},{"type":"error","name":"PaymentFailed","inputs":[]},{"type":"error","name":"ReentrancyGuardReentrantCall","inputs":[]},{"type":"error","name":"UUPSUnauthorizedCallContext","inputs":[]},{"type":"error","name":"UUPSUnsupportedProxiableUUID","inputs":[{"name":"slot","type":"bytes32","internalType":"bytes32"}]},{"type":"error","name":"ZeroAddress","inputs":[]}],"bytecode":{"object":"0x60a06040523073ffffffffffffffffffffffffffffffffffffffff1660809073ffffffffffffffffffffffffffffffffffffffff16815250348015610042575f5ffd5b50600161006161005661007a60201b60201c565b6100a360201b60201c565b5f01819055506100756100ac60201b60201c565b610227565b5f7f9b779b17422d0df92223018b32b4d1fa46e071723d6817e2486d003becc55f005f1b905090565b5f819050919050565b5f6100bb6101aa60201b60201c565b9050805f0160089054906101000a900460ff1615610105576040517ff92ee8a900000000000000000000000000000000000000000000000000000000815260040160405180910390fd5b67ffffffffffffffff8016815f015f9054906101000a900467ffffffffffffffff1667ffffffffffffffff16146101a75767ffffffffffffffff815f015f6101000a81548167ffffffffffffffff021916908367ffffffffffffffff1602179055507fc7f505b2f371ae2175ee4913f4499e1f2633a7b5936321eed1cdaeb6115181d267ffffffffffffffff60405161019e919061020e565b60405180910390a15b50565b5f5f6101ba6101c360201b60201c565b90508091505090565b5f7ff0c57e16840df040f15088dc2f81fe391c3923bec73e23a9662efc9c229c6a005f1b905090565b5f67ffffffffffffffff82169050919050565b610208816101ec565b82525050565b5f6020820190506102215f8301846101ff565b92915050565b608051616bc861024d5f395f8181614752015281816147a70152614a5a0152616bc85ff3fe6080604052600436106101ed575f3560e01c8063795fccf11161010c578063ad9f20a61161009f578063cd8f6fe41161006e578063cd8f6fe414610679578063d1c53ced146106b5578063e152119b146106df578063ed24911d1461071b578063f12eb6d214610745576101ed565b8063ad9f20a6146105cd578063be1965fa146105f7578063c03ec23414610613578063c28169581461064f576101ed565b806384b0196e116100db57806384b0196e14610521578063a176459514610551578063a9ab7a161461057b578063ad3cb1cc146105a3576101ed565b8063795fccf11461047f5780637b393fb9146104bb5780637fbf727a146104e357806383c17c55146104f9576101ed565b8063484954ee1161018457806352d1902d1161015357806352d1902d146103c75780636fb13b08146103f157806372560b811461041957806374bbc80014610457576101ed565b8063484954ee1461031d578063485cc955146103475780634f10b8371461036f5780634f1ef286146103ab576101ed565b806332861b9d116101c057806332861b9d14610287578063333671a41461029d5780633a524db2146102d95780633c54662a146102f5576101ed565b8063150b7a02146101f1578063280452e61461022d5780632a25194f146102555780632ec4a4791461026b575b5f5ffd5b3480156101fc575f5ffd5b5061021760048036038101906102129190615631565b610773565b60405161022491906156ef565b60405180910390f35b348015610238575f5ffd5b50610253600480360381019061024e91906158e1565b610787565b005b348015610260575f5ffd5b50610269610aa4565b005b610285600480360381019061028091906158e1565b610ca6565b005b348015610292575f5ffd5b5061029b6116c9565b005b3480156102a8575f5ffd5b506102c360048036038101906102be919061593b565b611856565b6040516102d09190615975565b60405180910390f35b6102f360048036038101906102ee9190615a2b565b611a4d565b005b348015610300575f5ffd5b5061031b60048036038101906103169190615a85565b612610565b005b348015610328575f5ffd5b50610331612971565b60405161033e9190615975565b60405180910390f35b348015610352575f5ffd5b5061036d60048036038101906103689190615ab0565b612999565b005b34801561037a575f5ffd5b5061039560048036038101906103909190615a85565b612cd0565b6040516103a29190615b08565b60405180910390f35b6103c560048036038101906103c09190615b21565b612d42565b005b3480156103d2575f5ffd5b506103db612d61565b6040516103e89190615b93565b60405180910390f35b3480156103fc575f5ffd5b506104176004803603810190610412919061593b565b612d92565b005b348015610424575f5ffd5b5061043f600480360381019061043a9190615bac565b612f06565b60405161044e93929190615c0b565b60405180910390f35b348015610462575f5ffd5b5061047d60048036038101906104789190615c40565b612fdb565b005b34801561048a575f5ffd5b506104a560048036038101906104a09190615c6b565b6131c7565b6040516104b29190615d79565b60405180910390f35b3480156104c6575f5ffd5b506104e160048036038101906104dc9190615c40565b6135a0565b005b3480156104ee575f5ffd5b506104f761378c565b005b348015610504575f5ffd5b5061051f600480360381019061051a9190615c40565b613917565b005b34801561052c575f5ffd5b50610535613b03565b6040516105489796959493929190615ed4565b60405180910390f35b34801561055c575f5ffd5b50610565613c0c565b6040516105729190615975565b60405180910390f35b348015610586575f5ffd5b506105a1600480360381019061059c9190615a2b565b613c31565b005b3480156105ae575f5ffd5b506105b7613ee8565b6040516105c49190615f56565b60405180910390f35b3480156105d8575f5ffd5b506105e1613f21565b6040516105ee9190615f76565b60405180910390f35b610611600480360381019061060c919061593b565b613f27565b005b34801561061e575f5ffd5b5061063960048036038101906106349190615f8f565b614453565b6040516106469190615b08565b60405180910390f35b34801561065a575f5ffd5b506106636144b5565b6040516106709190615f76565b60405180910390f35b348015610684575f5ffd5b5061069f600480360381019061069a9190615fcd565b6144be565b6040516106ac9190615b08565b60405180910390f35b3480156106c0575f5ffd5b506106c9614530565b6040516106d69190615b08565b60405180910390f35b3480156106ea575f5ffd5b5061070560048036038101906107009190615f8f565b614544565b6040516107129190615b08565b60405180910390f35b348015610726575f5ffd5b5061072f6145a6565b60405161073c9190615b93565b60405180910390f35b348015610750575f5ffd5b506107596145b4565b60405161076a959493929190615ff8565b60405180910390f35b5f63150b7a0260e01b905095945050505050565b815f015173ffffffffffffffffffffffffffffffffffffffff163373ffffffffffffffffffffffffffffffffffffffff16146107ef576040517f1dedaec700000000000000000000000000000000000000000000000000000000815260040160405180910390fd5b5f7f216c3fb7db0b5745d232dc355b785f37c9bad801d7a0ff19cef8aa2a5fea7a29835f015184602001518560400151866060015187608001518860a001516040516020016108449796959493929190616049565b6040516020818303038152906040528051906020012090505f61086682614636565b90505f610873828561464f565b9050845f015173ffffffffffffffffffffffffffffffffffffffff168173ffffffffffffffffffffffffffffffffffffffff16146108dd576040517f8baa579f00000000000000000000000000000000000000000000000000000000815260040160405180910390fd5b60075f865f015173ffffffffffffffffffffffffffffffffffffffff1673ffffffffffffffffffffffffffffffffffffffff1681526020019081526020015f205f866080015181526020019081526020015f205f9054906101000a900460ff1615610974576040517fbbf63c3300000000000000000000000000000000000000000000000000000000815260040160405180910390fd5b5f855f015186602001518760400151886060015189608001518a60a001516040516020016109a79695949392919061611b565b60405160208183030381529060405280519060200120905060055f8281526020019081526020015f205f9054906101000a900460ff1615610a14576040517fbbf63c3300000000000000000000000000000000000000000000000000000000815260040160405180910390fd5b600160055f8381526020019081526020015f205f6101000a81548160ff02191690831515021790555085604001518660200151875f015173ffffffffffffffffffffffffffffffffffffffff167f6bcef5d0ffc800f47a6a75172c7911773deaae72c5c9d5dfc7829de81755f4978960800151604051610a949190615f76565b60405180910390a4505050505050565b60015f9054906101000a900473ffffffffffffffffffffffffffffffffffffffff1673ffffffffffffffffffffffffffffffffffffffff163373ffffffffffffffffffffffffffffffffffffffff1614610b2a576040517fc33e396f00000000000000000000000000000000000000000000000000000000815260040160405180910390fd5b60015f9054906101000a900473ffffffffffffffffffffffffffffffffffffffff1673ffffffffffffffffffffffffffffffffffffffff16632bb02d4e6040518163ffffffff1660e01b81526004015f6040518083038186803b158015610b8f575f5ffd5b505afa158015610ba1573d5f5f3e3d5ffd5b505050505f4790505f8103610be2576040517ff499da2000000000000000000000000000000000000000000000000000000000815260040160405180910390fd5b5f60025f9054906101000a900473ffffffffffffffffffffffffffffffffffffffff1673ffffffffffffffffffffffffffffffffffffffff1682604051610c28906161b7565b5f6040518083038185875af1925050503d805f8114610c62576040519150601f19603f3d011682016040523d82523d5f602084013e610c67565b606091505b5050905080610ca2576040517ff499da2000000000000000000000000000000000000000000000000000000000815260040160405180910390fd5b5050565b610cae614679565b5f5f9054906101000a900460ff16610cf2576040517f2d69dcbb00000000000000000000000000000000000000000000000000000000815260040160405180910390fd5b5f73ffffffffffffffffffffffffffffffffffffffff1660045f9054906101000a900473ffffffffffffffffffffffffffffffffffffffff1673ffffffffffffffffffffffffffffffffffffffff1603610d78576040517f449dad0100000000000000000000000000000000000000000000000000000000815260040160405180910390fd5b8160600151341015610db6576040517fcd1c886700000000000000000000000000000000000000000000000000000000815260040160405180910390fd5b428260a001511015610df4576040517fc56873ba00000000000000000000000000000000000000000000000000000000815260040160405180910390fd5b60075f835f015173ffffffffffffffffffffffffffffffffffffffff1673ffffffffffffffffffffffffffffffffffffffff1681526020019081526020015f205f836080015181526020019081526020015f205f9054906101000a900460ff1615610e8b576040517f1fb09b8000000000000000000000000000000000000000000000000000000000815260040160405180910390fd5b5f825f015183602001518460400151856060015186608001518760a00151604051602001610ebe9695949392919061611b565b60405160208183030381529060405280519060200120905060055f8281526020019081526020015f205f9054906101000a900460ff1615610f2b576040517fe3cc793300000000000000000000000000000000000000000000000000000000815260040160405180910390fd5b5f7f216c3fb7db0b5745d232dc355b785f37c9bad801d7a0ff19cef8aa2a5fea7a29845f015185602001518660400151876060015188608001518960a00151604051602001610f809796959493929190616049565b6040516020818303038152906040528051906020012090505f610fa282614636565b90505f610faf828661464f565b9050855f015173ffffffffffffffffffffffffffffffffffffffff168173ffffffffffffffffffffffffffffffffffffffff1614611019576040517f8baa579f00000000000000000000000000000000000000000000000000000000815260040160405180910390fd5b505050505f61102b8360200151611856565b90505f8190505f8173ffffffffffffffffffffffffffffffffffffffff16636352211e86604001516040518263ffffffff1660e01b815260040161106f9190615f76565b602060405180830381865afa15801561108a573d5f5f3e3d5ffd5b505050506040513d601f19601f820116820180604052508101906110ae91906161df565b9050845f015173ffffffffffffffffffffffffffffffffffffffff168173ffffffffffffffffffffffffffffffffffffffff1614611118576040517f1dedaec700000000000000000000000000000000000000000000000000000000815260040160405180910390fd5b8173ffffffffffffffffffffffffffffffffffffffff1663f5744b068660400151306040518363ffffffff1660e01b815260040161115792919061620a565b602060405180830381865afa158015611172573d5f5f3e3d5ffd5b505050506040513d601f19601f82011682018060405250810190611196919061625b565b6111cc576040517f4c3de99a00000000000000000000000000000000000000000000000000000000815260040160405180910390fd5b50600160075f865f015173ffffffffffffffffffffffffffffffffffffffff1673ffffffffffffffffffffffffffffffffffffffff1681526020019081526020015f205f866080015181526020019081526020015f205f6101000a81548160ff0219169083151502179055508073ffffffffffffffffffffffffffffffffffffffff166342842e0e855f01513387604001516040518463ffffffff1660e01b815260040161127c93929190616286565b5f604051808303815f87803b158015611293575f5ffd5b505af11580156112a5573d5f5f3e3d5ffd5b505050505f5f5f5f6112c08689604001518a60600151612f06565b809450819550829650505050818389606001516112dd91906162e8565b6112e791906162e8565b90505f885f015173ffffffffffffffffffffffffffffffffffffffff1682604051611311906161b7565b5f6040518083038185875af1925050503d805f811461134b576040519150601f19603f3d011682016040523d82523d5f602084013e611350565b606091505b505090508061138b576040517ff499da2000000000000000000000000000000000000000000000000000000000815260040160405180910390fd5b505f73ffffffffffffffffffffffffffffffffffffffff168473ffffffffffffffffffffffffffffffffffffffff16141580156113c757505f83115b1561146d575f8473ffffffffffffffffffffffffffffffffffffffff16846040516113f1906161b7565b5f6040518083038185875af1925050503d805f811461142b576040519150601f19603f3d011682016040523d82523d5f602084013e611430565b606091505b505090508061146b576040517ff499da2000000000000000000000000000000000000000000000000000000000815260040160405180910390fd5b505b5f73ffffffffffffffffffffffffffffffffffffffff1660025f9054906101000a900473ffffffffffffffffffffffffffffffffffffffff1673ffffffffffffffffffffffffffffffffffffffff1614611583575f60025f9054906101000a900473ffffffffffffffffffffffffffffffffffffffff1673ffffffffffffffffffffffffffffffffffffffff1683604051611507906161b7565b5f6040518083038185875af1925050503d805f8114611541576040519150601f19603f3d011682016040523d82523d5f602084013e611546565b606091505b5050905080611581576040517ff499da2000000000000000000000000000000000000000000000000000000000815260040160405180910390fd5b505b5f88606001513461159491906162e8565b90505f81111561163f575f3373ffffffffffffffffffffffffffffffffffffffff16826040516115c3906161b7565b5f6040518083038185875af1925050503d805f81146115fd576040519150601f19603f3d011682016040523d82523d5f602084013e611602565b606091505b505090508061163d576040517ff499da2000000000000000000000000000000000000000000000000000000000815260040160405180910390fd5b505b5087602001513373ffffffffffffffffffffffffffffffffffffffff16895f015173ffffffffffffffffffffffffffffffffffffffff167fe43733699fed0470367caaf52a4ba85659d40b2e3cf8b78f4a3b9ae7afa3f7688b604001518c606001516040516116af92919061631b565b60405180910390a45050505050506116c561469b565b5050565b60015f9054906101000a900473ffffffffffffffffffffffffffffffffffffffff1673ffffffffffffffffffffffffffffffffffffffff163373ffffffffffffffffffffffffffffffffffffffff161461174f576040517fc33e396f00000000000000000000000000000000000000000000000000000000815260040160405180910390fd5b60015f9054906101000a900473ffffffffffffffffffffffffffffffffffffffff1673ffffffffffffffffffffffffffffffffffffffff16632bb02d4e6040518163ffffffff1660e01b81526004015f6040518083038186803b1580156117b4575f5ffd5b505afa1580156117c6573d5f5f3e3d5ffd5b505050505f5f9054906101000a900460ff161561180f576040517f02dbf56900000000000000000000000000000000000000000000000000000000815260040160405180910390fd5b60015f5f6101000a81548160ff0219169083151502179055507fd37d25e5d268732346ffae42634410b962676af80e1cb806990e7d088564b59b60405160405180910390a1565b5f60045f9054906101000a900473ffffffffffffffffffffffffffffffffffffffff1673ffffffffffffffffffffffffffffffffffffffff16633ca82d95836040518263ffffffff1660e01b81526004016118b19190615f76565b602060405180830381865afa9250505080156118eb57506040513d601f19601f820116820180604052508101906118e891906161df565b60015b6119df576118f761634e565b806308c379a003611972575061190b61636d565b806119165750611974565b80604051602001611927919061645c565b6040516020818303038152906040526040517f08c379a00000000000000000000000000000000000000000000000000000000081526004016119699190615f56565b60405180910390fd5b505b3d805f811461199e576040519150601f19603f3d011682016040523d82523d5f602084013e6119a3565b606091505b506040517f08c379a00000000000000000000000000000000000000000000000000000000081526004016119d6906164cb565b60405180910390fd5b809150505f73ffffffffffffffffffffffffffffffffffffffff168173ffffffffffffffffffffffffffffffffffffffff1603611a48576040517fdb781b8300000000000000000000000000000000000000000000000000000000815260040160405180910390fd5b919050565b611a55614679565b5f5f9054906101000a900460ff16611a99576040517f2d69dcbb00000000000000000000000000000000000000000000000000000000815260040160405180910390fd5b5f73ffffffffffffffffffffffffffffffffffffffff1660045f9054906101000a900473ffffffffffffffffffffffffffffffffffffffff1673ffffffffffffffffffffffffffffffffffffffff1603611b1f576040517f449dad0100000000000000000000000000000000000000000000000000000000815260040160405180910390fd5b428260a001511015611b5d576040517f9cb1308700000000000000000000000000000000000000000000000000000000815260040160405180910390fd5b60085f835f015173ffffffffffffffffffffffffffffffffffffffff1673ffffffffffffffffffffffffffffffffffffffff1681526020019081526020015f205f836080015181526020019081526020015f205f9054906101000a900460ff1615611bf4576040517f1fb09b8000000000000000000000000000000000000000000000000000000000815260040160405180910390fd5b5f825f015183602001518460400151856060015186608001518760a00151604051602001611c279695949392919061611b565b60405160208183030381529060405280519060200120905060065f8281526020019081526020015f205f9054906101000a900460ff1615611c94576040517f7e974c4f00000000000000000000000000000000000000000000000000000000815260040160405180910390fd5b5f611ca6611ca1856146b5565b614636565b90505f611cb3828561464f565b9050845f015173ffffffffffffffffffffffffffffffffffffffff168173ffffffffffffffffffffffffffffffffffffffff1614611d1d576040517f8baa579f00000000000000000000000000000000000000000000000000000000815260040160405180910390fd5b5050505f825f015190505f836020015190505f846040015190505f856060015190505f866080015190505f8760a0015190505f5f60019054906101000a900473ffffffffffffffffffffffffffffffffffffffff169050838173ffffffffffffffffffffffffffffffffffffffff166370a08231896040518263ffffffff1660e01b8152600401611dae9190615975565b602060405180830381865afa158015611dc9573d5f5f3e3d5ffd5b505050506040513d601f19601f82011682018060405250810190611ded91906164fd565b1015611e25576040517fcd1c886700000000000000000000000000000000000000000000000000000000815260040160405180910390fd5b838173ffffffffffffffffffffffffffffffffffffffff1663dd62ed3e89306040518363ffffffff1660e01b8152600401611e61929190616528565b602060405180830381865afa158015611e7c573d5f5f3e3d5ffd5b505050506040513d601f19601f82011682018060405250810190611ea091906164fd565b1015611ed8576040517fcd1c886700000000000000000000000000000000000000000000000000000000815260040160405180910390fd5b8073ffffffffffffffffffffffffffffffffffffffff166323b872dd8830876040518463ffffffff1660e01b8152600401611f1593929190616286565b6020604051808303815f875af1158015611f31573d5f5f3e3d5ffd5b505050506040513d601f19601f82011682018060405250810190611f55919061625b565b611f8b576040517ff499da2000000000000000000000000000000000000000000000000000000000815260040160405180910390fd5b505f611f9686611856565b90505f8190505f3390505f8273ffffffffffffffffffffffffffffffffffffffff16636352211e896040518263ffffffff1660e01b8152600401611fda9190615f76565b602060405180830381865afa158015611ff5573d5f5f3e3d5ffd5b505050506040513d601f19601f8201168201806040525081019061201991906161df565b90508173ffffffffffffffffffffffffffffffffffffffff168173ffffffffffffffffffffffffffffffffffffffff1614612080576040517f1dedaec700000000000000000000000000000000000000000000000000000000815260040160405180910390fd5b505f5f5f5f8673ffffffffffffffffffffffffffffffffffffffff16632a55205a8c8c6040518363ffffffff1660e01b81526004016120c092919061631b565b6040805180830381865afa1580156120da573d5f5f3e3d5ffd5b505050506040513d601f19601f820116820180604052508101906120fe919061654f565b80945081955050505f6127106103e88c612118919061658d565b61212291906165fb565b905080841115612130578093505b6127106003548c612141919061658d565b61214b91906165fb565b925082848c61215a91906162e8565b61216491906162e8565b915050600160085f8f73ffffffffffffffffffffffffffffffffffffffff1673ffffffffffffffffffffffffffffffffffffffff1681526020019081526020015f205f8b81526020019081526020015f205f6101000a81548160ff0219169083151502179055508573ffffffffffffffffffffffffffffffffffffffff166342842e0e868f8e6040518463ffffffff1660e01b815260040161220893929190616286565b5f604051808303815f87803b15801561221f575f5ffd5b505af1158015612231573d5f5f3e3d5ffd5b505050505f5f60019054906101000a900473ffffffffffffffffffffffffffffffffffffffff1690505f821180156122e157508073ffffffffffffffffffffffffffffffffffffffff1663a9059cbb87846040518363ffffffff1660e01b815260040161229f92919061662b565b6020604051808303815f875af11580156122bb573d5f5f3e3d5ffd5b505050506040513d601f19601f820116820180604052508101906122df919061625b565b155b15612318576040517ff499da2000000000000000000000000000000000000000000000000000000000815260040160405180910390fd5b5f73ffffffffffffffffffffffffffffffffffffffff168573ffffffffffffffffffffffffffffffffffffffff161415801561235357505f84115b80156123d757508073ffffffffffffffffffffffffffffffffffffffff1663a9059cbb86866040518363ffffffff1660e01b815260040161239592919061662b565b6020604051808303815f875af11580156123b1573d5f5f3e3d5ffd5b505050506040513d601f19601f820116820180604052508101906123d5919061625b565b155b1561240e576040517ff499da2000000000000000000000000000000000000000000000000000000000815260040160405180910390fd5b5f73ffffffffffffffffffffffffffffffffffffffff1660025f9054906101000a900473ffffffffffffffffffffffffffffffffffffffff1673ffffffffffffffffffffffffffffffffffffffff161415801561246a57505f83115b801561250f57508073ffffffffffffffffffffffffffffffffffffffff1663a9059cbb60025f9054906101000a900473ffffffffffffffffffffffffffffffffffffffff16856040518363ffffffff1660e01b81526004016124cd92919061662b565b6020604051808303815f875af11580156124e9573d5f5f3e3d5ffd5b505050506040513d601f19601f8201168201806040525081019061250d919061625b565b155b15612546576040517ff499da2000000000000000000000000000000000000000000000000000000000815260040160405180910390fd5b898e73ffffffffffffffffffffffffffffffffffffffff167fbedff84a67e3a24a414edb9a659104e5e60dacad9037ecffc0b68de3af33cd4c60405160405180910390a38c8673ffffffffffffffffffffffffffffffffffffffff168f73ffffffffffffffffffffffffffffffffffffffff167f01e6ae62c60d3c7c07eae58ac7459f3844475690dbbba0f71a6d075ac844b1e58f8f8f8f6040516125ee9493929190616652565b60405180910390a4505050505050505050505050505061260c61469b565b5050565b5f5f9054906101000a900460ff16612654576040517f2d69dcbb00000000000000000000000000000000000000000000000000000000815260040160405180910390fd5b5f73ffffffffffffffffffffffffffffffffffffffff1660045f9054906101000a900473ffffffffffffffffffffffffffffffffffffffff1673ffffffffffffffffffffffffffffffffffffffff16036126da576040517f449dad0100000000000000000000000000000000000000000000000000000000815260040160405180910390fd5b6103e88160600151101561271a576040517f99b5cb1d00000000000000000000000000000000000000000000000000000000815260040160405180910390fd5b428160a0015111612757576040517fc56873ba00000000000000000000000000000000000000000000000000000000815260040160405180910390fd5b3373ffffffffffffffffffffffffffffffffffffffff16815f015173ffffffffffffffffffffffffffffffffffffffff16146127bf576040517f1dedaec700000000000000000000000000000000000000000000000000000000815260040160405180910390fd5b5f6127cd8260200151611856565b90505f8190505f8173ffffffffffffffffffffffffffffffffffffffff16636352211e85604001516040518263ffffffff1660e01b81526004016128119190615f76565b602060405180830381865afa15801561282c573d5f5f3e3d5ffd5b505050506040513d601f19601f8201168201806040525081019061285091906161df565b90503373ffffffffffffffffffffffffffffffffffffffff168173ffffffffffffffffffffffffffffffffffffffff16146128b7576040517f1dedaec700000000000000000000000000000000000000000000000000000000815260040160405180910390fd5b8173ffffffffffffffffffffffffffffffffffffffff1663f5744b068560400151306040518363ffffffff1660e01b81526004016128f692919061620a565b602060405180830381865afa158015612911573d5f5f3e3d5ffd5b505050506040513d601f19601f82011682018060405250810190612935919061625b565b61296b576040517f4c3de99a00000000000000000000000000000000000000000000000000000000815260040160405180910390fd5b50505050565b5f60025f9054906101000a900473ffffffffffffffffffffffffffffffffffffffff16905090565b5f6129a2614727565b90505f815f0160089054906101000a900460ff161590505f825f015f9054906101000a900467ffffffffffffffff1690505f5f8267ffffffffffffffff161480156129ea5750825b90505f60018367ffffffffffffffff16148015612a1d57505f3073ffffffffffffffffffffffffffffffffffffffff163b145b905081158015612a2b575080155b15612a62576040517ff92ee8a900000000000000000000000000000000000000000000000000000000815260040160405180910390fd5b6001855f015f6101000a81548167ffffffffffffffff021916908367ffffffffffffffff1602179055508315612aaf576001855f0160086101000a81548160ff0219169083151502179055505b612b236040518060400160405280600e81526020017f4d61726b6574706c6163654e46540000000000000000000000000000000000008152506040518060400160405280600181526020017f310000000000000000000000000000000000000000000000000000000000000081525061473a565b5f73ffffffffffffffffffffffffffffffffffffffff168773ffffffffffffffffffffffffffffffffffffffff1603612b88576040517fd92e233d00000000000000000000000000000000000000000000000000000000815260040160405180910390fd5b5f73ffffffffffffffffffffffffffffffffffffffff168673ffffffffffffffffffffffffffffffffffffffff1603612bed576040517fd92e233d00000000000000000000000000000000000000000000000000000000815260040160405180910390fd5b8660015f6101000a81548173ffffffffffffffffffffffffffffffffffffffff021916908373ffffffffffffffffffffffffffffffffffffffff160217905550855f60016101000a81548173ffffffffffffffffffffffffffffffffffffffff021916908373ffffffffffffffffffffffffffffffffffffffff1602179055508315612cc7575f855f0160086101000a81548160ff0219169083151502179055507fc7f505b2f371ae2175ee4913f4499e1f2633a7b5936321eed1cdaeb6115181d26001604051612cbe91906166ea565b60405180910390a15b50505050505050565b5f5f825f015183602001518460400151856060015186608001518760a00151604051602001612d049695949392919061611b565b60405160208183030381529060405280519060200120905060055f8281526020019081526020015f205f9054906101000a900460ff16915050919050565b612d4a614750565b612d5382614836565b612d5d828261493a565b5050565b5f612d6a614a58565b7f360894a13ba1a3210667c828492db98dca3e2076cc3735a920a3ca505d382bbc5f1b905090565b60015f9054906101000a900473ffffffffffffffffffffffffffffffffffffffff1673ffffffffffffffffffffffffffffffffffffffff163373ffffffffffffffffffffffffffffffffffffffff1614612e18576040517fc33e396f00000000000000000000000000000000000000000000000000000000815260040160405180910390fd5b60015f9054906101000a900473ffffffffffffffffffffffffffffffffffffffff1673ffffffffffffffffffffffffffffffffffffffff16632bb02d4e6040518163ffffffff1660e01b81526004015f6040518083038186803b158015612e7d575f5ffd5b505afa158015612e8f573d5f5f3e3d5ffd5b505050506101f4811115612ecf576040517fafdf51b800000000000000000000000000000000000000000000000000000000815260040160405180910390fd5b80600381905550807f53a2a3a87f22aa2e0585363a4f0f4389ede884187545ec87e6cbbd66e98499ee60405160405180910390a250565b5f5f5f8573ffffffffffffffffffffffffffffffffffffffff16632a55205a86866040518363ffffffff1660e01b8152600401612f4492919061631b565b6040805180830381865afa158015612f5e573d5f5f3e3d5ffd5b505050506040513d601f19601f82011682018060405250810190612f82919061654f565b80935081945050505f6127106103e886612f9c919061658d565b612fa691906165fb565b905080831115612fb4578092505b61271060035486612fc5919061658d565b612fcf91906165fb565b91505093509350939050565b60015f9054906101000a900473ffffffffffffffffffffffffffffffffffffffff1673ffffffffffffffffffffffffffffffffffffffff163373ffffffffffffffffffffffffffffffffffffffff1614613061576040517fc33e396f00000000000000000000000000000000000000000000000000000000815260040160405180910390fd5b60015f9054906101000a900473ffffffffffffffffffffffffffffffffffffffff1673ffffffffffffffffffffffffffffffffffffffff16632bb02d4e6040518163ffffffff1660e01b81526004015f6040518083038186803b1580156130c6575f5ffd5b505afa1580156130d8573d5f5f3e3d5ffd5b505050505f73ffffffffffffffffffffffffffffffffffffffff168173ffffffffffffffffffffffffffffffffffffffff1603613141576040517fd92e233d00000000000000000000000000000000000000000000000000000000815260040160405180910390fd5b8060015f6101000a81548173ffffffffffffffffffffffffffffffffffffffff021916908373ffffffffffffffffffffffffffffffffffffffff1602179055508073ffffffffffffffffffffffffffffffffffffffff167fecde0373f2b001afaaea70a27b1af7076d9a65e2fb8f0fb376df15c480dab27160405160405180910390a250565b6131cf6154ec565b5f5f9054906101000a900460ff16613213576040517f2d69dcbb00000000000000000000000000000000000000000000000000000000815260040160405180910390fd5b5f73ffffffffffffffffffffffffffffffffffffffff1660045f9054906101000a900473ffffffffffffffffffffffffffffffffffffffff1673ffffffffffffffffffffffffffffffffffffffff1603613299576040517f449dad0100000000000000000000000000000000000000000000000000000000815260040160405180910390fd5b6103e88410156132d5576040517f99b5cb1d00000000000000000000000000000000000000000000000000000000815260040160405180910390fd5b5f6132df87611856565b90505f8190505f8173ffffffffffffffffffffffffffffffffffffffff16636352211e896040518263ffffffff1660e01b815260040161331f9190615f76565b602060405180830381865afa15801561333a573d5f5f3e3d5ffd5b505050506040513d601f19601f8201168201806040525081019061335e91906161df565b90503373ffffffffffffffffffffffffffffffffffffffff168173ffffffffffffffffffffffffffffffffffffffff16036133c5576040517ffbb7205300000000000000000000000000000000000000000000000000000000815260040160405180910390fd5b5f5f60019054906101000a900473ffffffffffffffffffffffffffffffffffffffff169050878173ffffffffffffffffffffffffffffffffffffffff166370a08231336040518263ffffffff1660e01b81526004016134249190615975565b602060405180830381865afa15801561343f573d5f5f3e3d5ffd5b505050506040513d601f19601f8201168201806040525081019061346391906164fd565b101561349b576040517fcd1c886700000000000000000000000000000000000000000000000000000000815260040160405180910390fd5b878173ffffffffffffffffffffffffffffffffffffffff1663dd62ed3e33306040518363ffffffff1660e01b81526004016134d7929190616528565b602060405180830381865afa1580156134f2573d5f5f3e3d5ffd5b505050506040513d601f19601f8201168201806040525081019061351691906164fd565b101561354e576040517fcd1c886700000000000000000000000000000000000000000000000000000000815260040160405180910390fd5b6040518060c001604052803373ffffffffffffffffffffffffffffffffffffffff1681526020018b81526020018a81526020018981526020018881526020018781525094505050505095945050505050565b60015f9054906101000a900473ffffffffffffffffffffffffffffffffffffffff1673ffffffffffffffffffffffffffffffffffffffff163373ffffffffffffffffffffffffffffffffffffffff1614613626576040517fc33e396f00000000000000000000000000000000000000000000000000000000815260040160405180910390fd5b60015f9054906101000a900473ffffffffffffffffffffffffffffffffffffffff1673ffffffffffffffffffffffffffffffffffffffff16632bb02d4e6040518163ffffffff1660e01b81526004015f6040518083038186803b15801561368b575f5ffd5b505afa15801561369d573d5f5f3e3d5ffd5b505050505f73ffffffffffffffffffffffffffffffffffffffff168173ffffffffffffffffffffffffffffffffffffffff1603613706576040517fd92e233d00000000000000000000000000000000000000000000000000000000815260040160405180910390fd5b8060025f6101000a81548173ffffffffffffffffffffffffffffffffffffffff021916908373ffffffffffffffffffffffffffffffffffffffff1602179055508073ffffffffffffffffffffffffffffffffffffffff167f8c3492a5b25cf7f8ad925e9612f5f0623b2dfd96910660eb15c07c8fc16d461660405160405180910390a250565b60015f9054906101000a900473ffffffffffffffffffffffffffffffffffffffff1673ffffffffffffffffffffffffffffffffffffffff163373ffffffffffffffffffffffffffffffffffffffff1614613812576040517fc33e396f00000000000000000000000000000000000000000000000000000000815260040160405180910390fd5b60015f9054906101000a900473ffffffffffffffffffffffffffffffffffffffff1673ffffffffffffffffffffffffffffffffffffffff16632bb02d4e6040518163ffffffff1660e01b81526004015f6040518083038186803b158015613877575f5ffd5b505afa158015613889573d5f5f3e3d5ffd5b505050505f5f9054906101000a900460ff166138d1576040517f9872f0fa00000000000000000000000000000000000000000000000000000000815260040160405180910390fd5b5f5f5f6101000a81548160ff0219169083151502179055507fc149753b6a41eb4d1af8a00bbf081e9a81f5c7172d8fe00a2f89351a29a46cfa60405160405180910390a1565b60015f9054906101000a900473ffffffffffffffffffffffffffffffffffffffff1673ffffffffffffffffffffffffffffffffffffffff163373ffffffffffffffffffffffffffffffffffffffff161461399d576040517fc33e396f00000000000000000000000000000000000000000000000000000000815260040160405180910390fd5b60015f9054906101000a900473ffffffffffffffffffffffffffffffffffffffff1673ffffffffffffffffffffffffffffffffffffffff16632bb02d4e6040518163ffffffff1660e01b81526004015f6040518083038186803b158015613a02575f5ffd5b505afa158015613a14573d5f5f3e3d5ffd5b505050505f73ffffffffffffffffffffffffffffffffffffffff168173ffffffffffffffffffffffffffffffffffffffff1603613a7d576040517fd92e233d00000000000000000000000000000000000000000000000000000000815260040160405180910390fd5b8060045f6101000a81548173ffffffffffffffffffffffffffffffffffffffff021916908373ffffffffffffffffffffffffffffffffffffffff1602179055508073ffffffffffffffffffffffffffffffffffffffff167fc4ef348f8e4e2576aca53cd875c06757dcf06c4605b25963f09df341d9e8c68960405160405180910390a250565b5f6060805f5f5f60605f613b15614adf565b90505f5f1b815f0154148015613b3057505f5f1b8160010154145b613b6f576040517f08c379a0000000000000000000000000000000000000000000000000000000008152600401613b669061674d565b60405180910390fd5b613b77614b06565b613b7f614ba4565b46305f5f1b5f67ffffffffffffffff811115613b9e57613b9d61571c565b5b604051908082528060200260200182016040528015613bcc5781602001602082028036833780820191505090505b507f0f0000000000000000000000000000000000000000000000000000000000000095949392919097509750975097509750975097505090919293949596565b5f60019054906101000a900473ffffffffffffffffffffffffffffffffffffffff1681565b815f015173ffffffffffffffffffffffffffffffffffffffff163373ffffffffffffffffffffffffffffffffffffffff1614613c99576040517f1dedaec700000000000000000000000000000000000000000000000000000000815260040160405180910390fd5b5f613cab613ca6846146b5565b614636565b90505f613cb8828461464f565b9050835f015173ffffffffffffffffffffffffffffffffffffffff168173ffffffffffffffffffffffffffffffffffffffff1614613d22576040517f8baa579f00000000000000000000000000000000000000000000000000000000815260040160405180910390fd5b60085f855f015173ffffffffffffffffffffffffffffffffffffffff1673ffffffffffffffffffffffffffffffffffffffff1681526020019081526020015f205f856080015181526020019081526020015f205f9054906101000a900460ff1615613db9576040517f6d2ba3e100000000000000000000000000000000000000000000000000000000815260040160405180910390fd5b5f845f015185602001518660400151876060015188608001518960a00151604051602001613dec9695949392919061611b565b60405160208183030381529060405280519060200120905060065f8281526020019081526020015f205f9054906101000a900460ff1615613e59576040517f6d2ba3e100000000000000000000000000000000000000000000000000000000815260040160405180910390fd5b600160065f8381526020019081526020015f205f6101000a81548160ff02191690831515021790555084604001518560200151865f015173ffffffffffffffffffffffffffffffffffffffff167f46bdaab5c90ae1382f28815108a8066db8db85c2c7d01c6946498dab63691f438860800151604051613ed99190615f76565b60405180910390a45050505050565b6040518060400160405280600581526020017f352e302e3000000000000000000000000000000000000000000000000000000081525081565b6103e881565b5f5f9054906101000a900460ff16613f6b576040517f2d69dcbb00000000000000000000000000000000000000000000000000000000815260040160405180910390fd5b5f73ffffffffffffffffffffffffffffffffffffffff1660045f9054906101000a900473ffffffffffffffffffffffffffffffffffffffff1673ffffffffffffffffffffffffffffffffffffffff1603613ff1576040517f449dad0100000000000000000000000000000000000000000000000000000000815260040160405180910390fd5b5f613ffb82611856565b90505f8190505f8173ffffffffffffffffffffffffffffffffffffffff1663da0239a66040518163ffffffff1660e01b8152600401602060405180830381865afa15801561404b573d5f5f3e3d5ffd5b505050506040513d601f19601f8201168201806040525081019061406f91906164fd565b036140a6576040517f07dd795200000000000000000000000000000000000000000000000000000000815260040160405180910390fd5b5f8173ffffffffffffffffffffffffffffffffffffffff16636817c76c6040518163ffffffff1660e01b8152600401602060405180830381865afa1580156140f0573d5f5f3e3d5ffd5b505050506040513d601f19601f8201168201806040525081019061411491906164fd565b905080341015614150576040517fcd1c886700000000000000000000000000000000000000000000000000000000815260040160405180910390fd5b5f8273ffffffffffffffffffffffffffffffffffffffff16636c9c2faf6040518163ffffffff1660e01b8152600401602060405180830381865afa15801561419a573d5f5f3e3d5ffd5b505050506040513d601f19601f820116820180604052508101906141be91906164fd565b90508273ffffffffffffffffffffffffffffffffffffffff16631249c58b836040518263ffffffff1660e01b81526004015f604051808303818588803b158015614206575f5ffd5b505af1158015614218573d5f5f3e3d5ffd5b50505050505f8373ffffffffffffffffffffffffffffffffffffffff16636c9c2faf6040518163ffffffff1660e01b8152600401602060405180830381865afa158015614267573d5f5f3e3d5ffd5b505050506040513d601f19601f8201168201806040525081019061428b91906164fd565b905060018261429a919061676b565b81146142d2576040517f07637bd800000000000000000000000000000000000000000000000000000000815260040160405180910390fd5b5f8190508473ffffffffffffffffffffffffffffffffffffffff166342842e0e3033846040518463ffffffff1660e01b815260040161431393929190616286565b5f604051808303815f87803b15801561432a575f5ffd5b505af115801561433c573d5f5f3e3d5ffd5b505050505f843461434d91906162e8565b90505f8111156143f8575f3373ffffffffffffffffffffffffffffffffffffffff168260405161437c906161b7565b5f6040518083038185875af1925050503d805f81146143b6576040519150601f19603f3d011682016040523d82523d5f602084013e6143bb565b606091505b50509050806143f6576040517ff499da2000000000000000000000000000000000000000000000000000000000815260040160405180910390fd5b505b813373ffffffffffffffffffffffffffffffffffffffff167fb974e1f455b33457cef43864fae1ead6c56b5e5a316015d3f8a763223d67e1178a8860405161444192919061631b565b60405180910390a35050505050505050565b5f60075f8473ffffffffffffffffffffffffffffffffffffffff1673ffffffffffffffffffffffffffffffffffffffff1681526020019081526020015f205f8381526020019081526020015f205f9054906101000a900460ff16905092915050565b5f600354905090565b5f5f825f015183602001518460400151856060015186608001518760a001516040516020016144f29695949392919061611b565b60405160208183030381529060405280519060200120905060065f8281526020019081526020015f205f9054906101000a900460ff16915050919050565b5f5f5f9054906101000a900460ff16905090565b5f60085f8473ffffffffffffffffffffffffffffffffffffffff1673ffffffffffffffffffffffffffffffffffffffff1681526020019081526020015f205f8381526020019081526020015f205f9054906101000a900460ff16905092915050565b5f6145af614c42565b905090565b5f5f5f5f5f6103e860035460025f9054906101000a900473ffffffffffffffffffffffffffffffffffffffff165f60019054906101000a900473ffffffffffffffffffffffffffffffffffffffff1660045f9054906101000a900473ffffffffffffffffffffffffffffffffffffffff16945094509450945094509091929394565b5f614648614642614c42565b83614c50565b9050919050565b5f5f5f5f61465d8686614c90565b92509250925061466d8282614ce5565b82935050505092915050565b614681614e47565b600261469361468e614e88565b614eb1565b5f0181905550565b60016146ad6146a8614e88565b614eb1565b5f0181905550565b5f7fc625507ba024c19bf414dd59100300104e1da860fffc5367c21a342ff89cae21825f015183602001518460400151856060015186608001518760a0015160405160200161470a9796959493929190616049565b604051602081830303815290604052805190602001209050919050565b5f5f614731614eba565b90508091505090565b614742614ee3565b61474c8282614f23565b5050565b7f000000000000000000000000000000000000000000000000000000000000000073ffffffffffffffffffffffffffffffffffffffff163073ffffffffffffffffffffffffffffffffffffffff1614806147fd57507f000000000000000000000000000000000000000000000000000000000000000073ffffffffffffffffffffffffffffffffffffffff166147e4614f74565b73ffffffffffffffffffffffffffffffffffffffff1614155b15614834576040517fe07c8dba00000000000000000000000000000000000000000000000000000000815260040160405180910390fd5b565b60015f9054906101000a900473ffffffffffffffffffffffffffffffffffffffff1673ffffffffffffffffffffffffffffffffffffffff163373ffffffffffffffffffffffffffffffffffffffff16146148bc576040517fc33e396f00000000000000000000000000000000000000000000000000000000815260040160405180910390fd5b60015f9054906101000a900473ffffffffffffffffffffffffffffffffffffffff1673ffffffffffffffffffffffffffffffffffffffff16632bb02d4e6040518163ffffffff1660e01b81526004015f6040518083038186803b158015614921575f5ffd5b505afa158015614933573d5f5f3e3d5ffd5b5050505050565b8173ffffffffffffffffffffffffffffffffffffffff166352d1902d6040518163ffffffff1660e01b8152600401602060405180830381865afa9250505080156149a257506040513d601f19601f8201168201806040525081019061499f91906167c8565b60015b6149e357816040517f4c9c8ce30000000000000000000000000000000000000000000000000000000081526004016149da9190615975565b60405180910390fd5b7f360894a13ba1a3210667c828492db98dca3e2076cc3735a920a3ca505d382bbc5f1b8114614a4957806040517faa1d49a4000000000000000000000000000000000000000000000000000000008152600401614a409190615b93565b60405180910390fd5b614a538383614fc7565b505050565b7f000000000000000000000000000000000000000000000000000000000000000073ffffffffffffffffffffffffffffffffffffffff163073ffffffffffffffffffffffffffffffffffffffff1614614add576040517fe07c8dba00000000000000000000000000000000000000000000000000000000815260040160405180910390fd5b565b5f7fa16a46d94261c7517cc8ff89f61c0ce93598e3c849801011dee649a6a557d100905090565b60605f614b11614adf565b9050806002018054614b2290616820565b80601f0160208091040260200160405190810160405280929190818152602001828054614b4e90616820565b8015614b995780601f10614b7057610100808354040283529160200191614b99565b820191905f5260205f20905b815481529060010190602001808311614b7c57829003601f168201915b505050505091505090565b60605f614baf614adf565b9050806003018054614bc090616820565b80601f0160208091040260200160405190810160405280929190818152602001828054614bec90616820565b8015614c375780601f10614c0e57610100808354040283529160200191614c37565b820191905f5260205f20905b815481529060010190602001808311614c1a57829003601f168201915b505050505091505090565b5f614c4b615039565b905090565b5f6040517f190100000000000000000000000000000000000000000000000000000000000081528360028201528260228201526042812091505092915050565b5f5f5f6041845103614cd0575f5f5f602087015192506040870151915060608701515f1a9050614cc28882858561509c565b955095509550505050614cde565b5f600285515f1b9250925092505b9250925092565b5f6003811115614cf857614cf7616850565b5b826003811115614d0b57614d0a616850565b5b0315614e435760016003811115614d2557614d24616850565b5b826003811115614d3857614d37616850565b5b03614d6f576040517ff645eedf00000000000000000000000000000000000000000000000000000000815260040160405180910390fd5b60026003811115614d8357614d82616850565b5b826003811115614d9657614d95616850565b5b03614dda57805f1c6040517ffce698f7000000000000000000000000000000000000000000000000000000008152600401614dd19190615f76565b60405180910390fd5b600380811115614ded57614dec616850565b5b826003811115614e0057614dff616850565b5b03614e4257806040517fd78bce0c000000000000000000000000000000000000000000000000000000008152600401614e399190615b93565b60405180910390fd5b5b5050565b614e4f615183565b15614e86576040517f3ee5aeb500000000000000000000000000000000000000000000000000000000815260040160405180910390fd5b565b5f7f9b779b17422d0df92223018b32b4d1fa46e071723d6817e2486d003becc55f005f1b905090565b5f819050919050565b5f7ff0c57e16840df040f15088dc2f81fe391c3923bec73e23a9662efc9c229c6a005f1b905090565b614eeb61519f565b614f21576040517fd7e6bcf800000000000000000000000000000000000000000000000000000000815260040160405180910390fd5b565b614f2b614ee3565b5f614f34614adf565b905082816002019081614f479190616a14565b5081816003019081614f599190616a14565b505f5f1b815f01819055505f5f1b8160010181905550505050565b5f614fa07f360894a13ba1a3210667c828492db98dca3e2076cc3735a920a3ca505d382bbc5f1b6151bd565b5f015f9054906101000a900473ffffffffffffffffffffffffffffffffffffffff16905090565b614fd0826151c6565b8173ffffffffffffffffffffffffffffffffffffffff167fbc7cd75a20ee27fd9adebab32041f755214dbc6bffa90cc0225b39da2e5c2d3b60405160405180910390a25f8151111561502c57615026828261528f565b50615035565b615034615380565b5b5050565b5f7f8b73c3c69bb8fe3d512ecc4cf759cc79239f7b179b0ffacaa9a75d522b39400f6150636153bc565b61506b615432565b4630604051602001615081959493929190616ae3565b60405160208183030381529060405280519060200120905090565b5f5f5f7f7fffffffffffffffffffffffffffffff5d576e7357a4501ddfe92f46681b20a0845f1c11156150d8575f600385925092509250615179565b5f6001888888886040515f81526020016040526040516150fb9493929190616b4f565b6020604051602081039080840390855afa15801561511b573d5f5f3e3d5ffd5b5050506020604051035190505f73ffffffffffffffffffffffffffffffffffffffff168173ffffffffffffffffffffffffffffffffffffffff160361516c575f60015f5f1b93509350935050615179565b805f5f5f1b935093509350505b9450945094915050565b5f6002615196615191614e88565b614eb1565b5f015414905090565b5f6151a8614727565b5f0160089054906101000a900460ff16905090565b5f819050919050565b5f8173ffffffffffffffffffffffffffffffffffffffff163b0361522157806040517f4c9c8ce30000000000000000000000000000000000000000000000000000000081526004016152189190615975565b60405180910390fd5b8061524d7f360894a13ba1a3210667c828492db98dca3e2076cc3735a920a3ca505d382bbc5f1b6151bd565b5f015f6101000a81548173ffffffffffffffffffffffffffffffffffffffff021916908373ffffffffffffffffffffffffffffffffffffffff16021790555050565b60605f61529c84846154a9565b90508080156152d257505f6152af6154bd565b11806152d157505f8473ffffffffffffffffffffffffffffffffffffffff163b115b5b156152e7576152df6154c4565b91505061537a565b801561532a57836040517f9996b3150000000000000000000000000000000000000000000000000000000081526004016153219190615975565b60405180910390fd5b5f6153336154bd565b1115615346576153416154e1565b615378565b6040517fd6bda27500000000000000000000000000000000000000000000000000000000815260040160405180910390fd5b505b92915050565b5f3411156153ba576040517fb398979f00000000000000000000000000000000000000000000000000000000815260040160405180910390fd5b565b5f5f6153c6614adf565b90505f6153d1614b06565b90505f815111156153ed5780805190602001209250505061542f565b5f825f015490505f5f1b81146154085780935050505061542f565b7fc5d2460186f7233c927e7db2dcc703c0e500b653ca82273b7bfad8045d85a47093505050505b90565b5f5f61543c614adf565b90505f615447614ba4565b90505f81511115615463578080519060200120925050506154a6565b5f826001015490505f5f1b811461547f578093505050506154a6565b7fc5d2460186f7233c927e7db2dcc703c0e500b653ca82273b7bfad8045d85a47093505050505b90565b5f5f5f835160208501865af4905092915050565b5f3d905090565b606060405190503d81523d5f602083013e3d602001810160405290565b6040513d5f823e3d81fd5b6040518060c001604052805f73ffffffffffffffffffffffffffffffffffffffff1681526020015f81526020015f81526020015f81526020015f81526020015f81525090565b5f604051905090565b5f5ffd5b5f5ffd5b5f73ffffffffffffffffffffffffffffffffffffffff82169050919050565b5f61556c82615543565b9050919050565b61557c81615562565b8114615586575f5ffd5b50565b5f8135905061559781615573565b92915050565b5f819050919050565b6155af8161559d565b81146155b9575f5ffd5b50565b5f813590506155ca816155a6565b92915050565b5f5ffd5b5f5ffd5b5f5ffd5b5f5f83601f8401126155f1576155f06155d0565b5b8235905067ffffffffffffffff81111561560e5761560d6155d4565b5b60208301915083600182028301111561562a576156296155d8565b5b9250929050565b5f5f5f5f5f6080868803121561564a5761564961553b565b5b5f61565788828901615589565b955050602061566888828901615589565b9450506040615679888289016155bc565b935050606086013567ffffffffffffffff81111561569a5761569961553f565b5b6156a6888289016155dc565b92509250509295509295909350565b5f7fffffffff0000000000000000000000000000000000000000000000000000000082169050919050565b6156e9816156b5565b82525050565b5f6020820190506157025f8301846156e0565b92915050565b5f5ffd5b5f601f19601f8301169050919050565b7f4e487b71000000000000000000000000000000000000000000000000000000005f52604160045260245ffd5b6157528261570c565b810181811067ffffffffffffffff821117156157715761577061571c565b5b80604052505050565b5f615783615532565b905061578f8282615749565b919050565b5f60c082840312156157a9576157a8615708565b5b6157b360c061577a565b90505f6157c284828501615589565b5f8301525060206157d5848285016155bc565b60208301525060406157e9848285016155bc565b60408301525060606157fd848285016155bc565b6060830152506080615811848285016155bc565b60808301525060a0615825848285016155bc565b60a08301525092915050565b5f5ffd5b5f67ffffffffffffffff82111561584f5761584e61571c565b5b6158588261570c565b9050602081019050919050565b828183375f83830152505050565b5f61588561588084615835565b61577a565b9050828152602081018484840111156158a1576158a0615831565b5b6158ac848285615865565b509392505050565b5f82601f8301126158c8576158c76155d0565b5b81356158d8848260208601615873565b91505092915050565b5f5f60e083850312156158f7576158f661553b565b5b5f61590485828601615794565b92505060c083013567ffffffffffffffff8111156159255761592461553f565b5b615931858286016158b4565b9150509250929050565b5f602082840312156159505761594f61553b565b5b5f61595d848285016155bc565b91505092915050565b61596f81615562565b82525050565b5f6020820190506159885f830184615966565b92915050565b5f60c082840312156159a3576159a2615708565b5b6159ad60c061577a565b90505f6159bc84828501615589565b5f8301525060206159cf848285016155bc565b60208301525060406159e3848285016155bc565b60408301525060606159f7848285016155bc565b6060830152506080615a0b848285016155bc565b60808301525060a0615a1f848285016155bc565b60a08301525092915050565b5f5f60e08385031215615a4157615a4061553b565b5b5f615a4e8582860161598e565b92505060c083013567ffffffffffffffff811115615a6f57615a6e61553f565b5b615a7b858286016158b4565b9150509250929050565b5f60c08284031215615a9a57615a9961553b565b5b5f615aa784828501615794565b91505092915050565b5f5f60408385031215615ac657615ac561553b565b5b5f615ad385828601615589565b9250506020615ae485828601615589565b9150509250929050565b5f8115159050919050565b615b0281615aee565b82525050565b5f602082019050615b1b5f830184615af9565b92915050565b5f5f60408385031215615b3757615b3661553b565b5b5f615b4485828601615589565b925050602083013567ffffffffffffffff811115615b6557615b6461553f565b5b615b71858286016158b4565b9150509250929050565b5f819050919050565b615b8d81615b7b565b82525050565b5f602082019050615ba65f830184615b84565b92915050565b5f5f5f60608486031215615bc357615bc261553b565b5b5f615bd086828701615589565b9350506020615be1868287016155bc565b9250506040615bf2868287016155bc565b9150509250925092565b615c058161559d565b82525050565b5f606082019050615c1e5f830186615966565b615c2b6020830185615bfc565b615c386040830184615bfc565b949350505050565b5f60208284031215615c5557615c5461553b565b5b5f615c6284828501615589565b91505092915050565b5f5f5f5f5f60a08688031215615c8457615c8361553b565b5b5f615c91888289016155bc565b9550506020615ca2888289016155bc565b9450506040615cb3888289016155bc565b9350506060615cc4888289016155bc565b9250506080615cd5888289016155bc565b9150509295509295909350565b615ceb81615562565b82525050565b615cfa8161559d565b82525050565b60c082015f820151615d145f850182615ce2565b506020820151615d276020850182615cf1565b506040820151615d3a6040850182615cf1565b506060820151615d4d6060850182615cf1565b506080820151615d606080850182615cf1565b5060a0820151615d7360a0850182615cf1565b50505050565b5f60c082019050615d8c5f830184615d00565b92915050565b5f7fff0000000000000000000000000000000000000000000000000000000000000082169050919050565b615dc681615d92565b82525050565b5f81519050919050565b5f82825260208201905092915050565b8281835e5f83830152505050565b5f615dfe82615dcc565b615e088185615dd6565b9350615e18818560208601615de6565b615e218161570c565b840191505092915050565b5f81519050919050565b5f82825260208201905092915050565b5f819050602082019050919050565b5f615e608383615cf1565b60208301905092915050565b5f602082019050919050565b5f615e8282615e2c565b615e8c8185615e36565b9350615e9783615e46565b805f5b83811015615ec7578151615eae8882615e55565b9750615eb983615e6c565b925050600181019050615e9a565b5085935050505092915050565b5f60e082019050615ee75f83018a615dbd565b8181036020830152615ef98189615df4565b90508181036040830152615f0d8188615df4565b9050615f1c6060830187615bfc565b615f296080830186615966565b615f3660a0830185615b84565b81810360c0830152615f488184615e78565b905098975050505050505050565b5f6020820190508181035f830152615f6e8184615df4565b905092915050565b5f602082019050615f895f830184615bfc565b92915050565b5f5f60408385031215615fa557615fa461553b565b5b5f615fb285828601615589565b9250506020615fc3858286016155bc565b9150509250929050565b5f60c08284031215615fe257615fe161553b565b5b5f615fef8482850161598e565b91505092915050565b5f60a08201905061600b5f830188615bfc565b6160186020830187615bfc565b6160256040830186615966565b6160326060830185615966565b61603f6080830184615966565b9695505050505050565b5f60e08201905061605c5f83018a615b84565b6160696020830189615966565b6160766040830188615bfc565b6160836060830187615bfc565b6160906080830186615bfc565b61609d60a0830185615bfc565b6160aa60c0830184615bfc565b98975050505050505050565b5f8160601b9050919050565b5f6160cc826160b6565b9050919050565b5f6160dd826160c2565b9050919050565b6160f56160f082615562565b6160d3565b82525050565b5f819050919050565b6161156161108261559d565b6160fb565b82525050565b5f61612682896160e4565b6014820191506161368288616104565b6020820191506161468287616104565b6020820191506161568286616104565b6020820191506161668285616104565b6020820191506161768284616104565b602082019150819050979650505050505050565b5f81905092915050565b50565b5f6161a25f8361618a565b91506161ad82616194565b5f82019050919050565b5f6161c182616197565b9150819050919050565b5f815190506161d981615573565b92915050565b5f602082840312156161f4576161f361553b565b5b5f616201848285016161cb565b91505092915050565b5f60408201905061621d5f830185615bfc565b61622a6020830184615966565b9392505050565b61623a81615aee565b8114616244575f5ffd5b50565b5f8151905061625581616231565b92915050565b5f602082840312156162705761626f61553b565b5b5f61627d84828501616247565b91505092915050565b5f6060820190506162995f830186615966565b6162a66020830185615966565b6162b36040830184615bfc565b949350505050565b7f4e487b71000000000000000000000000000000000000000000000000000000005f52601160045260245ffd5b5f6162f28261559d565b91506162fd8361559d565b9250828203905081811115616315576163146162bb565b5b92915050565b5f60408201905061632e5f830185615bfc565b61633b6020830184615bfc565b9392505050565b5f8160e01c9050919050565b5f60033d111561636a5760045f5f3e6163675f51616342565b90505b90565b5f60443d106163f95761637e615532565b60043d036004823e80513d602482011167ffffffffffffffff821117156163a65750506163f9565b808201805167ffffffffffffffff8111156163c457505050506163f9565b80602083010160043d0385018111156163e15750505050506163f9565b6163f082602001850186615749565b82955050505050505b90565b7f466163746f7279207265766572743a2000000000000000000000000000000000815250565b5f81905092915050565b5f61643682615dcc565b6164408185616422565b9350616450818560208601615de6565b80840191505092915050565b5f616466826163fc565b601082019150616476828461642c565b915081905092915050565b7f466163746f72792063616c6c206661696c6564000000000000000000000000005f82015250565b5f6164b5601383615dd6565b91506164c082616481565b602082019050919050565b5f6020820190508181035f8301526164e2816164a9565b9050919050565b5f815190506164f7816155a6565b92915050565b5f602082840312156165125761651161553b565b5b5f61651f848285016164e9565b91505092915050565b5f60408201905061653b5f830185615966565b6165486020830184615966565b9392505050565b5f5f604083850312156165655761656461553b565b5b5f616572858286016161cb565b9250506020616583858286016164e9565b9150509250929050565b5f6165978261559d565b91506165a28361559d565b92508282026165b08161559d565b915082820484148315176165c7576165c66162bb565b5b5092915050565b7f4e487b71000000000000000000000000000000000000000000000000000000005f52601260045260245ffd5b5f6166058261559d565b91506166108361559d565b9250826166205761661f6165ce565b5b828204905092915050565b5f60408201905061663e5f830185615966565b61664b6020830184615bfc565b9392505050565b5f6080820190506166655f830187615bfc565b6166726020830186615bfc565b61667f6040830185615bfc565b61668c6060830184615bfc565b95945050505050565b5f819050919050565b5f67ffffffffffffffff82169050919050565b5f819050919050565b5f6166d46166cf6166ca84616695565b6166b1565b61669e565b9050919050565b6166e4816166ba565b82525050565b5f6020820190506166fd5f8301846166db565b92915050565b7f4549503731323a20556e696e697469616c697a656400000000000000000000005f82015250565b5f616737601583615dd6565b915061674282616703565b602082019050919050565b5f6020820190508181035f8301526167648161672b565b9050919050565b5f6167758261559d565b91506167808361559d565b9250828201905080821115616798576167976162bb565b5b92915050565b6167a781615b7b565b81146167b1575f5ffd5b50565b5f815190506167c28161679e565b92915050565b5f602082840312156167dd576167dc61553b565b5b5f6167ea848285016167b4565b91505092915050565b7f4e487b71000000000000000000000000000000000000000000000000000000005f52602260045260245ffd5b5f600282049050600182168061683757607f821691505b60208210810361684a576168496167f3565b5b50919050565b7f4e487b71000000000000000000000000000000000000000000000000000000005f52602160045260245ffd5b5f819050815f5260205f209050919050565b5f6020601f8301049050919050565b5f82821b905092915050565b5f600883026168d97fffffffffffffffffffffffffffffffffffffffffffffffffffffffffffffffff8261689e565b6168e3868361689e565b95508019841693508086168417925050509392505050565b5f61691561691061690b8461559d565b6166b1565b61559d565b9050919050565b5f819050919050565b61692e836168fb565b61694261693a8261691c565b8484546168aa565b825550505050565b5f5f905090565b61695961694a565b616964818484616925565b505050565b5b818110156169875761697c5f82616951565b60018101905061696a565b5050565b601f8211156169cc5761699d8161687d565b6169a68461688f565b810160208510156169b5578190505b6169c96169c18561688f565b830182616969565b50505b505050565b5f82821c905092915050565b5f6169ec5f19846008026169d1565b1980831691505092915050565b5f616a0483836169dd565b9150826002028217905092915050565b616a1d82615dcc565b67ffffffffffffffff811115616a3657616a3561571c565b5b616a408254616820565b616a4b82828561698b565b5f60209050601f831160018114616a7c575f8415616a6a578287015190505b616a7485826169f9565b865550616adb565b601f198416616a8a8661687d565b5f5b82811015616ab157848901518255600182019150602085019450602081019050616a8c565b86831015616ace5784890151616aca601f8916826169dd565b8355505b6001600288020188555050505b505050505050565b5f60a082019050616af65f830188615b84565b616b036020830187615b84565b616b106040830186615b84565b616b1d6060830185615bfc565b616b2a6080830184615966565b9695505050505050565b5f60ff82169050919050565b616b4981616b34565b82525050565b5f608082019050616b625f830187615b84565b616b6f6020830186616b40565b616b7c6040830185615b84565b616b896060830184615b84565b9594505050505056fea2646970667358221220ac4cf3ccecf1ab4d7065c5962b270266cad2a8e2a7632d9c539b4e9e91ccc6f364736f6c634300081e0033","linkReferences":{}},"methodIdentifiers":{"MIN_PRICE()":"ad9f20a6","UPGRADE_INTERFACE_VERSION()":"ad3cb1cc","_weth()":"a1764595","activateMarketplace()":"32861b9d","buyUnmintedToken(uint256)":"be1965fa","cancelOffer((address,uint256,uint256,uint256,uint256,uint256),bytes)":"a9ab7a16","cancelOrder((address,uint256,uint256,uint256,uint256,uint256),bytes)":"280452e6","createOffer(uint256,uint256,uint256,uint256,uint256)":"795fccf1","eip712Domain()":"84b0196e","executeOffer((address,uint256,uint256,uint256,uint256,uint256),bytes)":"3a524db2","executeOrder((address,uint256,uint256,uint256,uint256,uint256),bytes)":"2ec4a479","getAllRoyaltyAndFeeInfo(address,uint256,uint256)":"72560b81","getCollectionAddress(uint256)":"333671a4","getDomainSeparator()":"ed24911d","getMarketplaceFeeAmount()":"c2816958","getMarketplaceFeeReceiver()":"484954ee","getMarketplaceSettings()":"f12eb6d2","initialize(address,address)":"485cc955","isMarketplaceActive()":"d1c53ced","isOfferCancelled((address,uint256,uint256,uint256,uint256,uint256))":"cd8f6fe4","isOfferNonceUsed(address,uint256)":"e152119b","isOrderCancelled((address,uint256,uint256,uint256,uint256,uint256))":"4f10b837","isOrderNonceUsed(address,uint256)":"c03ec234","onERC721Received(address,address,uint256,bytes)":"150b7a02","proxiableUUID()":"52d1902d","putTokenOnSale((address,uint256,uint256,uint256,uint256,uint256))":"3c54662a","setFactoryAddress(address)":"83c17c55","setMarketplaceFeeAmount(uint256)":"6fb13b08","setMarketplaceFeeReceiver(address)":"7b393fb9","setMultisigTimelock(address)":"74bbc800","stopMarketplace()":"7fbf727a","upgradeToAndCall(address,bytes)":"4f1ef286","withdrawMarketplaceFees()":"2a25194f"},"id":68}